:100000000C94C9000C94EC3D0C941D3E0C944E3E97
:100010000C947F3E0C94B03E0C94E13E0C94123F45
:100020000C94433F0C94F3000C94F3000C94F300F5
:100030000C94E3030C94F3000C94F3000C94C702AB
:100040000C94F3000C94F3000C94F3000C94F30064
:100050000C94F3000C94F3000C94F3000C94A202A3
:100060000C94F3000C94433C0C94F3000C94F300B8
:100070000C94F3000C94F3000C94F3000C94F30034
:100080000C94F3000C94F3000C94F3000C94F30024
:100090000C94843C0C94F3000C94F3000C944241B7
:1000A0000C94F3000C94F3000C94F3000C94F30004
:1000B0000C94F3000C94F3000C94F3000C94F300F4
:1000C0000C94F3000C94F3000C94F300002124270B
:1000D0002A2D3033002225282B2E313400202326D0
:1000E000292C2F3205050505030303030101010433
:1000F00004030606060606060606010405010501B8
:1001000003020202020202010202050504040304C2
:1001100004010304070707010208101020408004AF
:1001200008102040020204081020408001028020B4
:100130004004200101020408102001408040800199
:1001400002080408800410040201000008090000ED
:10015000000000000000000000000000000000009F
:10016000000000000000000000000000000000008F
:1001700000000000000000000000000000001A0461
:10018000580C16386D381D3AA33ABE3BFE3F9E40D0
:10019000A24211241FBECFEFD1E2DEBFCDBF16E0D9
:1001A000A0E0B2E0ECE1FEE800E00BBF02C0079087
:1001B0000D92A037B107D9F711E1A0E7B6E001C071
:1001C0001D92AB38B107E1F711E0C2E9D1E004C0FC
:1001D0002297FE010E940943CE37D107C9F70E943A
:1001E0009B020C940C470C9400000F931F9302E2A7
:1001F0001BE0C80165E043E021E00E941E3AC8010F
:100200000E941B378DEC96E00E9462048CEF9AE00E
:100210000E94013A04E81DE0C8010E94B23BC801F7
:1002200061E00E94853B1F910F91089560917006D7
:100230007091710682E29BE00E949C35809170066D
:10024000909171060E94D64310927106109270062A
:1002500008950F931F938AE199E061E070E00E9496
:100260002D3804E81DE0C8010E946B3B9093C7063F
:100270008093C606C8010E94513B9093C9068093A3
:10028000C806C8010E94373B9093CB068093CA06EC
:100290000E94EC022DB73EB7225130400FB6F894C1
:1002A0003EBF0FBE2DBFEDB7FEB7319622E736E059
:1002B000ADB7BEB712963C932E93119720E032E073
:1002C0003383228364837583868397838091C206F8
:1002D0009091C3069187808780918C0C82871386CA
:1002E0008091C6069091C706958784878091C8063D
:1002F0009091C906978786878091CA069091CB0610
:10030000918B808B0E9435442DB73EB72E5E3F4FB8
:100310000FB6F8943EBF0FBE2DBF1F910F910895E9
:10032000EF920F931F9381E090E064EB70E00E94E6
:100330000D43FC01909371068093700691E09087C5
:10034000E458FF4F82E580839293EB57F040109280
:10035000950C02E21BE0C801BF014EE152E020E033
:100360000E94102A6091700670917106C80143E2E4
:1003700052E022E736E001E0EE240E943C2B1F9180
:100380000F91EF900895CF93DF9381E090E09093E9
:10039000C5068093C406C1E0D0E0BDC0D093C306BB
:1003A000C093C20614C082E29BE060E00E94C129B3
:1003B0000E9429010E9490010E9416018091C206AC
:1003C0009091C30601969093C3068093C2068091D4
:1003D000C2069091C3068536910528F38DEC96E010
:1003E0000E946204D093C306C093C20614C082E286
:1003F0009BE061E00E94C1290E9429010E949001B6
:100400000E9416018091C2069091C30601969093B6
:10041000C3068093C2068091C2069091C3068536BA
:10042000910528F38DEC96E00E946204D093C306F8
:10043000C093C20614C082E29BE062E00E94C12920
:100440000E9429010E9490010E9416018091C2061B
:100450009091C30601969093C3068093C206809143
:10046000C2069091C3068536910528F38DEC96E07F
:100470000E946204D093C306C093C20614C082E2F5
:100480009BE063E00E94C1290E9429010E94900123
:100490000E9416018091C2069091C3060196909326
:1004A000C3068093C2068091C2069091C30685362A
:1004B000910528F38DEC96E00E946204D093C30668
:1004C000C093C20614C082E29BE064E00E94C1298E
:1004D0000E9429010E9490010E9416018091C2068B
:1004E0009091C30601969093C3068093C2068091B3
:1004F000C2069091C3068536910528F38DEC96E0EF
:100500000E9462048091C4069091C5060196909362
:10051000C5068093C4068091C4069091C5060297D3
:1005200008F43CCF60EE73E984E090E00E9404039D
:10053000DF91CF9108950E9426030E94F5000E944A
:10054000C301FDCF1F920F920FB60F9211248F930C
:100550009F93AF93BF938091FF0E9091000FA09156
:10056000010FB091020F0196A11DB11D8093FF0EE6
:100570009093000FA093010FB093020FBF91AF9122
:100580009F918F910F900FBE0F901F9018951F9203
:100590000F920FB60F9211248F939F93AF93BF9337
:1005A0008091030F9091040FA091050FB091060F59
:1005B0000196A11DB11D8093030F9093040FA0938A
:1005C000050FB093060FBF91AF919F918F910F9040
:1005D0000FBE0F901F9018956091FF0E7091000F45
:1005E0008091010F9091020F27E0660F771F881FFF
:1005F000991F2A95D1F72EE330E040E050E00E94A9
:10060000CA42CA01B9010895AF92BF92CF92DF9258
:10061000EF92FF920F931F935B016C010E94EC021B
:100620007B018C010E94EC026E197F09800B910BFB
:100630006A157B058C059D05A8F31F910F91FF900E
:10064000EF90DF90CF90BF90AF900895789484B7EB
:10065000877F84BF1092FF0E1092000F1092010F3F
:100660001092020F84B5826084BD84B5816084BD20
:1006700085B5826085BD85B5816085BDEEE6F0E01B
:10068000808181608083E1E8F0E080818260808306
:10069000808181608083E0E8F0E0808181608083F8
:1006A000E1EBF0E0808184608083E1E9F0E080812B
:1006B00084608083E0EBF0E0808181608083E0E90A
:1006C000F0E0808181608083E4E6F0E080818E7FCD
:1006D0008083ECE7F0E080818F7780838081806485
:1006E0008083EAE7F0E0808184608083808182609B
:1006F00080838081806880831092C1001092C9003D
:1007000008959091CC06982B9093CC0680FF32C030
:10071000809164008E7F8093640080917C008F774D
:1007200080937C0080917C00806480937C00809129
:100730007A00846080937A0080917A00826080934E
:100740007A0080917A00806880937A0080916400BA
:100750008F7780936400809164008B7F8093640026
:10076000809164008D7F80936400809165008E7F0E
:10077000809365000895282F20959091CC069223B0
:100780009093CC0680FF1EC080917A008F77809373
:100790007A0080916400816080936400809164009D
:1007A000806880936400809164008460809364001A
:1007B0008091640082608093640080916500816014
:1007C0008093650008951F920F920FB60F920BB69B
:1007D0000F9211242F933F934F935F936F937F93C7
:1007E0008F939F93AF93BF93EF93FF93F89481E020
:1007F00080936F06E0E6F0E08081806880838081EE
:100800008F7B808383E060E00E94923F7894FF9129
:10081000EF91BF91AF919F918F917F916F915F9178
:100820004F913F912F910F900BBE0F900FBE0F90E5
:100830001F9018951092CD060895EF92FF920F9396
:100840001F93CF93DF93EC017A018B0177FF0CC0EC
:100850008DE268810E94C53C10950095F094E0946B
:10086000E11CF11C011D111DC801B7012AE030E097
:1008700040E050E008810E94C83CDF91CF911F9179
:100880000F91FF90EF9008950F931F93FC01DA01F1
:100890008B012115310529F4842F60810E94C53C0C
:1008A0000EC02A30310519F40E941D0408C030E042
:1008B00040E050E0BD01C80100810E94C83C1F918A
:1008C0000F910895FC0180810E942F3C0895FC0146
:1008D00080810E94F43B0895FC0180810E94D03BFE
:1008E0000895FC0160E076E980E090E040810E949C
:1008F000703D86E161E00E94743F0895CF93DF93DD
:10090000EC016983623099F0633049F06130A1F401
:100910000E94710486E161E00E94923F0DC086E171
:1009200060E00E94923F88810E94523D05C08FEC9A
:1009300096E061E00E94EE29DF91CF9108950F9338
:100940001F93CF93DF93DC018B01EC01CC5EDD4F75
:100950001982188240E0BE0106C04F5F2F5F3F4FF3
:10096000FB0131832083FB0120813181F801E20FFB
:10097000F31F8081882389F7469583E090E099836F
:10098000888390E0ED01CC5EDD4F50E00BC0FD01AF
:10099000E20FF31FEE5DFD4F8081980F2F5F3F4FF9
:1009A00039832883288139812417350780F3892FDB
:1009B0008095A40FB51FAF5DBD4F8C93DF91CF9194
:1009C0001F910F910895AF92BF92CF92DF92EF9255
:1009D000FF920F931F93CF93DF937C018B010655FA
:1009E0001F4FD8018C910A5A1040F801E855FF4F6B
:1009F000813009F024C1C22EDD24DA01AC0DBD1D09
:100A000083E28C938081813009F446C0813020F0EC
:100A1000823009F038C2AAC011961C921197015772
:100A20001F4FF80181918F0112968C93129780814C
:100A30000059104013968C931397F701EC5EFD4F0D
:100A400011821082EF01F6E1CF2EF2E0DF2ECE0C04
:100A5000DF1CB701685E7D4FAD010FC0FA01E20FE8
:100A6000F31FA00FB11FA20FB31F1C968C9184839C
:100A70008881998101969983888328813981F6013B
:100A8000A081B181FB018081918101968A1B9B0B22
:100A90002817390718F3F7C111968C93B7016C5ECC
:100AA0007D4FDB011D921C92EB0110C0FA01EA0F91
:100AB000FB1FEC0DFD1DA00FB11FA557BF4F8C9163
:100AC000828388819981019699838883A881B981DD
:100AD000A430B10558F3FB0111821082E701CC5E0E
:100AE000DD4F10C0FA01EA0FFB1FEC0DFD1DA00F3A
:100AF000B11FA957BF4F8C91868388819981019638
:100B000099838883A881B981A430B10558F31982EB
:100B10001882E701CC5EDD4FE6E1AE2EE2E0BE2EAC
:100B2000AE0CBF1C9701285E3D4F11C0FA01E60FC5
:100B3000F71FEC0DFD1DA00FB11FA60FB71F1C96D0
:100B40008C918287888199810196998388836881B5
:100B50007981F501A081B181F901808191810196AE
:100B60008A1B9B0B6817790708F38DC111968C932C
:100B7000C0E0D0E0D701AC5EBD4F06C0E9016F5FB9
:100B80007F4F11967C936E936D917C911197F80134
:100B9000E60FF71FEF56FF4F80819E012F5F3F4FFB
:100BA000833261F71D921C92E701CC5EDD4F10C0CD
:100BB000FA01EA0FFB1FEC0DFD1DA00FB11FAF5690
:100BC000BF4F8C9182838881998101969983888314
:100BD000A881B981A217B30758F319821882E701D7
:100BE000CC5EDD4F76E1A72E72E0B72EAE0CBF1CB7
:100BF00088E192E0E80EF91E13C0FA01E60FF71F34
:100C0000E20FF31FEC0DFD1DA00FB11FA60FB71FC4
:100C10001C968C918283888199810196998388831F
:100C200068817981F501A081B181F701808191818D
:100C300001968A1B9B0B68177907F8F224C1808103
:100C4000813009F446C0813020F0823009F01BC1A8
:100C5000AEC030E0FA01E20FF31F108201571F4FC0
:100C6000D8018D918D0181838C9100591040828330
:100C7000F701EC5EFD4F11821082EF0166E1C62E96
:100C800062E0D62ECE0CDF1CE8E1F2E0EE0EFF1E95
:100C900011C0FA01E60FF71FE20FF31FA00FB11FFB
:100CA000A60FB71F1C968C9183838881998101962A
:100CB0009983888368817981F601A081B181F701E8
:100CC0008081918101968A1B9B0B6817790708F335
:100CD000DAC030E0FA01E20FF31F8083B7016C5EE7
:100CE0007D4FDB011D921C92EB0110C0FA01EA0F4F
:100CF000FB1FE20FF31FA00FB11FA557BF4F8C9131
:100D0000818388819981019699838883A881B9819B
:100D1000A430B10558F3FB0111821082E701CC5ECB
:100D2000DD4F10C0FA01EA0FFB1FE20FF31FA00F07
:100D3000B11FA957BF4F8C918583888199810196F6
:100D400099838883A881B981A430B10558F31982A9
:100D50001882E701CC5EDD4F96E1C92E92E0D92ED4
:100D6000CE0CDF1C88E192E0E80EF91E11C0FA01FA
:100D7000E60FF71FE20FF31FA00FB11FA60FB71F5B
:100D80001C968C91818788819981019699838883AB
:100D900068817981F601A081B181F701808191811B
:100DA00001968A1B9B0B6817790708F36CC0C22E4B
:100DB000DD24FA01EC0DFD1D8083C0E0D0E0D701F9
:100DC000AC5EBD4F06C0E9016F5F7F4F11967C930B
:100DD0006E936D917C911197F801E60FF71FEF5616
:100DE000FF4F80819E012F5F3F4F833261F71D923D
:100DF0001C92E701CC5EDD4F10C0FA01EA0FFB1F29
:100E0000EC0DFD1DA00FB11FAF56BF4F8C9181831C
:100E100088819981019699838883A881B981A217D5
:100E2000B30758F319821882E701CC5EDD4F86E1E3
:100E3000A82E82E0B82EAE0CBF1C88E192E0E80E2E
:100E4000F91E13C0FA01E60FF71FE20FF31FEC0DB6
:100E5000FD1DA00FB11FA60FB71F1C968C9181839B
:100E60008881998101969983888368817981F501C8
:100E7000A081B181F7018081918101968A1B9B0B32
:100E800068177907F8F2DF91CF911F910F91FF90CA
:100E9000EF90DF90CF90BF90AF9008953F924F9228
:100EA0005F926F927F928F929F92AF92BF92CF92FA
:100EB000DF92EF92FF920F931F93DF93CF9300D0B7
:100EC00000D0CDB7DEB76B014A017901AA24A39403
:100ED00010E022E730E0C20ED31E21E3422E9DE750
:100EE000792E83E3382EBEE56B2EADE55A2E30C148
:100EF000D401A60FB71F8C91813111F090E04AC048
:100F00004C92F70180818F5F80838C917C926F5F20
:100F10007F4F9401260F371F3C832B836150704015
:100F2000FB013296FA83E98320C0EB81FC81B1801A
:100F3000418349815A814F5F5F4F3296FC83EB8337
:100F400029813A812E5F3F4F3A832983F7018081BF
:100F50009801280F311DC901F60120813181820FCE
:100F6000931F48175907A8F48B2DEB81FC81408112
:100F70008083F70180819801280F311DC901F60196
:100F800020813181820F931F29813A8128173907E7
:100F900060F291E08C91833109F04DC0992309F002
:100FA0004AC03C92F70180818F5F80838C917C9254
:100FB0006F5F7F4F9401260F371F3C832B83615057
:100FC0007040FB013296FA83E98320C0EB81FC81FB
:100FD000B180418349815A814F5F5F4F3296FC83D4
:100FE000EB8329813A812E5F3F4F3A832983F701B2
:100FF00080819801280F311DC901F60120813181BE
:10100000820F931F48175907A8F48B2DEB81FC81A1
:1010100040818083F70180819801280F311DC9012B
:10102000F60120813181820F931F29813A8128178F
:10103000390760F291E08C918E3709F04DC0992309
:1010400009F04AC06C92F70180818F5F80838C9198
:101050007C926F5F7F4F9401260F371F3C832B8359
:1010600061507040FB013296FA83E98320C0EB8126
:10107000FC81B180418349815A814F5F5F4F329635
:10108000FC83EB8329813A812E5F3F4F3A8329838A
:10109000F70180819801280F311DC901F6012081D7
:1010A0003181820F931F48175907A8F48B2DEB81CC
:1010B000FC8140818083F70180819801280F311DD8
:1010C000C901F60120813181820F931F29813A8164
:1010D0002817390760F291E02C912D37C1F599233B
:1010E000B1F55C92F70180818F5F80838C912C93A6
:1010F0006F5F7F4FF401E60FF71F6F5F7F4F17C0E1
:10110000B1804183AB014F5F5F4F32966E5F7F4F7F
:10111000D7018C919801280F311DC901D6012D915D
:101120003C91820F931F4817590788F48B2D4081FB
:101130008083D7018C919801280F311DC901D601F8
:101140002D913C91820F931F68177907C8F2A394E1
:101150006A2D70E0F70180819801280F311DC901C7
:10116000D6012D913C91820F931F6817790708F4DF
:10117000BFCE0F900F900F900F90CF91DF911F91E6
:101180000F91FF90EF90DF90CF90BF90AF909F9026
:101190008F907F906F905F904F903F900895DF9277
:1011A000EF92FF920F931F93CF93DF93890180E01B
:1011B00090E0F3E1DF2EEEE7EE2E31E1F32E37C0C3
:1011C0002F5F3F4F9C919D3731F011963196241738
:1011D0003507B0F32DC02417350750F5E9012196E6
:1011E000E60FF71F8181833361F0843318F4813374
:1011F00069F405C08D3549F08E3541F404C0FC9288
:1012000005C0DC9203C0EC9201C09C934150504059
:10121000F901E00FF11FE60FF71F02C08181808303
:101220002F5F3F4F3196CE0124173507B8F39C014D
:101230002417350738F4F901E00FF11FDB01AE0F79
:10124000BF1FC0CFDF91CF911F910F91FF90EF9003
:10125000DF900895EF92FF920F931F93CF93DF9348
:10126000EC01C052DE4FE8808DEEE80E23978881B6
:10127000CD5DD140813009F0C9C0CD5DDE4FF88031
:10128000C352D140FA948E010C5E1D4FD8011D92BD
:101290001C92B8012F2D30E087E290E0289FA0013A
:1012A000299F500D389F500D11244C0F5D1F11C008
:1012B000FA01EA0FFB1FE05AFF4FAC0FBD1FAE5102
:1012C000BE4F8C918083FB01808191810196918337
:1012D0008083FB01A081B181A230B10548F3D80120
:1012E0001D921C92AE014C5E5D4F2F2D30E087E2C7
:1012F00090E0289FB001299F700D389F700D112438
:101300006C0F7D1F11C0FB01EA0FFB1FEE59FF4F51
:10131000AC0FBD1FAC51BE4F8C918083FA01808110
:101320009181019691838083FA01A081B181A430DB
:10133000B10548F311821082BE016C5E7D4F2F2DE6
:1013400030E087E290E0289FA001299F500D389F50
:10135000500D11244C0F5D1F12C0FA01EA0FFB1F44
:10136000EA59FF4FAC0FBD1FA851BE4F8C9180832F
:10137000DB018D919C91119701968D939C93FB01BC
:10138000A081B181A430B10540F387E290E0289FAD
:10139000F001299FF00D389FF00D1124EC0FFD1F77
:1013A000EA57FF4FC451DE4F8881CC5ED140808325
:1013B000E658F040AE0140525E4FDA018D919C91AB
:1013C0000D9720F1DB011D921C929E012C5E3D4F7A
:1013D000BA01AF0111C0FA01EA0FFB1FE659FF4F36
:1013E000AC0FBD1FA351BE4F8C918083F90180814A
:1013F0009181019691838083F901A081B181FB01E4
:10140000808191810C97A817B90728F3C352DE4F4A
:101410008881CD5DD1408250843008F047C1CD5DD8
:10142000DE4FF880C352D140FA948E010C5E1D4FFE
:10143000D8011D921C92B8012F2D30E087E290E078
:10144000289FA001299F500D389F500D11244C0F4B
:101450005D1F11C0FA01EA0FFB1FE05AFF4FAC0FEE
:10146000BD1FAE51BE4F8C918083FB018081918165
:10147000019691838083FB01A081B181A230B105E7
:1014800048F3D8011D921C92AE014C5E5D4F2F2D8A
:1014900030E087E290E0289FB001299F700D389FCF
:1014A000700D11246C0F7D1F11C0FB01EA0FFB1F93
:1014B000EE59FF4FAC0FBD1FAC51BE4F8C918083D6
:1014C000FA0180819181019691838083FA01A08144
:1014D000B181A430B10548F311821082AE014C5E97
:1014E0005D4F2F2D30E087E290E0289FB001299FCB
:1014F000700D389F700D11246C0F7D1F12C0FB0101
:10150000EA0FFB1FEA59FF4FAC0FBD1FA851BE4F9A
:101510008C918083DA018D919C91119701968D9326
:101520009C93FA01A081B181A430B10540F31182EE
:101530001082AE014C5E5D4F0E2D10E02F2D30E07D
:1015400087E290E0289FB001299F700D389F700DB1
:1015500011246C0F7D1F12C0FB01EA0FFB1FE6591F
:10156000FF4FAC0FBD1FA451BE4F8C918083DA0199
:101570008D919C91119701968D939C93FA01A08176
:10158000B181A017B10740F311821082BE016C5ED9
:101590007D4F2F2D30E087E290E0289FA001299F0A
:1015A000500D389F500D11244C0F5D1F14C0FA01CF
:1015B000EA0FFB1FE258FF4FAC0FBD1FA00FB11F7A
:1015C000A351BE4F8C918083DB018D919C9111972B
:1015D00001968D939C93FB01A081B181A230B1054E
:1015E00030F387E290E0289FD001299FB00D389F0B
:1015F000B00D1124AC0FBD1FA058BF4FFE01EE0D62
:10160000F11DE151FE4F81918D9380818C93A15802
:10161000B040FB0111821082AE014C5E5D4FBD01F6
:1016200014C0FB01EA0FFB1FEE57FF4FAC0FBD1FAD
:10163000A00FB11FAF50BE4F8C918083DA018D9106
:101640009C91119701968D939C93FA01A081B18191
:10165000A230B10530F311821082BE016C5E7D4F65
:1016600087E290E0289FA001299F500D389F500DE0
:1016700011244C0F5D1F14C0FA01EA0FFB1FEC5739
:10168000FF4FAC0FBD1FA00FB11FAD50BE4F8C91CF
:101690008083DB018D919C91119701968D939C9392
:1016A000FB01A081B181A230B10530F3DF91CF9170
:1016B0001F910F91FF90EF900895CF93DF93FC015E
:1016C000EC5EFD4F2D5F3F4F31832083A0E0B0E003
:1016D000EF010AC0FB01E20FF31F8081A80FB11DCB
:1016E0002F5F3F4F3983288328813981241735079D
:1016F00088F3AF3FB10511F480E004C080E0AF3F54
:1017000009F081E0DF91CF910895EF92FF920F935E
:101710001F93CF93DF938C01EB0179010E945D0B46
:10172000882311F081E008C008521E4FCE0DDF1D46
:101730008C81F801808380E0DF91CF911F910F9120
:10174000FF90EF900895AF92BF92CF92DF92EF9209
:10175000FF920F931F93CF93DF93EC016B017A01FC
:101760005901A90198010E945D0B882309F05AC014
:10177000F601E00FF11F9581D70115968C91159711
:10178000981709F04FC0968116968C91981709F01A
:1017900049C09501201B310B2930310529F487817F
:1017A000882309F442C03EC087818823D9F5FE0111
:1017B000EC5EFD4F11821082AF012950304012C003
:1017C000FE01E60FF71FEE51FE4FD601A60FB71F21
:1017D000A00FB11F18968C9180836F5F7F4FFA0125
:1017E00071836083DA016D917C916217730740F316
:1017F000C052DE4F39832883C05ED140F701858116
:101800008E3491F48681843479F42230310530F0BD
:10181000FE01ED5DFE4F80818F5F8083CE010E94CF
:101820002A0902C081E001C080E0DF91CF911F91C1
:101830000F91FF90EF90DF90CF90BF90AF90089501
:10184000FC01EC5EFD4F11821082DF010BC0FC0138
:10185000E20FF31FEE5DFD4F10822F5F3F4F119699
:101860003C932E932D913C9111972E31310578F3B5
:101870000895AC01FC01EC5EFD4F11821082DF0186
:101880000FC0F901BA96EE0FFF1FE40FF51F80811C
:101890009181892B59F02F5F3F4F11963C932E93E6
:1018A0002D913C9111972530310558F3822F0895E1
:1018B0000895CF92DF92EF92FF920F931F93CF93F1
:1018C000DF936C01FC01EC5EFD4F118210828F01F1
:1018D000E62EFF24E701CC0FDD1FCC0FDD1FCE0D60
:1018E000DF1D1CC0EC0FFD1F3B96EE0FFF1FEC0D24
:1018F000FD1D808191810E94D643D8018D919C91DC
:101900001197FE01E80FF91F3B96EE0FFF1FEC0D3C
:10191000FD1D1182108201968D939C93D801ED914B
:10192000FC91E530F105F0F28701000F111F0C0D5D
:101930001D1D075B1F4FD801ED91FC9115AA16AA3A
:1019400017AA10AECF010E94D643F801118210826F
:10195000F601ED5AFF4F808181508083DF91CF9156
:101960001F910F91FF90EF90DF90CF900895AF926D
:10197000BF92CF92DF92FF920F931F93CF93DF938B
:101980006C01FF2460E070E08C010C5E1D4FD801FB
:101990006D937C93EB01AA96CC0FDD1FCC0DDD1D62
:1019A00023C05F010894A11CB11CA881B981A55571
:1019B000BF4FBB96EE0FFF1FEC0DFD1D0190F08198
:1019C000E02DE555FF4F2D913D914D915C9180812A
:1019D0009181A281B38182179307A407B50754F4BC
:1019E000F394F801B182A082D801ED91FC91E4302A
:1019F000F105B8F2B4E0FB1621F4F62E65E070E0D4
:101A000002C0F62EF3946F5F7F4F6530710508F4C6
:101A1000BECF0F2D10E0065D1F4F000F111F0C0DE4
:101A20001D1DF801808191810E94D643D8011D922D
:101A30001C928F2DDF91CF911F910F91FF90DF901E
:101A4000CF90BF90AF900895AF92BF92CF92DF92A8
:101A5000FF920F931F93CF93DF936C01FF2460E0FD
:101A600070E08C010C5E1D4FD8016D937C93EB01EF
:101A7000AA96CC0FDD1FCC0DDD1D23C05F0108949D
:101A8000A11CB11CA881B981A555BF4FBB96EE0F13
:101A9000FF1FEC0DFD1D0190F081E02DE555FF4F7E
:101AA0002D913D914D915C9180819181A281B38175
:101AB000281739074A075B0754F4F394F801B182F9
:101AC000A082D801ED91FC91E430F105B8F2B4E0C8
:101AD000FB1621F4F62E65E070E002C0F62EF394BA
:101AE0006F5F7F4F6530710508F4BECF0F2D10E09A
:101AF000065D1F4F000F111F0C0D1D1DF801808189
:101B000091810E94D643D8011D921C928F2DDF91A6
:101B1000CF911F910F91FF90DF90CF90BF90AF902A
:101B200008950F931F93CF93DF938C01FC01EC5E1C
:101B3000FD4F11821082EF0116C0BA96EE0FFF1F03
:101B4000E00FF11F808191810E94D64388819981A5
:101B50008A96FC01EE0FFF1FE00FF11F1182108229
:101B6000899799838883E881F981E530F10528F325
:101B7000DF91CF911F910F910895AF92BF92CF92B5
:101B8000DF92EF92FF920F931F93CF93DF93EC01BD
:101B900009E4A02EB12CA80EB91EEE24FF2414E1F6
:101BA000C12E12E0D12EC80ED91ED6011D921C9254
:101BB0008701000F111F000F111F0E0D1F1D1CC0EC
:101BC000E00FF11F3B96EE0FFF1FEC0FFD1F808112
:101BD00091810E94D643F60180819181F801E80F3E
:101BE000F91F3B96EE0FFF1FEC0FFD1F11821082B5
:101BF0000196D6018D939C93D601ED91FC91E53031
:101C0000F105F0F2D501ED91FC9115AA16AA17AADB
:101C100010AECF010E94D643F501119211925F01DF
:101C20000894E11CF11CF5E0EF16F10409F0BDCFBA
:101C3000CD5ADF4F1882CC50DE4F18822296188280
:101C4000DF91CF911F910F91FF90EF90DF90CF9098
:101C5000BF90AF900895AF92BF92CF92DF92EF9274
:101C6000FF920F931F93CF93DF93EC01FC01E95B8D
:101C7000FD4F108260E070E014E1A12E12E0B12E61
:101C8000A80EB91E7F01D5016D937C938B01000FC7
:101C9000111F0C0F1D1F075B1F4F28C0D8018D910E
:101CA0009C916F010894C11CD11CF601EE0FFF1F1F
:101CB000EC0FFD1FE75BFF4F0190F081E02DDC0191
:101CC000D5962D913D914D915C91D89785A996A976
:101CD000A7A9B0AD281739074A075B076CF4F701CD
:101CE00080818F5F8083D501CD92DC92D501ED910B
:101CF000FC91E430F10590F2F7018081843021F409
:101D0000608365E070E004C0862F8F5FD7018C93FD
:101D10006F5F7F4F6530710508F4B5CFFE01EC5E53
:101D2000FD4F118210828F0177E4E72E72E0F72ECB
:101D3000EC0EFD1E2FC0F701808190E0FC01EE0F3C
:101D4000FF1FEE0FFF1FE80FF91FE20FF31F3B9677
:101D5000EE0FFF1FEC0FFD1F808191810E94D64383
:101D6000D7018C9190E0FC01EE0FFF1FEE0FFF1FDB
:101D7000E80FF91FD8018D919C911197E80FF91F79
:101D80003B96EE0FFF1FEC0FFD1F11821082019694
:101D90008D939C93F801208131812530310558F2D3
:101DA000D701EC91F0E0EE0FFF1FEC0FFD1FE75B9A
:101DB000FF4F0190F081E02D15AA16AA17AA10AEC8
:101DC000EC91F0E0EE0FFF1FEC0FFD1FE75BFF4F04
:101DD000808191810E94D643D701EC91F0E0EE0F13
:101DE000FF1FEC0FFD1FE75BFF4F11821082FE010A
:101DF000ED5AFF4F808181508083C75BDD4F188291
:101E0000DF91CF911F910F91FF90EF90DF90CF90D6
:101E1000BF90AF9008952F923F924F925F926F9232
:101E20007F928F929F92AF92BF92CF92DF92EF926A
:101E3000FF920F931F93DF93CF93CDB7DEB76097D9
:101E40000FB6F894DEBF0FBECDBF7C016B01FC0165
:101E5000EC5EFD4F1182108229E432E0E20EF31EA7
:101E6000D7018C9127EB3DEFE20EF31E882311F191
:101E7000DF0110C0F901EE0FFF1FEE0DFF1DE75B44
:101E8000FF4F80819181892B59F02F5F3F4F119631
:101E90003C932E932D913C9111972530310550F3B1
:101EA00047E452E0E40EF51ED7012C93E9EBFDEF79
:101EB000EE0EFF1E24E132E0E20EF31ED7011D926A
:101EC0001C92E9ECFFEFEE0EFF1ED7018C91E3E2CE
:101ED000FEEFEE0EFF1E813079F020EE31E0E20ED3
:101EE000F31ED7018D919C91E0E2FEEFEE0EFF1EF6
:101EF0000C9770F50C94F3202AE132E0E20EF31E09
:101F0000D7018C91E6EEFDEFEE0EFF1E882379F4EB
:101F100020EE31E0E20EF31ED7018D919C91E0E2BC
:101F2000FEEFEE0EFF1E059798F40C94F32081301F
:101F300079F420EE31E0E20EF31ED7018D919C91F1
:101F4000E0E2FEEFEE0EFF1E0B9710F40C94F32070
:101F500000E010E06624882477249924B7016C5EA1
:101F60007D4FEDED4E2EE1E05E2E4E0C5F1C5BE1F1
:101F7000252E52E0352E2E0C3F1C9701265E3D4F3C
:101F80003E872D87DB011D921C92F801EE0FFF1F8B
:101F9000EE0DFF1DE75BFF4F0190F081E02D85A95D
:101FA00096A9A7A9B0AD181619061A061B060CF0BB
:101FB0008CC3D2018C91813009F0D0C1AD85BE8532
:101FC0008C91882309F0E1C0D60114969C91149756
:101FD0008081981709F079C3AA24BB2416968C91A6
:101FE000833219F431E0A32EB12C96012A0D3B1D4A
:101FF000D90116968C91DB011D921C928130A9F0BB
:10200000813020F0823009F088C070C09389D901F6
:1020100017968C911797981709F07FC09489189696
:102020008C91981709F079C07CC0FB011182108255
:10203000A801440F551F4E0D5F1D475B5F4F17C032
:10204000FA01A081B181A20FB31FF601E20FF31FC5
:10205000EA0DFB1D1B969C918781981719F0882427
:1020600083940BC02F5F3F4FDB012D933C93FB010B
:10207000208131812430310518F3DB011D921C923F
:10208000A801440F551F4E0D5F1D475B5F4F14C0E5
:10209000FA01A081B181A20FB31FF601E20FF31F75
:1020A000EA0DFB1D1F969C9183859817A1F52F5F64
:1020B0003F4FDB012D933C93FB0120813181243084
:1020C000310530F325C0992787FD9095F601E40F7F
:1020D000F51FEA0DFB1D278130E082179307D9F425
:1020E0004F5F5F4FFB015183408307C0D801AA0FA8
:1020F000BB1FAE0DBF1DA75BBF4FFB0140815181D0
:10210000ED91FC911197E40FF51F85898332D9F683
:10211000882039F002C088248394F1E06F1609F01A
:10212000D4C2702E21E0A216B10479F4E02FF0E0C1
:10213000EE0FFF1FEE0DFF1DE75BFF4F0190F081DB
:10214000E02DD60115968C9182AFE72DF0E0EE0FD1
:10215000FF1FEE0DFF1DE75BFF4FA081B181DB96F6
:102160008C91DB978F5FDB968C930190F081E02D53
:10217000D60112962C91129783A994A9820F911DD2
:1021800094AB83AB15969C90E3C0813009F09DC25F
:10219000D6011A969C911A978081981709F095C2DA
:1021A000AA24BB241C968C91833219F4B1E0AB2E87
:1021B000B12C96012A0D3B1DD9011C968C91DB0197
:1021C0001D921C928130A9F0813020F0823009F0FC
:1021D00088C070C09389D9011D968C911D9798175E
:1021E00009F07FC094891E968C91981709F079C0E8
:1021F0007CC0FB0111821082A801440F551F4E0DB7
:102200005F1D475B5F4F17C0FA01A081B181A20F2C
:10221000B31FF601E20FF31FEA0DFB1D1B969C9105
:102220008585981719F0882483940BC02F5F3F4F42
:10223000DB012D933C93FB0120813181243031055A
:1022400018F3DB011D921C92A801440F551F4E0D7F
:102250005F1D475B5F4F14C0FA01A081B181A20FDF
:10226000B31FF601E20FF31FEA0DFB1D1F969C91B1
:1022700081899817A1F52F5F3F4FDB012D933C9388
:10228000FB01208131812430310530F325C09927AD
:1022900087FD9095F601E40FF51FEA0DFB1D2585DE
:1022A00030E082179307D9F44F5F5F4FFB015183F2
:1022B000408307C0D801AA0FBB1FAE0DBF1DA75B8F
:1022C000BF4FFB0140815181ED91FC911197E40FCB
:1022D000F51F85898332D9F6882039F002C0882419
:1022E0008394F1E06F1609F0F0C1702E21E0A21680
:1022F000B10479F4E02FF0E0EE0FFF1FEE0DFF1DAB
:10230000E75BFF4F0190F081E02DD6011B968C9189
:1023100082AFE72DF0E0EE0FFF1FEE0DFF1DE75B34
:10232000FF4FA081B181DB968C91DB978F5FDB96AD
:102330008C930190F081E02DD60118962C9118977E
:1023400083A994A9820F911D94AB83AB1B969C909B
:102350009A94B4E0B91508F0B4C1F8C6825084303C
:1023600008F0B3C1D1018C91882309F0D2C0D60105
:102370001B969C911B978081981709F0A6C1AA24EF
:10238000BB241D968C91833219F431E0A32EB12C1D
:1023900096012A0D3B1DD9011D968C91DB011D92E2
:1023A0001C928130A9F0813020F0823009F088C081
:1023B00070C09389D9011E968C911E97981709F0C9
:1023C0007FC094891F968C91981709F079C07CC0C2
:1023D000FB0111821082A801440F551F4E0D5F1D95
:1023E000475B5F4F17C0FA01A081B181A20FB31FF5
:1023F000F601E20FF31FEA0DFB1D1B969C918685EB
:10240000981719F0882483940BC02F5F3F4FDB018E
:102410002D933C93FB01208131812430310518F349
:10242000DB011D921C92A801440F551F4E0D5F1D2C
:10243000475B5F4F14C0FA01A081B181A20FB31FA7
:10244000F601E20FF31FEA0DFB1D1F969C91828996
:102450009817A1F52F5F3F4FDB012D933C93FB01B4
:10246000208131812430310530F325C0992787FD43
:102470009095F601E40FF51FEA0DFB1D268530E06F
:1024800082179307D9F44F5F5F4FFB01518340835D
:1024900007C0D801AA0FBB1FAE0DBF1DA75BBF4F62
:1024A000FB0140815181ED91FC911197E40FF51FE3
:1024B00085898332D9F6882039F002C08824839434
:1024C000F1E06F1609F001C1702E21E0A216B104EF
:1024D00079F4E02FF0E0EE0FFF1FEE0DFF1DE75B3C
:1024E000FF4F0190F081E02DD6011C968C9182AFB8
:1024F000E72DF0E0EE0FFF1FEE0DFF1DE75BFF4F36
:102500000190F081E02D83AD8F5F83AFF60194845D
:10251000D3C0823009F0D9C0D60151969C91519711
:102520008081981709F0D1C0AA24BB2453968C91BE
:10253000833219F4B1E0AB2EB12C96012A0D3B1D6C
:10254000D90153968C91DB011D921C928130A9F028
:10255000813020F0823009F088C070C09389D901A1
:1025600054968C915497981709F07FC0948955968A
:102570008C91981709F079C07BC0FB011182108201
:10258000A801440F551F4E0D5F1D475B5F4F17C0DD
:10259000FA01A081B181A20FB31FF601E20FF31F70
:1025A000EA0DFB1D1B969C918489981719F08824CD
:1025B00083940BC02F5F3F4FDB012D933C93FB01B6
:1025C000208131812430310518F3DB011D921C92EA
:1025D000A801440F551F4E0D5F1D475B5F4F14C090
:1025E000FA01A081B181A20FB31FF601E20FF31F20
:1025F000EA0DFB1D1F969C91808D9817A1F52F5F0A
:102600003F4FDB012D933C93FB012081318124302E
:10261000310530F325C0992787FD9095F601E40F29
:10262000F51FEA0DFB1D248930E082179307D9F4CA
:102630004F5F5F4FFB015183408307C0D801AA0F52
:10264000BB1FAE0DBF1DA75BBF4FFB01408151817A
:10265000ED91FC911197E40FF51F85898332D9F62E
:10266000882031F002C088248394F1E06F1669F568
:10267000702E21E0A216B10479F4E02FF0E0EE0F05
:10268000FF1FEE0DFF1DE75BFF4F0190F081E02D76
:10269000D60152968C9182AFE72DF0E0EE0FFF1F2E
:1026A000EE0DFF1DE75BFF4F0190F081E02D83AD44
:1026B0008F5F83AFF60192889A94F4E0F91508F4DD
:1026C00045C505E010E0662463940F5F1F4F053099
:1026D000110508F457CC24E132E0E20EF31ED701D5
:1026E0001D921C92ECEEFDEFEE0EFF1E662009F02F
:1026F00015C68701095B1D4FD8017C90E9E4F2E023
:10270000EE0EFF1E81E0D7018C93EAE0FEEFEE0EA5
:10271000FF1ED7018C91EDEAFFEFEE0EFF1E853014
:1027200028F0C7010E942B0ED8017C90F701ED5ACA
:10273000FF4F80818F5F8083A72CBB2481E090E0D6
:102740006EE370E00E940D43FC012501440C551C12
:102750004E0C5F1C29E430E0420E531ED2018D93D3
:102760009C93009709F4F8C52DED31E0E20EF31EBD
:10277000D7018C9123E23EEFE20EF31E813009F087
:1027800084C24AE152E0E40EF51ED7018C9126EE98
:102790003DEFE20EF31E882309F022C112A6D201FA
:1027A000ED91FC91D60114968C918083F201008109
:1027B00011810E94EC02D801D5966D937D938D9383
:1027C0009C93D897F701EC5EFD4F118210829F0118
:1027D000A20111C0FA01608171816A0F7B1FAC0DEB
:1027E000BD1D8C91DB0119968C93F901808191813B
:1027F000019691838083F901A081B181A230B10556
:1028000048F340E050E0D60116968C91833211F4E3
:1028100041E050E0D501AA0FBB1FAE0DBF1DA75B65
:10282000BF4F2D913C911197B601640F751FFB01AD
:102830008681F90181A797012C5E3D4FF901118234
:1028400010820D911C911197F80181A5813089F0BA
:10285000813020F0823009F089C063C0FB0187819C
:10286000F801838BED91FC91DB0118968C91848BA0
:102870007DC0F901118210824901BD0114C0FB0124
:10288000008111810A0F1B1FAC0DBD1DA40FB51FC8
:1028900017968C91D8011B968C93F40180819181BD
:1028A000019691838083F401A081B181A430B105A8
:1028B00030F3D9011D921C9297012C5E3D4FB5015A
:1028C000660F771F6E0D7F1D675B7F4F14C0FB0186
:1028D000008111810A0F1B1FAC0DBD1DA40FB51F78
:1028E0001B968C91D8011F968C93F9018081918160
:1028F000019691838083F901A081B181A430B10553
:1029000030F334C0ED91FC911197E80FF91F258B3E
:10291000FB0180819181019691838083459710F01E
:102920000CC0B901FB0180819181F601E80FF91F0C
:10293000E40FF51F2781233229F7F501EE0FFF1F62
:10294000EE0DFF1DE75BFF4F0190F081E02D24E1CC
:1029500032E0E20EF31ED7018D919C912CEE3DEFFB
:10296000E20EF31EE80FF91F83E2858B413051051B
:1029700071F4F501EE0FFF1FEE0DFF1DE75BFF4F3A
:102980000190F081E02DD60115968C9182AFD50192
:10299000AA0FBB1FAE0DBF1DA75BBF4FED91FC91F2
:1029A000119791E093AFF60195809A94F4E0F915B0
:1029B00008F4CCC32D913C911197F6018281F90165
:1029C00083AB14AAF6018381F90182ABED91FC91EE
:1029D00082A98150823010F493A7A0C413A69EC48C
:1029E000813009F09BC482A7D201ED91FC91D60100
:1029F0001A968C918083F201008111810E94EC0271
:102A0000D801D5966D937D938D939C93D897A7010C
:102A10004C5E5D4FFA01118210829A01B20111C021
:102A2000FB01008111810A0F1B1FAC0DBD1D8C9194
:102A3000D80115968C93F90180819181019691833B
:102A40008083F901A081B181A430B10548F3DA0196
:102A50001D921C9297012C5E3D4FA501440F551FFE
:102A60004E0D5F1D475B5F4F12C0FA01608171819F
:102A70006A0F7B1FAC0DBD1D14968C91DB01119666
:102A80008C93F90180819181019691838083F90172
:102A9000A081B181A430B10540F360E070E0D601BF
:102AA0001C968C91833211F461E070E0D501AA0F7D
:102AB000BB1FAE0DBF1DA75BBF4F2D913C91119762
:102AC000A601460F571FFA018485F90181A79701D6
:102AD0002C5E3D4FF901118210820D911C911197CE
:102AE000F80181A5813089F0813020F0823009F031
:102AF00089C063C0FA018585F801838BED91FC9153
:102B0000DA011E968C91848B7DC0F90111821082AE
:102B10004901AD0114C0FA01008111810A0F1B1F88
:102B2000AC0DBD1DA60FB71F1D968C91D8011B962D
:102B30008C93F40180819181019691838083F401CB
:102B4000A081B181A430B10530F3D9011D921C924E
:102B500097012C5E3D4FA501440F551F4E0D5F1D83
:102B6000475B5F4F14C0FA01008111810A0F1B1FE0
:102B7000AC0DBD1DA60FB71F51968C91D8011F96A5
:102B80008C93F90180819181019691838083F90171
:102B9000A081B181A430B10530F334C0ED91FC9136
:102BA0001197E80FF91F258BFA0180819181019619
:102BB00091838083459710F00CC0A901FA018081B0
:102BC0009181F601E80FF91FE60FF71F25852332E3
:102BD00029F7F501EE0FFF1FEE0DFF1DE75BFF4F1D
:102BE0000190F081E02D24E132E0E20EF31ED701E6
:102BF0008D919C912CEE3DEFE20EF31EE80FF91F34
:102C000083E2858BD501AA0FBB1FAE0DBF1DA75B4D
:102C1000BF4F2D913C911197F6018085F90183AB4F
:102C200014AAF6018185F90182ABED91FC9182A98C
:102C30008150823018F481E083A701C013A661306F
:102C4000710571F4F501EE0FFF1FEE0DFF1DE75B3F
:102C5000FF4F0190F081E02DD6011B968C9182AF41
:102C6000AA0CBB1CAE0CBF1CE9E4F0E0AE0EBF1E0C
:102C7000D501ED91FC9181E083AFF60193849A94A4
:102C8000F4E0F91508F04AC361C28250843008F0BC
:102C900045C32BE132E0E20EF31ED7018C9125EE05
:102CA0003DEFE20EF31E882309F066C1D6011B96A4
:102CB0008C918083F201008111810E94EC02D80185
:102CC000D5966D937D938D939C93D89740E050E07B
:102CD000F6018585833211F441E050E0D501AA0F59
:102CE000BB1FAE0DBF1DA75BBF4F2D913C91119730
:102CF000B601640F751FFB018585F90181A7970156
:102D00002C5E3D4FF901118210820D911C9111979B
:102D1000F80181A5813089F0813020F0823009F0FE
:102D200089C063C0FB018685F801838BED91FC911E
:102D3000DB011F968C91848B7DC0F901118210827A
:102D40004901BD0114C0FB01008111810A0F1B1F45
:102D5000AC0DBD1DA40FB51F1E968C91D8011B96FE
:102D60008C93F40180819181019691838083F40199
:102D7000A081B181A430B10530F3D9011D921C921C
:102D800097012C5E3D4FB501660F771F6E0D7F1DBD
:102D9000675B7F4F14C0FB01008111810A0F1B1F6D
:102DA000AC0DBD1DA40FB51F52968C91D8011F9676
:102DB0008C93F90180819181019691838083F9013F
:102DC000A081B181A430B10530F334C0ED91FC9104
:102DD0001197E80FF91F258BFB01808191810196E6
:102DE00091838083459710F00CC0B901FB0180816D
:102DF0009181F601E80FF91FE40FF51F26852332B4
:102E000029F7F501EE0FFF1FEE0DFF1DE75BFF4FEA
:102E10000190F081E02D24E132E0E20EF31ED701B3
:102E20008D919C912CEE3DEFE20EF31EE80FF91F01
:102E300083E2858B4130510571F4F501EE0FFF1FE0
:102E4000EE0DFF1DE75BFF4F0190F081E02DD601F5
:102E50001C968C9182AFD501AA0FBB1FAE0DBF1D72
:102E6000A75BBF4FED91FC91119781E083AFF60115
:102E700094849A94F4E0F91508F468C197012C5EE3
:102E80003D4FF901118210828901AD0111C0FA0193
:102E9000608171816A0F7B1FAC0DBD1D8C91DB01C0
:102EA00015968C93F801808191810196918380839E
:102EB000F801A081B181A430B10548F3D9011D9278
:102EC0001C9297012C5E3D4FA501440F551F4E0DDE
:102ED0005F1D475B5F4F12C0FA01608171816A0F0D
:102EE0007B1FAC0DBD1D14968C91DB0111968C934C
:102EF000F90180819181019691838083F901A081FC
:102F0000B181A430B10540F31182108297012C5E8B
:102F10003D4FA501440F551FD701A40FB51FA75B57
:102F2000BF4F11C06D917C911197680F791F8C0D67
:102F30009D1DFC018085FB018187F90180819181C4
:102F4000019691838083F90180819181823091057E
:102F500048F3D701A40FB51FA75BBF4FED91FC91BC
:102F6000119713A62D913C911197F6018285F901D5
:102F700082ABED91FC91CDC1823009F0CFC1D60179
:102F800051968C918083F201008111810E94EC02A4
:102F9000D801D5966D937D938D939C93D89740E0FF
:102FA00050E0F6018389833211F441E050E0D5010D
:102FB000AA0FBB1FAE0DBF1DA75BBF4F2D913C914C
:102FC0001197B601640F751FFB018389F90181A771
:102FD00097012C5E3D4FF901118210820D911C91D9
:102FE0001197F80181A5813089F0813020F082307D
:102FF00009F089C063C0FB018489F801838BED91DE
:10300000FC91DB0155968C91848B7DC0F901118276
:1030100010824901BD0114C0FB01008111810A0F1A
:103020001B1FAC0DBD1DA40FB51F54968C91D8016C
:103030001B968C93F401808191810196918380830A
:10304000F401A081B181A430B10530F3D9011D9202
:103050001C9297012C5E3D4FB501660F771F6E0DD8
:103060007F1D675B7F4F14C0FB01008111810A0F38
:103070001B1FAC0DBD1DA40FB51F58968C91D80118
:103080001F968C93F90180819181019691838083B1
:10309000F901A081B181A430B10530F334C0ED91C4
:1030A000FC911197E80FF91F258BFB01808191811D
:1030B000019691838083459710F00CC0B901FB0104
:1030C00080819181F601E80FF91FE40FF51F248933
:1030D000233229F7F501EE0FFF1FEE0DFF1DE75B11
:1030E000FF4F0190F081E02D24E132E0E20EF31E6B
:1030F000D7018D919C912CEE3DEFE20EF31EE80F6F
:10310000F91F83E2858B4130510571F4F501EE0F13
:10311000FF1FEE0DFF1DE75BFF4F0190F081E02DDB
:10312000D60152968C9182AFD501AA0FBB1FAE0D6E
:10313000BF1DA75BBF4FED91FC91119781E083AF5D
:10314000F60192889A94F4E0F91518F4C701672DF6
:1031500019C597012C5E3D4FF9011182108289013A
:10316000AD0111C0FA01608171816A0F7B1FAC0D46
:10317000BD1D8C91DB0115968C93F80180819181A6
:10318000019691838083F801A081B181A430B105BB
:1031900048F3D9011D921C9297012C5E3D4FA50169
:1031A000440F551F4E0D5F1D475B5F4F12C0FA0164
:1031B000608171816A0F7B1FAC0DBD1D14968C91CF
:1031C000DB0111968C93F9018081918101969183A5
:1031D0008083F901A081B181A430B10540F311824F
:1031E000108297012C5E3D4FA501440F551FB7017A
:1031F000640F751F675B7F4F12C0FB010081118157
:103200000A0F1B1FAC0DBD1D18968C91D801199685
:103210008C93F90180819181019691838083F901DA
:10322000A081B181A230B10540F3F701E40FF51F91
:10323000E75BFF4FA081B18182E09B968C93408138
:103240005181D6011A968C91DA019C968C9301904B
:10325000F081E02DD6011B968C9185A7F901118292
:10326000108297012C5E3D4FA501440F551F4E0D56
:103270005F1D475B5F4F12C0FA01608171816A0F69
:103280007B1FAC0DBD1D1C968C91DB019E968C9313
:10329000F90180819181019691838083F901A08158
:1032A000B181A230B10540F31182108297012C5EEA
:1032B0003D4FA501440F551FD701A40FB51FA75BB4
:1032C000BF4F11C06D917C911197680F791F8C0DC4
:1032D0009D1DFC018685FB0180ABF90180819181F8
:1032E000019691838083F9018081918182309105DB
:1032F00048F3F701E40FF51FE75BFF4F20813181B1
:10330000D60150968C91D901D2968C930190F08180
:10331000E02D82A9823011F481E083A7072D10E00F
:10332000A92CBB2481E090E068E670E00E940D4388
:10333000AC01F801EE0FFF1FEE0FFF1FE00FF11FB2
:10334000EA0DFB1D3B96EE0FFF1FEE0DFF1D518397
:1033500040834115510521F4C7010E94BD0D14C4DD
:103360002DED31E0E20EF31ED7019C9123E23EEFFA
:10337000E20EF31E913009F0A2C1AAE1B2E0EA0E1A
:10338000FB1ED7018C9126EE3DEFE20EF31E882343
:1033900009F0BCC04A595F4FD60115968C91DA01ED
:1033A0008C93D60116968C910190F081E02D83329A
:1033B00021F4E959FF4F908303C0E959FF4F108270
:1033C000F801EE0FFF1FEE0FFF1FE00FF11FEA0DD8
:1033D000FB1D3B96EE0FFF1FEE0DFF1D0190F081D0
:1033E000E02DE959FF4F6081862E9924D701AC5E0C
:1033F000BD4F11961C921E92F801EE0FFF1FEE0DAD
:10340000FF1DE75BFF4F0190F081E02D81A581302A
:1034100071F0813018F0823039F403C082E090E01E
:103420001CC040E050E00BC080E090E016C088E097
:1034300090E013C02F5F3F4F11963C932E932D9138
:103440003C911197F601E20FF31FE80DF91D8781FA
:103450004F5F5F4F833271F7CA01695F680F262F94
:1034600030E0F701E052FE4F80819181821793078F
:1034700010F431832083F801EE0FFF1FEE0FFF1FC2
:10348000E00FF11FEA0DFB1D3B96EE0FFF1FEE0D47
:10349000FF1D608171816C597F4F40EE51E0E40E59
:1034A000F51ED7018D919C9140E25EEFE40EF51E72
:1034B000821B930BDB018D939C93D701AC5EBD4FB8
:1034C00011961C921E924D01AF0110C06E0F7F1F0E
:1034D000EC0DFD1DE20FF31F8081FB018083D40101
:1034E0008D919C91119701968D939C93D401ED91B0
:1034F000FC91DA016D917C916C597F4FDB018D91CC
:103500009C9164567040E817F90700F3EAE1F2E095
:10351000EE0EFF1ED7019C91E6EEFDEFEE0EFF1EB4
:10352000913009F0CCC0F801EE0FFF1FEE0FFF1F26
:10353000E00FF11FEA0DFB1D3B96EE0FFF1FEE0D96
:10354000FF1D208131812A593F4FD6011B968C9156
:10355000D9018C93D6011C968C910190F081E02DBD
:10356000833221F4E959FF4F908303C0E959FF4F9B
:103570001082F801EE0FFF1FEE0FFF1FE00FF11F8B
:10358000EA0DFB1D3B96EE0FFF1FEE0DFF1D019098
:10359000F081E02DE959FF4F6081862E9924D701F3
:1035A000AC5EBD4F11961C921E92F801EE0FFF1FEC
:1035B000EE0DFF1DE75BFF4F0190F081E02D81A52F
:1035C000813071F0813018F0823039F403C082E02C
:1035D00090E01CC040E050E00BC080E090E016C0DE
:1035E00088E090E013C02F5F3F4F11963C932E93DD
:1035F0002D913C911197F601E20FF31FE80DF91D93
:1036000085854F5F5F4F833271F7CA01635F680F33
:10361000262F30E0F701E052FE4F80819181821722
:10362000930710F431832083F801EE0FFF1FEE0F94
:10363000FF1FE00FF11FEA0DFB1D3B96EE0FFF1F72
:10364000EE0DFF1D608171816C597F4F40EE51E09E
:10365000E40EF51ED7018D919C9140E25EEFE40EE1
:10366000F51E821B930BDB018D939C93D701AC5EFF
:10367000BD4F11961C921E924D01AF0110C06E0FEE
:103680007F1FEC0DFD1DE20FF31F8081FB01808386
:10369000D4018D919C91119701968D939C93D401A7
:1036A000ED91FC91DA016D917C916C597F4FDB01BA
:1036B0008D919C9164567040E817F90700F3EDED89
:1036C000F1E0EE0EFF1ED7018C91E3E2FEEFEE0E6D
:1036D000FF1E8250843008F0ABC12BE132E0E20ED5
:1036E000F31ED7018C91E5EEFDEFEE0EFF1E882351
:1036F00009F0CEC0F801EE0FFF1FEE0FFF1FE00F25
:10370000F11FEA0DFB1D3B96EE0FFF1FEE0DFF1D97
:10371000208131812A593F4FD6011C968C91D901C5
:103720008C93D6011D968C910190F081E02D83320F
:1037300029F4E959FF4F81E0808303C0E959FF4F25
:103740001082F801EE0FFF1FEE0FFF1FE00FF11FB9
:10375000EA0DFB1D3B96EE0FFF1FEE0DFF1D0190C6
:10376000F081E02DE959FF4F6081862E9924D70121
:10377000AC5EBD4F11961C921E92F801EE0FFF1F1A
:10378000EE0DFF1DE75BFF4F0190F081E02D81A55D
:10379000813071F0813018F0823039F403C082E05A
:1037A00090E01CC040E050E00BC080E090E016C00C
:1037B00088E090E013C02F5F3F4F11963C932E930B
:1037C0002D913C911197F601E20FF31FE80DF91DC1
:1037D00086854F5F5F4F833271F7CA01625F680F62
:1037E000262F30E0F701E052FE4F80819181821751
:1037F000930710F431832083F801EE0FFF1FEE0FC3
:10380000FF1FE00FF11FEA0DFB1D3B96EE0FFF1FA0
:10381000EE0DFF1D608171816C597F4F40EE51E0CC
:10382000E40EF51ED7018D919C9140E25EEFE40E0F
:10383000F51E821B930BDB018D939C93D701AC5E2D
:10384000BD4F11961C921E925D01AF0110C06E0F0C
:103850007F1FEC0DFD1DE20FF31F8081FB018083B4
:10386000D5018D919C91119701968D939C93D501D3
:10387000ED91FC91DA016D917C916C597F4FDB01E8
:103880008D919C9164567040E817F90700F3D0C001
:10389000823009F0CDC0F801EE0FFF1FEE0FFF1FC1
:1038A000E00FF11FEA0DFB1D3B96EE0FFF1FEE0D23
:1038B000FF1D208131812A593F4FD60152968C91AC
:1038C000D9018C93D60153968C910190F081E02D13
:1038D000833229F4E959FF4F81E0808303C0E9591D
:1038E000FF4F1082F801EE0FFF1FEE0FFF1FE00FDA
:1038F000F11FEA0DFB1D3B96EE0FFF1FEE0DFF1DA6
:103900000190F081E02DE959FF4F6081862E9924C6
:10391000D701AC5EBD4F11961C921E92F801EE0FBE
:10392000FF1FEE0DFF1DE75BFF4F0190F081E02DC3
:1039300081A5813071F0813018F0823039F403C0F4
:1039400082E090E01CC040E050E00BC080E090E0DE
:1039500016C088E090E013C02F5F3F4F11963C9354
:103960002E932D913C911197F601E20FF31FE80D74
:10397000F91D87894F5F5F4F833271F7CA016C5E13
:10398000680F262F30E0F701E052FE4F80819181D1
:103990008217930710F431832083F801EE0FFF1F85
:1039A000EE0FFF1FE00FF11FEA0DFB1D3B96EE0F20
:1039B000FF1FEE0DFF1D608171816C597F4F40EE3E
:1039C00051E0E40EF51ED7018D919C9140E25EEF2F
:1039D000E40EF51E821B930BDB018D939C93D701A4
:1039E000AC5EBD4F11961C921E925D01AF0110C0DE
:1039F0006E0F7F1FEC0DFD1DE20FF31F8081FB0199
:103A00008083D5018D919C91119701968D939C9304
:103A1000D501ED91FC91DA016D917C916C597F4F4C
:103A2000DB018D919C9164567040E817F90700F313
:103A3000F701E85BFF4F80818F5F8083853009F459
:103A40001082000F111F0E0D1F1D075B1F4FD801A5
:103A5000ED91FC9193AD82AD981711F481E081AFA7
:103A600019E4C12ED12CCE0CDF1C662477248701EB
:103A70000C5E1D4FB3E52B2E312C2E0C3F1CF70195
:103A8000E95BFD4FFA83E9839701275B3D4F3C8358
:103A90002B83A701415A5F4F5E834D83C701835239
:103AA0009E4F98878F83D701A55EBD4FBA87A987A0
:103AB000F701E752FE4FFC87EB87D8011D921C925D
:103AC0000E94EC02D601ED91FC91309709F47DC380
:103AD00025A936A947A950AD1216130614061506D6
:103AE0000CF073C3621B730B840B950B69557B4100
:103AF000804090400CF025C381AD813009F0EEC2CA
:103B0000B62CE981FA816082AB81BC811C92ED8187
:103B1000FE8180818F5F8083C7010E94390C982FBE
:103B2000AD81BE818C918530B0F0EB85FC858081C4
:103B3000813029F0813038F0823069F409C0C70142
:103B40000E94240D03C0C7010E94B70C982F03C028
:103B5000C701662D17C0492E552481E090E064EB23
:103B600070E00E940D43AC019201265D3F4F220F91
:103B7000331F2E0D3F1DD9018D939C93009731F477
:103B8000C7016B2D0E94590C8FEF2EC3F10180816C
:103B90008150808345555F4FD601ED91FC9185A8FA
:103BA00096A8A7A8B0ACDA018D929D92AD92BC9276
:103BB00013974F5250408081FA018083D901ED91D3
:103BC000FC91E955FF4FD6018D919C91DC019A96AD
:103BD0008C918083F901A081B181F601808191816E
:103BE000FC0183A518968C93AF81B8858C918130A8
:103BF00009F060C0F901A081B181A955BF4F8C9136
:103C0000A75AB040813009F048C0D8011D921C92DB
:103C1000A90116C0FA01A081B181A80FB91FAF5741
:103C2000BF4FF60120813181280F391FF9018581AD
:103C30008C93D8018D919C91119701968D939C93B3
:103C4000F801808191818430910520F311821082E6
:103C5000A201465D5F4F440F551F4E0D5F1D16C0FC
:103C6000FA01A081B181A80FB91FA358BF4FF60177
:103C700020813181280F391FF90181818C93D8016E
:103C80008D919C91119701968D939C93F801808161
:103C900091818430910520F36EC0882309F06BC0B8
:103CA000AB57BF4FF60180819181FC0181858C93D8
:103CB000D90156C0F80111821082A90116C0FA017B
:103CC000A081B181A80FB91FAF57BF4FF601208166
:103CD0003181280F391FF90185818C93D8018D918D
:103CE0009C91119701968D939C93F801808191810D
:103CF0008430910520F3118210829201265D3F4F9E
:103D0000B901660F771F6E0D7F1D13C0DB01ED91AA
:103D1000FC91E80FF91FE358FF4F480F591FDA01D4
:103D200011968C918083F801808191810196918315
:103D30008083D8018D919C91F6014081518184301E
:103D4000910520F3D901AA0FBB1FAE0DBF1D2D9108
:103D50003C9111972B573F4FFA018185F9018083E0
:103D6000ED91FC91EA57FF4FD6018D919C91DC01BA
:103D70001A968C918083F601808191813AE2A32E7C
:103D8000B12CA40CB51CAA0CBB1CAE0CBF1CD501DD
:103D9000ED91FC91EA55FF4FDC01DA966C91DA97D0
:103DA000D3968D919C91D49770E00E94A34260833A
:103DB000D501ED91FC91E855FF4FD6018D919C9175
:103DC000DC0199968C918083F501A081B181A85581
:103DD000BF4F8C91A85AB0408130D9F0813020F08B
:103DE000823009F08BC05DC0A157BF4FF6018081C2
:103DF0009181FC0183898C93D501ED91FC91E05771
:103E0000FF4FD6018D919C91DC0154968C9180835B
:103E100075C0F80111821082A50116C0FA01A081B7
:103E2000B181A80FB91FA557BF4FF601208131817D
:103E3000280F391FF90183858C93D8018D919C91AE
:103E4000119701968D939C93F80180819181843024
:103E5000910520F311821082A201465D5F4F440F4D
:103E6000551F4E0D5F1D16C0FA01A081B181A80F2C
:103E7000B91FA957BF4FF60120813181280F391F83
:103E8000F90187858C93D8018D919C9111970196AA
:103E90008D939C93F801808191818430910520F36A
:103EA0002DC0D8011D921C92A501F801808191813D
:103EB000FA01A081B181A80FB91FAF56BF4FF6011B
:103EC00020813181280F391FF90185898C93D80110
:103ED0008D919C91119701968D939C93D601ED91B4
:103EE000FC91E80FF91F25892332F9F6D501ED91F0
:103EF000FC91E80FF91FEF56FF4F2083D601ED919B
:103F0000FC9182AD682F70E061507040F301EE0FBC
:103F1000FF1FEE0FFF1FE60DF71DE60FF71F3B9685
:103F2000EE0FFF1FEE0DFF1DF88BEF8788249924FD
:103F3000AA24BB24A201465D5F4F440F551F4E0DBE
:103F40005F1D32C0D8011D921C9216C0FA0120815B
:103F50003181280F391F2A0D3B1DA80FB91F8C91E5
:103F6000D9011C968C930894811C911CF8018081C6
:103F70009181019691838083D8018D919C91EF85E9
:103F8000F889A081B181AC59BF4F2D913C91119717
:103F9000A456B04082179307C8F2A20EB31E615018
:103FA00070403297F88BEF87FFEF6F3F7F0751F636
:103FB0009201265D3F4F220F331F2E0D3F1DF90149
:103FC000A081B181A059BF4F11969C928E92A057AB
:103FD000B040E985FA858081823009F044C0AC5850
:103FE000BF4FF60180819181FC0184A58C93D9019A
:103FF000ED91FC91EB58FF4FD6018D919C91DC0126
:104000009D968C918083D901ED91FC91EA58FF4FE8
:10401000D6018D919C91DC019E968C918083D90173
:10402000ED91FC91E958FF4FD6018D919C91DC01F7
:104030009F968C918083D901ED91FC91E858FF4FB8
:10404000D6018D919C91DC01D0968C918083D90111
:10405000ED91FC91E758FF4FD6018D919C91DC01C9
:10406000D1968C918083F801118210825301AA0CA1
:10407000BB1CAA0CBB1CA60CB71C1CC0EA0DFB1D6C
:104080003B96EE0FFF1FEE0DFF1D808191810E9478
:10409000D643D8018D919C911197F501E80FF91F36
:1040A0003B96EE0FFF1FEE0DFF1D11821082019651
:1040B0008D939C93D801ED91FC91E530F105F0F2E0
:1040C000D601ED91FC9115AA16AA17AA10AECF0140
:1040D0000E94D643F6011182108277C092AD83AD63
:1040E000981709F072C0D8011D921C925301AA0CB6
:1040F000BB1CAA0CBB1CA60CB71C1CC0EA0DFB1DEC
:104100003B96EE0FFF1FEE0DFF1D808191810E94F7
:10411000D643F80180819181F501E80FF91F3B96A4
:10412000EE0FFF1FEE0DFF1D118210820196D801C8
:104130008D939C93D801ED91FC91E530F105F0F25F
:104140002DC0F801118210825301AA0CBB1CAA0CCD
:10415000BB1CA60CB71C1CC0EA0DFB1D3B96EE0F4A
:10416000FF1FEE0DFF1D808191810E94D643D80173
:104170008D919C911197F501E80FF91F3B96EE0F79
:10418000FF1FEE0DFF1D1182108201968D939C93EF
:10419000D801ED91FC91E530F105F0F2D601ED91F9
:1041A000FC9115AA16AA17AA10AECF010E94D643F9
:1041B000F60111821082D1018C9181508C93E9819A
:1041C000FA816082AB81BC811C920894611C711CD5
:1041D000E2E0F0E0CE0EDF1EF5E06F16710409F0AC
:1041E0006CCC80E001C081E060960FB6F894DEBF31
:1041F0000FBECDBFCF91DF911F910F91FF90EF9038
:10420000DF90CF90BF90AF909F908F907F906F90F6
:104210005F904F903F902F900895AF92BF92CF92B2
:10422000DF92EF92FF920F931F93CF93DF93EC01F6
:104230006B015A01890188E790E061E070E00E941B
:104240000D437C01009711F41FEF6BC0CE01B60146
:10425000A50198010E945D0B882329F0C7010E94E7
:10426000D64311E05EC0DE01A052BE4F11961C92F3
:104270001E92FE01EC5EFD4F0C5F1F4F1183008309
:10428000045010409F01A50141505040BD0116C08F
:10429000FD013497E01BF10BEE0DFF1DAC0DBD1DB4
:1042A0008C918083FB018081918101969183808331
:1042B000F90180819181019691838083F901A08128
:1042C000B181A417B50720F3C00ED11EF60163819A
:1042D000613879F0623818F46038D9F405C0603973
:1042E00071F06139B1F40FC0C65EDD4F81E08883A3
:1042F00003C0C65EDD4F1882CA51D2400AC0C55EF7
:10430000DD4F188204C0C55EDD4F82E08883CB514B
:10431000D240CE01B7010E940B0F182FC7010E9497
:10432000D643812FDF91CF911F910F91FF90EF9096
:10433000DF90CF90BF90AF9008952F923F924F9211
:104340005F926F927F928F929F92AF92BF92CF9225
:10435000DF92EF92FF920F931F93DF93CF93CDB72E
:10436000DEB762970FB6F894DEBF0FBECDBF8C01EB
:104370003B010E94EC02D82E04521E4F82E0D8016D
:104380008C930C5D1140F801E85BFD4F8081882320
:1043900021F4EE24FF24332409C08EE7D3018C934B
:1043A000108251E0E52EF12C332433944D2D592FFA
:1043B000CB01DA014C015D01EBE0F0E0FA8BE98B17
:1043C000DD245524C801885B9D4F988B8F8746E07C
:1043D000242E44244394B1C08DEC96E00E946C04DA
:1043E000882311F4CC2495C08DEC96E00E946704DC
:1043F000F301EE0DFF1D80830894E11CF11C0E9467
:10440000EC02AC01CB01DA014C015D010894E1083A
:10441000F108F301EE0DFF1D0894E11CF11C8081F1
:104420008E3761F48CE291E08E199F098E369105EA
:1044300020F4AF85B8894C9201C03394B1E0EB16FB
:10444000F10449F4EE24FF2480818E3761F431E0D9
:10445000E32EF12C08C0ECE2EE16E1E0FE0618F0C7
:10446000CC24C39401C0CC24529C900111242C5F15
:104470003F4FC9018D0D911DE816F90699F4F1E041
:10448000DF1699F0F301EE0DFF1D319780818A58F8
:10449000823080F089899A8903969A8B898BDD24F2
:1044A000D39403C091E0D91629F4A989BA89119649
:1044B000BA8BA98BF301EE0DFF1D3197E081ED372B
:1044C00041F4DD20F9F4E989FA893196FA8BE98B18
:1044D00019C0EA3851F4E216F306A1F489899A89E1
:1044E00006969A8B898B53940DC0EE3759F491E060
:1044F000D91641F4A989BA891197BA8BA98B29EFEA
:10450000D22EDA0EE989FA89EE16FF0611F4CC24D0
:10451000C3940E94EC020E94EC02681979098A098E
:104520009B09615D77408040904028F08DEC96E0DB
:104530000E94620408C0CC2031F4AF85B8898C9108
:10454000882309F449CFF30180818E3709F0339431
:1045500091E0C92ED12CAA24BB2484E1482E82E00C
:10456000582E400E511EC8018C5B9D4F9A83898343
:10457000D801AB5BBD4FBC83AB83F801EA5BFD4F59
:10458000FE83ED83C8018D5B9D4F98878F83D80193
:10459000AE5BBD4FBA87A987F801E452FE4FFC8796
:1045A000EB8788248394C80185529E4F9E878D8710
:1045B0009BC00894C11CD11C80818E3721F031969C
:1045C000CE14DF04B0F3D601AA19BB09BA8BA98BAC
:1045D000F201118210829924A3014A0D5B1D0CC0C7
:1045E000FA01E20FF31F80818D3709F493942F5F56
:1045F0003F4FD2012D933C93F20120813181898973
:104600009A892817390760F3992049F09601281BE9
:10461000390BC801B30149895A890E94CF08960114
:10462000A989BA892A1B3B0BF301E20FF31F83818F
:104630008B38C1F18C3820F48A3809F050C006C09C
:10464000803991F0813909F04AC01BC0E989FA89A3
:10465000EA0DFB1DE919F109FA8BE98BC801B301D9
:10466000AF010E94850B3BC089899A898A0D9B1DE9
:10467000891991099A8B898BC801B30149895A8993
:104680000BC0E989FA89EA0DFB1DE919F109FA8BDA
:10469000E98BC801B301AF010E940D21AD85BE8534
:1046A0008C931DC08581A981BA818C938681AB8151
:1046B000BC818C938781AD81BE818C938185AF81D4
:1046C000B8858C938085E985FA858083882321F4D9
:1046D000AB85BC851C9203C0EB85FC8580823A9437
:1046E00056010894C11CD11C332021F0F301EC0DBC
:1046F000FD1D62CF04521E4FD8018C9162960FB6F9
:10470000F894DEBF0FBECDBFCF91DF911F910F9107
:10471000FF90EF90DF90CF90BF90AF909F908F90E1
:104720007F906F905F904F903F902F9008952F92C1
:104730003F924F925F926F927F928F929F92AF9231
:10474000BF92CF92DF92EF92FF920F931F93DF936E
:10475000CF93CDB7DEB72A970FB6F894DEBF0FBE62
:10476000CDBF6C014B010E94EC02F82E2CED31E024
:10477000C20ED31E82E0D6018C93E4E2FEEFCE0E91
:10478000DF1EF601E85BFD4F8081882321F400E005
:1047900010E0332408C08EE7D4018C93108201E02E
:1047A00010E0332433944F2D592FCB01DA012C0123
:1047B0003D01E7E0F0E0FA87E987FF24BB2496019A
:1047C000285B3D4F38872F83F6E02F2EAA24A39431
:1047D000ACC08DEC96E00E946C04882311F4EE24AA
:1047E00090C08DEC96E00E946704F401E00FF11F89
:1047F00080830F5F1F4F0E94EC02AC01CB01DA01F6
:104800002C013D0101501040F401E00FF11F0F5F3A
:104810001F4F80818E3761F48CE291E0801B910BF9
:104820008E36910520F4AF81B885AC9201C03394E7
:104830000130110541F400E010E080818E3751F421
:1048400001E010E007C0B1E00C321B0718F0EE24C5
:10485000E39401C0EE24B29C900111242C5F3F4FE1
:10486000C9018F0D911D0817190799F4E1E0FE1693
:1048700099F0F401E00FF11F31978081895882305F
:1048800080F089859A8503969A878987FF24F39417
:1048900003C091E0F91629F4A985BA851196BA8763
:1048A000A987F401E00FF11F3197E081ED3741F462
:1048B000FF2001F5E985FA853196FA87E9871AC064
:1048C000EA3859F402171307A9F429853A852A5FB3
:1048D0003F4F3A872987B3940DC0EE3759F431E042
:1048E000F31641F489859A8501979A878987E9EFBC
:1048F000FE2EF80EA985BA850A171B0711F4EE24BF
:10490000E3940E94EC020E94EC0264197509860986
:104910009709615D77408040904028F08DEC96E0EB
:104920000E94620408C0EE2031F4EF81F885808196
:10493000882309F44ECFD4018C918E3709F033943B
:1049400071E0E72EF12CAA24BB2464E1462E62E03C
:10495000562E4C0C5D1CF601E552FE4FFA83E9839E
:1049600096012E5B3D4F3C832B83C60184529E4FA4
:104970009E838D836624639488C00894E11CF11C97
:1049800080818E3721F03196E016F106B0F3D70121
:10499000AA19BB09BA87A987F2011182108277246C
:1049A000A4014A0D5B1D0CC0FA01E20FF31F8081C8
:1049B0008D3709F473942F5F3F4FD2012D933C93B1
:1049C000F2012081318189859A852817390760F3A2
:1049D000772049F09701281B390BC601B40149859E
:1049E0005A850E94CF089701A985BA852A1B3B0BDF
:1049F000F401E20FF31F8381813821F1823818F42A
:104A00008038F1F512C0893871F18A38C9F5E98525
:104A1000FA85EA0DFB1DE719F109FA87E987C60156
:104A2000B401AF010E94850B2BC089859A858A0D40
:104A30009B1D871991099A878987C601B401498509
:104A40005A850BC0E985FA85EA0DFB1DE719F109C6
:104A5000FA87E987C601B401AF010E940D21A9813F
:104A6000BA818C930DC08581EB81FC818083882382
:104A700021F4AD81BE811C9203C0ED81FE81608274
:104A80003A9457010894E11CF11C332021F0F40101
:104A9000EE0DFF1D75CF2CED31E0C20ED31ED601F9
:104AA0008C912A960FB6F894DEBF0FBECDBFCF9182
:104AB000DF911F910F91FF90EF90DF90CF90BF900B
:104AC000AF909F908F907F906F905F904F903F90AE
:104AD0002F9008952F923F924F925F926F927F9204
:104AE0008F929F92AF92BF92CF92DF92EF92FF92FE
:104AF0000F931F93DF93CF93CDB7DEB72C970FB6ED
:104B0000F894DEBF0FBECDBF6C0178876F838CE257
:104B100091E061E070E00E940D435C01009739F480
:104B20008DEC96E00E946204FF24FA94C7C10E94B3
:104B3000EC020E94EC02F601E85BFD4F80818823C5
:104B400021F4442455241A8209C010828EE7F5010D
:104B50008083B1E04B2E512CF1E0FA83EF81F88590
:104B600080818F3F29F4C601B5010E94972306C0BA
:104B70008E3F79F4C601B5010E949D218601045241
:104B80001E4FF8018083C5010E94D643F801F080D2
:104B900095C18E3E41F4A5E0EA2EF12C012D112D98
:104BA000FDE63F2E07C0E2E3EE2EF12C012D112D84
:104BB0007EE1372EEF81F8858581853489F4868101
:104BC000843409F045C02DED31E0C20ED31EF6014C
:104BD000808123E23EEFC20ED31E8130C9F58EC123
:104BE000843461F4EF81F88586818E3489F568EE2E
:104BF000E62E63E0F62E012D112D2AC08E3441F5EC
:104C0000EF81F8858681843419F52DED31E0C20EEF
:104C1000D31EF601808123E23EEFC20ED31E833005
:104C200039F450E4E52E5CE9F52E012D112D10C06C
:104C30008450823038F440EBE42E46E3F42E012D0C
:104C4000112D06C030E2E32E3EE4F32E012D112D8E
:104C50000E94EC026B837C838D839E830E94EC0216
:104C6000AC01CB01DA013C014D01A601485B5D4F6F
:104C70005C874B87232C33242CC08DEC96E00E945C
:104C80006704F501E40DF51D80830894411C511C57
:104C9000F501E40DF51D319780818E3779F48CE2B2
:104CA00091E0841995098215930528F421E0EB859C
:104CB000FC85208303C03A813F5F3A830E94EC0267
:104CC000AC01CB01DA013C014D010E94EC020E94D3
:104CD000EC020E94EC0266197709880999096E15A1
:104CE0007F058007910708F003C10E94EC022B8129
:104CF0003C814D815E81621B730B840B950B60546C
:104D00007C498040904008F0F3C04CE2441641E0FA
:104D1000540608F0EDC0EB85FC858081882309F0FE
:104D2000E7C08DEC96E00E946C04882371F2A5CF59
:104D3000FA81FF5FFA8321E0822E912C00E010E0DF
:104D400092E0F92E198284E1282E82E0382E2C0C74
:104D50003D1C960126523E4F3A872987BBED6B2EAC
:104D6000B1E07B2E6C0C7D1C9CC00894811C911CB6
:104D700080818E3721F0319684149504B0F3A4011C
:104D8000401B510B5C874B87F10111821082EE248E
:104D9000A501400F511F0CC0FA01E20FF31F8081E3
:104DA0008D3709F4E3942F5F3F4FF1013183208366
:104DB000F101208131818B859C852817390760F3AB
:104DC000EE2049F09401281B390BC601B5014B8533
:104DD0005C850E94CF08D401EB85FC85AE1BBF0B20
:104DE000F501EA0FFB1F8381883881F0893830F4A0
:104DF000803879F1813809F048C036C08039A1F196
:104E0000813991F18A3809F040C013C02B853C8567
:104E1000200F311F2E1931093C872B87C601B501A0
:104E20004F8158858D010E94A30BF82EE985FA85E4
:104E30002BC02B853C85200F311F2E1931093C8753
:104E40002B87C601B501A9019D010E94850BF82E93
:104E50001CC04B855C85400F511F4E1951095C8762
:104E60004B87C601B5010BC02B853C85200F311F38
:104E70002E1931093C872B87C601B501A9019D0177
:104E80000E940D21F82EF301F082FF2019F4F98120
:104E9000FF5FF9832A8121502A8384010894811CB1
:104EA000911C3A81332321F0F501E80DF91D60CF03
:104EB000C5010E94D64349814111FF248F2D2C96B4
:104EC0000FB6F894DEBF0FBECDBFCF91DF911F911B
:104ED0000F91FF90EF90DF90CF90BF90AF909F9099
:104EE0008F907F906F905F904F903F902F9008959C
:104EF000F50180818E3709F01BCF1DCFA8EBEA2E7C
:104F0000ABE0FA2E012D112DA3CECF92DF92EF92BE
:104F1000FF920F931F93CF93DF93EC01FC01EC5EA4
:104F2000FD4F1182108290E0DF0106C09F5F2F5F6E
:104F30003F4F11963C932E932D913C911197FB017D
:104F4000E20FF31F8081882389F7092F069512E26B
:104F5000C12E12E0D12ECC0EDD1E760110E00DC068
:104F6000F70141917F0150E060E070E08DEC96E048
:104F700020E030E00E9444041F5F101788F3CE0148
:104F8000B6010E946A25DF91CF911F910F91FF908A
:104F9000EF90DF90CF900895AF92BF92CF92DF92C3
:104FA000EF92FF920F931F93CF93DF938C01B42E58
:104FB000A22EDC01AC5EBD4F11961C921E92ED013B
:104FC00009C0F801E80FF91FEE5DFD4F1082019650
:104FD00099838883888199818E31910590F31D9200
:104FE0001C9290E0D801AC5EBD4F06C09F5F2F5F62
:104FF0003F4F11963C932E932D913C911197FB01BD
:10500000E20FF31F8081882389F7D92ED6947B0184
:10501000C02EC801EC0110C08AE199E0F70160815F
:1050200041810E948637CE5DDD4F888322E030E0EB
:10503000E20EF31EC152D240FE01EC19ED1560F3F1
:10504000F801ED0DF11DE15EFD4FB192A082DF91FF
:10505000CF911F910F91FF90EF90DF90CF90BF9075
:10506000AF9008950F931F93CF93DF93EC01162F0A
:10507000042FC352DE4F8881CD5DD140FE01E65240
:10508000FE4F8130B1F482E08083CE0160E373E0B3
:10509000412F202F0E94CC27CE0160E373E00E94B5
:1050A0009F04CE0160E373E00E948527882321F0EE
:1050B00005C08FEF808302C019870A87DF91CF91E7
:1050C0001F910F910895EF92FF920F931F93CF932B
:1050D000DF93AC01DC01AC5EBD4F11961C921E92B9
:1050E000ED0109C0FA01E80FF91FEE5DFD4F1082D6
:1050F000019699838883888199818E31910590F3F7
:105100001D921C9290E0DA01AC5EBD4F06C09F5F1D
:105110002F5F3F4F11963C932E932D913C91119709
:10512000FB01E20FF31F8081882389F7E92EE694C3
:105130008B01F42ECA01EC010EC08AE199E0F8015E
:10514000608141810E948637CE5DDD4F88830E5F8E
:105150001F4FC152D2409E012F192E1570F3DF91BF
:10516000CF911F910F91FF90EF900895CF93DF9310
:10517000EC01C352DE4F8881CD5DD1408150FE01EC
:10518000E652FE4F823080F482E08083CE0165E5F6
:1051900074E00E946328CE0165E574E00E948527D3
:1051A000982F882329F010C08FEF80839FEF0CC0C9
:1051B000CE51DE4F8881C25ED1408987CD51DE4F0E
:1051C0008881C35ED1408A87892FDF91CF9108956E
:1051D000CF93DF93EC01C652DE4F82E08883CA5D35
:1051E000D140CE0166E674E00E946328CE0166E6F7
:1051F00074E00E948527982F8823D9F4FE01EC5E85
:10520000FD4F11821082DF010EC0FE01E20FF31F7D
:10521000EE51FE4F8081E25EF14085832F5F3F4F6C
:1052200011963C932E932D913C911197243031058A
:1052300060F3892FDF91CF910895CF93DF93EC0135
:10524000C652DE4F82E08883CA5DD140CE0167E757
:1052500074E00E946328CE0167E774E00E9485270E
:10526000982F8823D9F4FE01EC5EFD4F1182108245
:10527000DF010EC0FE01E20FF31FEE51FE4F8081F1
:10528000E25EF14081832F5F3F4F11963C932E9356
:105290002D913C9111972430310560F3892FDF91D6
:1052A000CF910895CF93DF93EC010E941D298823AD
:1052B00019F4CE010E94E828DF91CF910895BF92A2
:1052C000CF92DF92EF92FF920F931F93CF93DF93D2
:1052D0008C01B42EDC01AC5EBD4F11961C921E9267
:1052E000ED0109C0F801E80FF91FEE5DFD4F1082D6
:1052F000019699838883888199818E31910590F3F5
:105300001D921C9290E0D801AC5EBD4F06C09F5F1D
:105310002F5F3F4F11963C932E932D913C91119707
:10532000FB01E20FF31F8081882389F7D92ED694E1
:105330007B01C02EC801EC0110C08AE199E0F701A1
:10534000608141810E948637CE5DDD4F888322E0F7
:1053500030E0E20EF31EC152D240FE01EC19ED1511
:1053600060F30D0D111D005E1D4FF801B082DF913D
:10537000CF911F910F91FF90EF90DF90CF90BF9052
:1053800008951F93CF93DF93EC01162FC352DE4F86
:105390008881CD5DD140843011F482E01BC0C652BB
:1053A000DE4F82E08883CA5DD140CE016EEA74E0B0
:1053B000412F0E945F29CE016EEA74E00E949F0493
:1053C000CE016EEA74E00E948527882319F4C6593D
:1053D000DE4F1883DF91CF911F9108951F93CF93D4
:1053E000DF93EC01162FC652DE4F82E08883CA5D40
:1053F000D140CE0160E275E0412F0E945F29CE01CD
:1054000060E275E00E949F04CE0160E275E00E94B8
:105410008527882309F41D8BDF91CF911F91089573
:105420004F925F926F927F928F929F92AF92BF92B4
:10543000CF92DF92EF92FF920F931F93DF93CF9360
:1054400000D0CDB7DEB77C018B014A01D22E88E0B7
:1054500090E061E070E00E940D435C01009711F460
:105460008FEFF7C081E0D81609F077C08AE199E0A4
:10547000B4010E944137059744F5C7010E945229A3
:1054800005571F4FD70115968C911597F8018193F9
:1054900016968C91DF018D93F70187818D938D0195
:1054A00080858C93075010408181F8018193D7014A
:1054B00012968C911297819313968C91DF018D93A4
:1054C0008D01F70184818C9340C074014501650111
:1054D0002E010894411C511C88E0682E712C6A0C26
:1054E0007B1CD7018C91898311968C918A838AE1E8
:1054F00099E0B2010E944C37F60181936F0182E07E
:1055000090E0E80EF91EE615F70559F7F801E557A2
:10551000FF4F95012C5F3F4FD4018D914D01819339
:10552000A217B307C9F709571F4FF5018481D801A6
:105530008D938581FD018193D50116968C911697E7
:1055400081938F0117968C9180830A5810400855DB
:105550001F4F81E0D8018C9378C0DD2009F058C03E
:105560008AE199E0B4010E944137029764F0EE2489
:10557000FF246E010894C11CD11CB2E06B2E712C6B
:105580006C0E7D1E31C0C7010E94B62801571F4F07
:10559000F7018185D8018D938D0182858C9331C06F
:1055A0008F2D90E0880F991F2E2D30E0F901E81B18
:1055B000F90BA6014E0F5F1F280D391DD9018C91E3
:1055C000DA018C93E60DF71DD90111968C91808339
:1055D0008AE199E0B6010E944C37F501EF0DF11D0B
:1055E0008083B2E0EB0EF394E1E0EF15C8F60157CB
:1055F0001F4FD5018C91F80181938F0111968C91E9
:1056000080830059104008551F4FD8011C921DC0BF
:10561000B2E0DB16D1F4D40106C0E00FF11FEF5663
:10562000FF4F908311968A2F88199C91E82FF0E004
:10563000992399F7E00FF11FEF56FF4F83E2808324
:1056400008551F4F82E0F8018083C5010E94D643B0
:1056500081E00F900F90CF91DF911F910F91FF90FC
:10566000EF90DF90CF90BF90AF909F908F907F9002
:105670006F905F904F9008952F923F924F925F925C
:105680006F927F928F929F92AF92BF92CF92DF9252
:10569000EF92FF920F931F93DF93CF9300D000D030
:1056A000CDB7DEB73C015B01D42EC52E3C832B83E6
:1056B000F02E88E090E061E070E00E940D438C01E4
:1056C000009711F48FEFB6C0EE2009F099C081E089
:1056D000F81609F044C08D2D9C2D9C0179014801DC
:1056E00068011E010894211C311C98E0492E512CA0
:1056F000400E511ED7018C91898311968C918A831B
:105700008AE199E0B1010E944C37F60181936F0163
:1057100082E090E0E80EF91EE415F50559F7F50171
:1057200098012C5F3F4FD4018D914D0184833196B8
:10573000A217B307C1F7F8018481D5018C93858145
:1057400011968C931197868112968C93129787816C
:1057500013968C93139781E019968C932FC0FF209A
:1057600069F58D2D9C2D9C0179014801CC24DD2407
:105770002E010894411C511CF7018081898381818D
:105780008A838AE199E0B2010E944C37D4018D935B
:105790004D01EEEFFFEFCE0EDF1E82E090E0E80E4F
:1057A000F91E9CEFC9169FEFD90631F7D8018C91ED
:1057B000F501828711968C918387118680E492E0AF
:1057C000680E791ED3011D921C92E0ECFDEF6E0E67
:1057D0007F1E16C0ED91FC911197EA0DFB1D848789
:1057E0008D919C911197019611969C938E9384367E
:1057F000910570F48B819C8101969C838B8303C0FF
:10580000D301A05CBD4FEB81FC818081882311F71F
:1058100080E790E0A80EB91EA0E4B2E06A0E7B1EFD
:10582000F30180819181D5018D939C93C8010E94E1
:10583000D64381E00F900F900F900F90CF91DF91A2
:105840001F910F91FF90EF90DF90CF90BF90AF909E
:105850009F908F907F906F905F904F903F902F9090
:1058600008952F923F924F925F926F927F928F9204
:105870009F92AF92BF92CF92DF92EF92FF920F93DF
:105880001F93DF93CF93CDB7DEB728970FB6F89469
:10589000DEBF0FBECDBF5C017B0188E790E061E019
:1058A00070E00E940D436C01009711F40C94EE34EB
:1058B000198284E190E061E070E00E940D438F83E3
:1058C00098872F813885232B11F40C94EE34D50161
:1058D000AC5EBD4F11961C921E929D010AC0F5014F
:1058E000E80FF91FEE5DFD4F10820196F9019183DB
:1058F0008083F901808191818E31910580F32CEDB7
:1059000031E0A20EB31E82E0F501808324E23EEF77
:10591000A20EB31E1D921C92D501AC5EBD4F0AC0F3
:10592000EC0DFD1D10828D919C91119701961196A1
:105930009C938E93ED91FC911197E837F10580F3DC
:105940008EE7F6018193FE83ED83F60111822CE749
:1059500030E0E20EF31EF701808124E83FEFE20E13
:10596000F31EF60184831D921C92850106521E4F80
:10597000B2E05B2ED8015C92EDEDF1E0AE0EBF1E01
:10598000D5018C91E3E2FEEFAE0EBF1E813009F02F
:10599000E2C3D70118968C91813031F0442410E095
:1059A0001C82A5E05A2EDBC0F60113820E94EC0295
:1059B0003B014C01D8015C92F8018081815082301A
:1059C00010F00C9408350E94EC02661977098809DA
:1059D0009909685873418040904010F00C94083544
:1059E000C5010E94B628E8CFD8018C918150823041
:1059F00010F00C941C350E94EC0266197709880996
:105A00009909685873418040904010F00C941C35FF
:105A1000C5016FEF4FEF0E943228E1E0EC83E4CF45
:105A2000D8011D921C920BC0F601E50DF11D1082EC
:105A30005394F80180819181019691838083D801EC
:105A40008D919C911197049778F31D921C920BC035
:105A5000F601E50DF11D10825394F80180819181CA
:105A6000019691838083D8018D919C911197029723
:105A700078F31D921C920BC0F601E50DF11D2083F9
:105A80005394F80180819181019691838083D8019C
:105A90008D919C91029780F3BCE0B51508F0C0CFC2
:105AA000F60115862CE730E0E20EF31ED7018C914B
:105AB0008687EDE2F0E0EE0EFF1ED7018C91E7E560
:105AC000FFEFEE0EFF1ED6011F968C93F801118298
:105AD0001082C501B701A60120E10E94E304B601CE
