:100000000C94D3000C94AB5C0C94DC5C0C940D5DF4
:100010000C943E5D0C946F5D0C94A05D0C94D15DCE
:100020000C94025E0C94FD000C94FD000C94FD00F9
:100030000C94BC020C94FD000C94FD000C94A001E7
:100040000C94FD000C94FD000C94FD000C94FD003C
:100050000C94FD000C94FD000C94FD000C947B01AD
:100060000C94FD000C94025B0C94FD000C94FD00BC
:100070000C94FD000C94FD000C94FD000C94FD000C
:100080000C94FD000C94FD000C94FD000C94FD00FC
:100090000C94435B0C94FD000C94FD000C94736372
:1000A0000C94FD000C94FD000C94FD000C94FD00DC
:1000B0000C94FD000C94FD000C94FD000C94FD00CC
:1000C0000C94FD000C94FD000C94FD007C3C3E5E05
:1000D0002B3D3F2F5B5D3B2C2A225C000021242717
:1000E0002A2D3033002225282B2E313400202326C0
:1000F000292C2F3205050505030303030101010423
:1001000004030606060606060606010405010501A7
:1001100003020202020202010202050504040304B2
:10012000040103040707070102081010204080049F
:1001300008102040020204081020408001028020A4
:100140004004200101020408102001408040800189
:1001500002080408800410040201000008090000DD
:10016000000000000000000000000000000000008F
:10017000000000000000000000000000000000007F
:100180000000000000000000000000000000F3027A
:100190008503C80B2F4FC5527D5A9C5E70637163F7
:1001A00072631065156511241FBECFEFD1E2DEBF6B
:1001B000CDBF17E0A0E0B2E0E0ECFEEC00E00BBF4A
:1001C00002C007900D92AE3EB107D9F715E1AEEE31
:1001D000B7E001C01D92A83DB107E1F711E0C6EA02
:1001E000D1E004C02297FE010E949B65CE38D10762
:1001F000C9F70E9474010C945E670C9400000F9381
:100200001F930FEE17E0C80161E041E021E00E947A
:10021000FC02C8010E940F4B8DED9AE00E94CD03B5
:100220001F910F910895CF93DF93C0E0D0E00FC0EE
:10023000EC0FFD1F4485552747FD5095652F752F01
:100240008DED9AE020E030E00E94AF032196E0912E
:100250004E08F0E0EE0FFF1FEF5BF74F0190F081CB
:10026000E02DE059FF4F80819181E057F040C817A1
:10027000D907F0F2DF91CF9108958FEE97E00E94B9
:10028000984C8091CA09882329F584EC9DE069E1A6
:1002900070E00E944F4F1AC00E941301E0914E0877
:1002A000F0E0EE0FFF1FEF5BF74F808191810E941E
:1002B000686680914E08E82FF0E0EE0FFF1FEF5BBD
:1002C000F74F11821082815080934E0880914E0822
:1002D000882311F708958DED9AE00E94D7038823B3
:1002E00011F00E943D0108950E94FF010E94FF004D
:1002F0000E946B01FDCF1F920F920FB60F92112437
:100300008F939F93AF93BF9380914C1390914D1314
:10031000A0914E13B0914F130196A11DB11D809372
:100320004C1390934D13A0934E13B0934F13BF9162
:10033000AF919F918F910F900FBE0F901F901895C6
:100340001F920F920FB60F9211248F939F93AF932A
:10035000BF938091501390915113A0915213B0917B
:1003600053130196A11DB11D809350139093511307
:10037000A0935213B0935313BF91AF919F918F915C
:100380000F900FBE0F901F90189560914C137091B5
:100390004D1380914E1390914F1327E0660F771FF6
:1003A000881F991F2A95D1F72EE330E040E050E0F6
:1003B0000E945C65CA01B9010895AF92BF92CF92C5
:1003C000DF92EF92FF920F931F935B016C010E94EB
:1003D000C5017B018C010E94C5016E197F09800B4C
:1003E000910B6A157B058C059D05A8F31F910F9154
:1003F000FF90EF90DF90CF90BF90AF9008957894EA
:1004000084B7877F84BF10924C1310924D131092C3
:100410004E1310924F1384B5826084BD84B5816001
:1004200084BD85B5826085BD85B5816085BDEEE6FC
:10043000F0E0808181608083E1E8F0E0808182608B
:100440008083808181608083E0E8F0E0808181604A
:100450008083E1EBF0E0808184608083E1E9F0E07B
:10046000808184608083E0EBF0E080818160808324
:10047000E0E9F0E0808181608083E4E6F0E0808163
:100480008E7F8083ECE7F0E080818F7780838081AE
:1004900080648083EAE7F0E08081846080838081EB
:1004A000826080838081806880831092C100109276
:1004B000C90008959091EE07982B9093EE0780FF66
:1004C00032C0809164008E7F8093640080917C00B4
:1004D0008F7780937C0080917C00806480937C0087
:1004E00080917A00846080937A0080917A008260A3
:1004F00080937A0080917A00806880937A0080915E
:1005000064008F7780936400809164008B7F809378
:100510006400809164008D7F809364008091650009
:100520008E7F809365000895282F20959091EE0787
:1005300092239093EE0780FF1EC080917A008F7700
:1005400080937A0080916400816080936400809140
:10055000640080688093640080916400846080936C
:1005600064008091640082608093640080916500E3
:1005700081608093650008951F920F920FB60F92CD
:100580000BB60F9211242F933F934F935F936F936A
:100590007F938F939F93AF93BF93EF93FF93F894C1
:1005A00081E08093E807E0E6F0E080818068808366
:1005B00080818F7B808383E060E00E94515E78942D
:1005C000FF91EF91BF91AF919F918F917F916F912B
:1005D0005F914F913F912F910F900BBE0F900FBEE7
:1005E0000F901F9018951092CC0A1092CD0A10927D
:1005F000D00A1092D20A08950F931F938C010E5BBC
:100600001D4FF801619341938F0120830C5F1140CE
:10061000F8011082055F1F4FF8011082045F1F4F21
:10062000F80110820E511F4FF80110820D51104039
:1006300083E1F80181938F0188E880830E5F1F4F6B
:10064000F80111928F011082095E1F4F89E1F801B4
:1006500080830D5F1F4F8FE1F80181938F018EEF33
:1006600080830A5D1F4FF801119284E081938F010E
:1006700088E28083095F1F4FF80110820D581E4FDA
:10068000F8011192119211928CE2819311921192C0
:10069000119211928F011082075A1040F8011182B5
:1006A00010820C5C1F4FF80111921192119211925D
:1006B0001192119211921192119211928F01108246
:1006C000118212821382075D1F4FF80111928F0170
:1006D0001082055D104092E0F80190830A521F4F8E
:1006E00081E0F8018083055D1040F80191939193BA
:1006F0008F0190830C5D1140C8010E94090DC80153
:100700000E94900B1F910F9108951092DD0A089599
:10071000EF92FF920F931F93CF93DF93EC017A0137
:100720008B0177FF0CC08DE268810E94845B10957D
:100730000095F094E094E11CF11C011D111DC8010D
:10074000B7012AE030E040E050E008810E94875B7A
:10075000DF91CF911F910F91FF90EF9008950F932C
:100760001F93FC01DA018B012115310529F4842F37
:1007700060810E94845B0EC02A30310519F40E940A
:10078000880308C030E040E050E0BD01C8010081AE
:100790000E94875B1F910F910895FC0180810E9448
:1007A000EE5A0895FC0180810E94B35A0895FC011D
:1007B00080810E948F5A0895FC0180810E94115C03
:1007C0000895FC0160E076E980E090E040810E94BD
:1007D0002F5C86E161E00E94335E0895CF93DF9342
:1007E000EC016983623099F0633049F06130A1F423
:1007F0000E94E10386E161E00E94515E0DC086E146
:1008000060E00E94515E88810E94115C05C08FEDFE
:100810009AE061E00E94B839DF91CF9108950F937B
:100820001F93CF93DF93DC018B01EC01C658DD4FA2
:100830001982188240E0BE0106C04F5F2F5F3F4F14
:10084000FB0131832083FB0120813181F801E20F1C
:10085000F31F8081882389F7469583E090E0998390
:10086000888390E0ED01C658DD4F50E00BC0FD01DC
:10087000E20FF31FE857FD4F8081980F2F5F3F4F26
:1008800039832883288139812417350780F3892FFC
:100890008095A40FB51FA957BD4F8C93DF91CF91C1
:1008A0001F910F910895AF92BF92CF92DF92EF9276
:1008B000FF920F931F93CF93DF937C018B0106551B
:1008C0001F4FD8018C910A5A1040F801E855FF4F8C
:1008D000813009F024C1C22EDD24DA01AC0DBD1D2A
:1008E00083E28C938081813009F446C0813020F00E
:1008F000823009F038C2AAC011961C921197015794
:100900001F4FF80181918F0112968C93129780816D
:100910000059104013968C931397F701E658FD4F3A
:1009200011821082EF01FCE7CF2EF2E0DF2ECE0C19
:10093000DF1CB70162587D4FAD010FC0FA01E20F15
:10094000F31FA00FB11FA20FB31F1C968C918483BD
:100950008881998101969983888328813981F6015C
:10096000A081B181FB018081918101968A1B9B0B43
:100970002817390718F3F7C111968C93B7016658F9
:100980007D4FDB011D921C92EB0110C0FA01EA0FB2
:10099000FB1FEC0DFD1DA00FB11FA557BF4F8C9184
:1009A000828388819981019699838883A881B981FE
:1009B000A430B10558F3FB0111821082E701C6583B
:1009C000DD4F10C0FA01EA0FFB1FEC0DFD1DA00F5B
:1009D000B11FA957BF4F8C91868388819981019659
:1009E00099838883A881B981A430B10558F319820D
:1009F0001882E701C658DD4FECE7AE2EE2E0BE2ECE
:100A0000AE0CBF1C970122583D4F11C0FA01E60FF2
:100A1000F71FEC0DFD1DA00FB11FA60FB71F1C96F1
:100A20008C918287888199810196998388836881D6
:100A30007981F501A081B181F901808191810196CF
:100A40008A1B9B0B6817790708F38DC111968C934D
:100A5000C0E0D0E0D701A658BD4F06C0E9016F5FE6
:100A60007F4F11967C936E936D917C911197F80155
:100A7000E60FF71FEF56FF4F80819E012F5F3F4F1C
:100A8000833261F71D921C92E701C658DD4F10C0FA
:100A9000FA01EA0FFB1FEC0DFD1DA00FB11FAF56B1
:100AA000BF4F8C9182838881998101969983888335
:100AB000A881B981A217B30758F319821882E701F8
:100AC000C658DD4F7CE7A72E72E0B72EAE0CBF1CD8
:100AD0008EE792E0E80EF91E13C0FA01E60FF71F49
:100AE000E20FF31FEC0DFD1DA00FB11FA60FB71FE6
:100AF0001C968C9182838881998101969983888341
:100B000068817981F501A081B181F70180819181AE
:100B100001968A1B9B0B68177907F8F224C1808124
:100B2000813009F446C0813020F0823009F01BC1C9
:100B3000AEC030E0FA01E20FF31F108201571F4FE1
:100B4000D8018D918D0181838C9100591040828351
:100B5000F701E658FD4F11821082EF016CE7C62EB7
:100B600062E0D62ECE0CDF1CEEE7F2E0EE0EFF1EAA
:100B700011C0FA01E60FF71FE20FF31FA00FB11F1C
:100B8000A60FB71F1C968C9183838881998101964B
:100B90009983888368817981F601A081B181F70109
:100BA0008081918101968A1B9B0B6817790708F356
:100BB000DAC030E0FA01E20FF31F8083B701665814
:100BC0007D4FDB011D921C92EB0110C0FA01EA0F70
:100BD000FB1FE20FF31FA00FB11FA557BF4F8C9152
:100BE000818388819981019699838883A881B981BD
:100BF000A430B10558F3FB0111821082E701C658F9
:100C0000DD4F10C0FA01EA0FFB1FE20FF31FA00F28
:100C1000B11FA957BF4F8C91858388819981019617
:100C200099838883A881B981A430B10558F31982CA
:100C30001882E701C658DD4F9CE7C92E92E0D92EF5
:100C4000CE0CDF1C8EE792E0E80EF91E11C0FA010F
:100C5000E60FF71FE20FF31FA00FB11FA60FB71F7C
:100C60001C968C91818788819981019699838883CC
:100C700068817981F601A081B181F701808191813C
:100C800001968A1B9B0B6817790708F36CC0C22E6C
:100C9000DD24FA01EC0DFD1D8083C0E0D0E0D7011A
:100CA000A658BD4F06C0E9016F5F7F4F11967C9338
:100CB0006E936D917C911197F801E60FF71FEF5637
:100CC000FF4F80819E012F5F3F4F833261F71D925E
:100CD0001C92E701C658DD4F10C0FA01EA0FFB1F56
:100CE000EC0DFD1DA00FB11FAF56BF4F8C9181833E
:100CF00088819981019699838883A881B981A217F7
:100D0000B30758F319821882E701C658DD4F8CE704
:100D1000A82E82E0B82EAE0CBF1C8EE792E0E80E43
:100D2000F91E13C0FA01E60FF71FE20FF31FEC0DD7
:100D3000FD1DA00FB11FA60FB71F1C968C918183BC
:100D40008881998101969983888368817981F501E9
:100D5000A081B181F7018081918101968A1B9B0B53
:100D600068177907F8F2DF91CF911F910F91FF90EB
:100D7000EF90DF90CF90BF90AF9008953F924F9249
:100D80005F926F927F928F929F92AF92BF92CF921B
:100D9000DF92EF92FF920F931F93DF93CF9300D0D8
:100DA00000D0CDB7DEB76B014A017901AA24A39424
:100DB00010E022E730E0C20ED31E21E3422E9DE771
:100DC000792E83E3382EBEE56B2EADE55A2E30C169
:100DD000D401A60FB71F8C91813111F090E04AC069
:100DE0004C92F70180818F5F80838C917C926F5F42
:100DF0007F4F9401260F371F3C832B836150704037
:100E0000FB013296FA83E98320C0EB81FC81B1803B
:100E1000418349815A814F5F5F4F3296FC83EB8358
:100E200029813A812E5F3F4F3A832983F7018081E0
:100E30009801280F311DC901F60120813181820FEF
:100E4000931F48175907A8F48B2DEB81FC81408133
:100E50008083F70180819801280F311DC901F601B7
:100E600020813181820F931F29813A812817390708
:100E700060F291E08C91833109F04DC0992309F023
:100E80004AC03C92F70180818F5F80838C917C9275
:100E90006F5F7F4F9401260F371F3C832B83615078
:100EA0007040FB013296FA83E98320C0EB81FC811C
:100EB000B180418349815A814F5F5F4F3296FC83F5
:100EC000EB8329813A812E5F3F4F3A832983F701D3
:100ED00080819801280F311DC901F60120813181DF
:100EE000820F931F48175907A8F48B2DEB81FC81C3
:100EF00040818083F70180819801280F311DC9014D
:100F0000F60120813181820F931F29813A812817B0
:100F1000390760F291E08C918E3709F04DC099232A
:100F200009F04AC06C92F70180818F5F80838C91B9
:100F30007C926F5F7F4F9401260F371F3C832B837A
:100F400061507040FB013296FA83E98320C0EB8147
:100F5000FC81B180418349815A814F5F5F4F329656
:100F6000FC83EB8329813A812E5F3F4F3A832983AB
:100F7000F70180819801280F311DC901F6012081F8
:100F80003181820F931F48175907A8F48B2DEB81ED
:100F9000FC8140818083F70180819801280F311DF9
:100FA000C901F60120813181820F931F29813A8185
:100FB0002817390760F291E02C912D37C1F599235C
:100FC000B1F55C92F70180818F5F80838C912C93C7
:100FD0006F5F7F4FF401E60FF71F6F5F7F4F17C002
:100FE000B1804183AB014F5F5F4F32966E5F7F4FA1
:100FF000D7018C919801280F311DC901D6012D917F
:101000003C91820F931F4817590788F48B2D40811C
:101010008083D7018C919801280F311DC901D60119
:101020002D913C91820F931F68177907C8F2A39402
:101030006A2D70E0F70180819801280F311DC901E8
:10104000D6012D913C91820F931F6817790708F400
:10105000BFCE0F900F900F900F90CF91DF911F9107
:101060000F91FF90EF90DF90CF90BF90AF909F9047
:101070008F907F906F905F904F903F900895DF9298
:10108000EF92FF920F931F93CF93DF93890180E03C
:1010900090E0F3E1DF2EEEE7EE2E31E1F32E37C0E4
:1010A0002F5F3F4F9C919D3731F011963196241759
:1010B0003507B0F32DC02417350750F5E901219607
:1010C000E60FF71F8181833361F0843318F4813395
:1010D00069F405C08D3549F08E3541F404C0FC92A9
:1010E00005C0DC9203C0EC9201C09C93415050407B
:1010F000F901E00FF11FE60FF71F02C08181808325
:101100002F5F3F4F3196CE0124173507B8F39C016E
:101110002417350738F4F901E00FF11FDB01AE0F9A
:10112000BF1FC0CFDF91CF911F910F91FF90EF9024
:10113000DF900895EF92FF920F931F93CF93DF9369
:10114000EC01CA5BDD4FE8808DEEE80E24978881C4
:10115000C254D240813009F0C9C0CD5DDE4FF88065
:10116000C352D140FA948E0106581D4FD8011D92EA
:101170001C92B8012F2D30E087E290E0289FA0015B
:10118000299F500D389F500D11244C0F5D1F11C029
:10119000FA01EA0FFB1FE05AFF4FAC0FBD1FA85B1F
:1011A000BD4F8C918083FB01808191810196918359
:1011B0008083FB01A081B181A230B10548F3D80141
:1011C0001D921C92AE0146585D4F2F2D30E087E2F4
:1011D00090E0289FB001299F700D389F700D112459
:1011E0006C0F7D1F11C0FB01EA0FFB1FEE59FF4F73
:1011F000AC0FBD1FA65BBD4F8C918083FA0180812F
:101200009181019691838083FA01A081B181A430FC
:10121000B10548F311821082BE0166587D4F2F2D13
:1012200030E087E290E0289FA001299F500D389F71
:10123000500D11244C0F5D1F12C0FA01EA0FFB1F65
:10124000EA59FF4FAC0FBD1FA25BBD4F8C9180834D
:10125000DB018D919C91119701968D939C93FB01DD
:10126000A081B181A430B10540F387E290E0289FCE
:10127000F001299FF00D389FF00D1124EC0FFD1F98
:10128000EA57FF4FCE5ADD4F8881C255D240808346
:10129000E658F040AE014A5B5D4FDA018D919C91BA
:1012A0000D9720F1DB011D921C929E0126583D4FA7
:1012B000BA01AF0111C0FA01EA0FFB1FE659FF4F57
:1012C000AC0FBD1FAD5ABD4F8C918083F901808159
:1012D0009181019691838083F901A081B181FB0105
:1012E000808191810C97A817B90728F3CE5BDD4F59
:1012F0008881C254D2408250843008F047C1CD5D0D
:10130000DE4FF880C352D140FA948E0106581D4F2B
:10131000D8011D921C92B8012F2D30E087E290E099
:10132000289FA001299F500D389F500D11244C0F6C
:101330005D1F11C0FA01EA0FFB1FE05AFF4FAC0F0F
:10134000BD1FA85BBD4F8C918083FB018081918183
:10135000019691838083FB01A081B181A230B10508
:1013600048F3D8011D921C92AE0146585D4F2F2DB7
:1013700030E087E290E0289FB001299F700D389FF0
:10138000700D11246C0F7D1F11C0FB01EA0FFB1FB4
:10139000EE59FF4FAC0FBD1FA65BBD4F8C918083F4
:1013A000FA0180819181019691838083FA01A08165
:1013B000B181A430B10548F311821082AE014658C4
:1013C0005D4F2F2D30E087E290E0289FB001299FEC
:1013D000700D389F700D11246C0F7D1F12C0FB0122
:1013E000EA0FFB1FEA59FF4FAC0FBD1FA25BBD4FB9
:1013F0008C918083DA018D919C91119701968D9348
:101400009C93FA01A081B181A430B10540F311820F
:101410001082AE0146585D4F0E2D10E02F2D30E0AA
:1014200087E290E0289FB001299F700D389F700DD2
:1014300011246C0F7D1F12C0FB01EA0FFB1FE65940
:10144000FF4FAC0FBD1FAE5ABD4F8C918083DA01A8
:101450008D919C91119701968D939C93FA01A08197
:10146000B181A017B10740F311821082BE01665806
:101470007D4F2F2D30E087E290E0289FA001299F2B
:10148000500D389F500D11244C0F5D1F14C0FA01F0
:10149000EA0FFB1FE258FF4FAC0FBD1FA00FB11F9B
:1014A000AD5ABD4F8C918083DB018D919C9111973A
:1014B00001968D939C93FB01A081B181A230B1056F
:1014C00030F387E290E0289FD001299FB00D389F2C
:1014D000B00D1124AC0FBD1FA058BF4FFE01EE0D83
:1014E000F11DEB5AFD4F81918D9380818C93A15812
:1014F000B040FB0111821082AE0146585D4FBD0124
:1015000014C0FB01EA0FFB1FEE57FF4FAC0FBD1FCE
:10151000A00FB11FA95ABD4F8C918083DA018D9124
:101520009C91119701968D939C93FA01A081B181B2
:10153000A230B10530F311821082BE0166587D4F92
:1015400087E290E0289FA001299F500D389F500D01
:1015500011244C0F5D1F14C0FA01EA0FFB1FEC575A
:10156000FF4FAC0FBD1FA00FB11FA75ABD4F8C91ED
:101570008083DB018D919C91119701968D939C93B3
:10158000FB01A081B181A230B10530F3DF91CF9191
:101590001F910F91FF90EF900895CF93DF93FC017F
:1015A000E658FD4F2D5F3F4F31832083A0E0B0E030
:1015B000EF010AC0FB01E20FF31F8081A80FB11DEC
:1015C0002F5F3F4F398328832881398124173507BE
:1015D00088F3AF3FB10511F480E004C080E0AF3F75
:1015E00009F081E0DF91CF910895EF92FF920F9380
:1015F0001F93CF93DF938C01EB0179010E94CD0AF9
:10160000882311F081E008C008521E4FCE0DDF1D67
:101610008C81F801808380E0DF91CF911F910F9141
:10162000FF90EF900895AF92BF92CF92DF92EF922A
:10163000FF920F931F93CF93DF93EC016B017A011D
:101640005901A90198010E94CD0A882309F05AC0C6
:10165000F601E00FF11F9581D70115968C91159732
:10166000981709F04FC0968116968C91981709F03B
:1016700049C09501201B310B2930310529F48781A0
:10168000882309F442C03EC087818823D9F5FE0132
:10169000E658FD4F11821082AF012950304012C030
:1016A000FE01E60FF71FE85BFD4FD601A60FB71F3F
:1016B000A00FB11F18968C9180836F5F7F4FFA0146
:1016C00071836083DA016D917C916217730740F337
:1016D000CA5BDD4F39832883C654D240F701858128
:1016E0008E3491F48681843479F42230310530F0DF
:1016F000FE01ED5DFE4F80818F5F8083CE010E94F1
:101700009A0802C081E001C080E0DF91CF911F9173
:101710000F91FF90EF90DF90CF90BF90AF90089522
:10172000FC01E658FD4F11821082DF010BC0FC0165
:10173000E20FF31FE857FD4F10822F5F3F4F1196C6
:101740003C932E932D913C9111972E31310578F3D6
:101750000895AC01FC01E658FD4F11821082DF01B3
:101760000FC0F901BA96EE0FFF1FE40FF51F80813D
:101770009181892B59F02F5F3F4F11963C932E9307
:101780002D913C9111972530310558F3822F089502
:101790001092BC0D1092BD0D1092C00D1092C20D92
:1017A0000895CF92DF92EF92FF920F931F93CF9302
:1017B000DF936C01FC01E658FD4F118210828F010E
:1017C000E62EFF24E701CC0FDD1FCC0FDD1FCE0D71
:1017D000DF1D1CC0EC0FFD1F3B96EE0FFF1FEC0D35
:1017E000FD1D808191810E946866D8018D919C9138
:1017F0001197FE01E80FF91F3B96EE0FFF1FEC0D4E
:10180000FD1D1182108201968D939C93D801ED915C
:10181000FC91E530F105F0F28701000F111F0C0D6E
:101820001D1D075B1F4FD801ED91FC9115AA16AA4B
:1018300017AA10AECF010E946866F80111821082CB
:10184000F601ED5AFF4F808181508083DF91CF9167
:101850001F910F91FF90EF90DF90CF900895AF927E
:10186000BF92CF92DF92FF920F931F93CF93DF939C
:101870006C01FF2460E070E08C0106581D4FD80118
:101880006D937C93EB01AA96CC0FDD1FCC0DDD1D73
:1018900023C05F010894A11CB11CA881B981A55582
:1018A000BF4FBB96EE0FFF1FEC0DFD1D0190F081A9
:1018B000E02DE555FF4F2D913D914D915C9180813B
:1018C0009181A281B38182179307A407B50754F4CD
:1018D000F394F801B182A082D801ED91FC91E4303B
:1018E000F105B8F2B4E0FB1621F4F62E65E070E0E5
:1018F00002C0F62EF3946F5F7F4F6530710508F4D8
:10190000BECF0F2D10E0065D1F4F000F111F0C0DF5
:101910001D1DF801808191810E946866D8011D9289
:101920001C928F2DDF91CF911F910F91FF90DF902F
:10193000CF90BF90AF900895AF92BF92CF92DF92B9
:10194000FF920F931F93CF93DF936C01FF2460E00E
:1019500070E08C0106581D4FD8016D937C93EB010C
:10196000AA96CC0FDD1FCC0DDD1D23C05F010894AE
:10197000A11CB11CA881B981A555BF4FBB96EE0F24
:10198000FF1FEC0DFD1D0190F081E02DE555FF4F8F
:101990002D913D914D915C9180819181A281B38186
:1019A000281739074A075B0754F4F394F801B1820A
:1019B000A082D801ED91FC91E430F105B8F2B4E0D9
:1019C000FB1621F4F62E65E070E002C0F62EF394CB
:1019D0006F5F7F4F6530710508F4BECF0F2D10E0AB
:1019E000065D1F4F000F111F0C0D1D1DF80180819A
:1019F00091810E946866D8011D921C928F2DDF9103
:101A0000CF911F910F91FF90DF90CF90BF90AF903B
:101A100008950F931F93CF93DF938C01FC01E65839
:101A2000FD4F11821082EF0116C0BA96EE0FFF1F14
:101A3000E00FF11F808191810E9468668881998101
:101A40008A96FC01EE0FFF1FE00FF11F118210823A
:101A5000899799838883E881F981E530F10528F336
:101A6000DF91CF911F910F910895AF92BF92CF92C6
:101A7000DF92EF92FF920F931F93CF93DF93EC01CE
:101A800009E4A02EB12CA80EB91EEE24FF241AE7FB
:101A9000C12E12E0D12EC80ED91ED6011D921C9265
:101AA0008701000F111F000F111F0E0D1F1D1CC0FD
:101AB000E00FF11F3B96EE0FFF1FEC0FFD1F808123
:101AC00091810E946866F60180819181F801E80F9A
:101AD000F91F3B96EE0FFF1FEC0FFD1F11821082C6
:101AE0000196D6018D939C93D601ED91FC91E53042
:101AF000F105F0F2D501ED91FC9115AA16AA17AAED
:101B000010AECF010E946866F501119211925F013B
:101B10000894E11CF11CF5E0EF16F10409F0BDCFCB
:101B2000CD5ADF4F1882C65ADD4F1882229618828E
:101B3000DF91CF911F910F91FF90EF90DF90CF90A9
:101B4000BF90AF900895AF92BF92CF92DF92EF9285
:101B5000FF920F931F93CF93DF93EC01FC01E355AA
:101B6000FD4F108260E070E01AE7A12E12E0B12E66
:101B7000A80EB91E7F01D5016D937C938B01000FD8
:101B8000111F0C0F1D1F075B1F4F28C0D8018D911F
:101B90009C916F010894C11CD11CF601EE0FFF1F30
:101BA000EC0FFD1FE75BFF4F0190F081E02DDC01A2
:101BB000D5962D913D914D915C91D89785A996A987
:101BC000A7A9B0AD281739074A075B076CF4F701DE
:101BD00080818F5F8083D501CD92DC92D501ED911C
:101BE000FC91E430F10590F2F7018081843021F41A
:101BF000608365E070E004C0862F8F5FD7018C930F
:101C00006F5F7F4F6530710508F4B5CFFE01E65870
:101C1000FD4F118210828F017DEAE72E72E0F72ED0
:101C2000EC0EFD1E2FC0F701808190E0FC01EE0F4D
:101C3000FF1FEE0FFF1FE80FF91FE20FF31F3B9688
:101C4000EE0FFF1FEC0FFD1F808191810E946866DF
:101C5000D7018C9190E0FC01EE0FFF1FEE0FFF1FEC
:101C6000E80FF91FD8018D919C911197E80FF91F8A
:101C70003B96EE0FFF1FEC0FFD1F118210820196A5
:101C80008D939C93F801208131812530310558F2E4
:101C9000D701EC91F0E0EE0FFF1FEC0FFD1FE75BAB
:101CA000FF4F0190F081E02D15AA16AA17AA10AED9
:101CB000EC91F0E0EE0FFF1FEC0FFD1FE75BFF4F15
:101CC000808191810E946866D701EC91F0E0EE0F6F
:101CD000FF1FEC0FFD1FE75BFF4F11821082FE011B
:101CE000ED5AFF4F808181508083C155DD4F1882AE
:101CF000DF91CF911F910F91FF90EF90DF90CF90E8
:101D0000BF90AF9008952F923F924F925F926F9243
:101D10007F928F929F92AF92BF92CF92DF92EF927B
:101D2000FF920F931F93DF93CF93CDB7DEB76097EA
:101D30000FB6F894DEBF0FBECDBF7C016B01FC0176
:101D4000E658FD4F118210822FEA32E0E20EF31EB8
:101D5000D7018C9121E53DEFE20EF31E882311F1AE
:101D6000DF0110C0F901EE0FFF1FEE0DFF1DE75B55
:101D7000FF4F80819181892B59F02F5F3F4F119642
:101D80003C932E932D913C9111972530310550F3C2
:101D90004DEA52E0E40EF51ED7012C93E3E5FDEF8A
:101DA000EE0EFF1E2AE732E0E20EF31ED7011D926F
:101DB0001C92E8ECFFEFEE0EFF1ED7018C91EEEBCC
:101DC000FDEFEE0EFF1E813079F026E432E0E20EE8
:101DD000F31ED7018D919C91EAEBFDEFEE0EFF1EF5
:101DE0000C9770F50C946B2020E832E0E20EF31EA5
:101DF000D7018C91E0E8FDEFEE0EFF1E882379F409
:101E000026E432E0E20EF31ED7018D919C91EAEBBD
:101E1000FDEFEE0EFF1E059798F40C946B208130B9
:101E200079F426E432E0E20EF31ED7018D919C9105
:101E3000EAEBFDEFEE0EFF1E0B9710F40C946B20F7
:101E400000E010E06624882477249924B7016658BE
:101E50007D4FE2E44E2EE2E05E2E4E0C5F1C51E818
:101E6000252E52E0352E2E0C3F1C970120583D4F59
:101E70003E872D87DB011D921C92F801EE0FFF1F9C
:101E8000EE0DFF1DE75BFF4F0190F081E02D85A96E
:101E900096A9A7A9B0AD181619061A061B060CF0CC
:101EA0008CC3D2018C91813009F0D0C1AD85BE8543
:101EB0008C91882309F0E1C0D60114969C91149767
:101EC0008081981709F079C3AA24BB2416968C91B7
:101ED000833219F431E0A32EB12C96012A0D3B1D5B
:101EE000D90116968C91DB011D921C928130A9F0CC
:101EF000813020F0823009F088C070C09389D90108
:101F000017968C911797981709F07FC094891896A7
:101F10008C91981709F079C07CC0FB011182108266
:101F2000A801440F551F4E0D5F1D475B5F4F17C043
:101F3000FA01A081B181A20FB31FF601E20FF31FD6
:101F4000EA0DFB1D1B969C918781981719F0882438
:101F500083940BC02F5F3F4FDB012D933C93FB011C
:101F6000208131812430310518F3DB011D921C9250
:101F7000A801440F551F4E0D5F1D475B5F4F14C0F6
:101F8000FA01A081B181A20FB31FF601E20FF31F86
:101F9000EA0DFB1D1F969C9183859817A1F52F5F75
:101FA0003F4FDB012D933C93FB0120813181243095
:101FB000310530F325C0992787FD9095F601E40F90
:101FC000F51FEA0DFB1D278130E082179307D9F436
:101FD0004F5F5F4FFB015183408307C0D801AA0FB9
:101FE000BB1FAE0DBF1DA75BBF4FFB0140815181E1
:101FF000ED91FC911197E40FF51F85898332D9F695
:10200000882039F002C088248394F1E06F1609F02B
:10201000D4C2702E21E0A216B10479F4E02FF0E0D2
:10202000EE0FFF1FEE0DFF1DE75BFF4F0190F081EC
:10203000E02DD60115968C9182AFE72DF0E0EE0FE2
:10204000FF1FEE0DFF1DE75BFF4FA081B181DB9607
:102050008C91DB978F5FDB968C930190F081E02D64
:10206000D60112962C91129783A994A9820F911DE3
:1020700094AB83AB15969C90E3C0813009F09DC270
:10208000D6011A969C911A978081981709F095C2EB
:10209000AA24BB241C968C91833219F4B1E0AB2E98
:1020A000B12C96012A0D3B1DD9011C968C91DB01A8
:1020B0001D921C928130A9F0813020F0823009F00D
:1020C00088C070C09389D9011D968C911D9798176F
:1020D00009F07FC094891E968C91981709F079C0F9
:1020E0007CC0FB0111821082A801440F551F4E0DC8
:1020F0005F1D475B5F4F17C0FA01A081B181A20F3E
:10210000B31FF601E20FF31FEA0DFB1D1B969C9116
:102110008585981719F0882483940BC02F5F3F4F53
:10212000DB012D933C93FB0120813181243031056B
:1021300018F3DB011D921C92A801440F551F4E0D90
:102140005F1D475B5F4F14C0FA01A081B181A20FF0
:10215000B31FF601E20FF31FEA0DFB1D1F969C91C2
:1021600081899817A1F52F5F3F4FDB012D933C9399
:10217000FB01208131812430310530F325C09927BE
:1021800087FD9095F601E40FF51FEA0DFB1D2585EF
:1021900030E082179307D9F44F5F5F4FFB01518303
:1021A000408307C0D801AA0FBB1FAE0DBF1DA75BA0
:1021B000BF4FFB0140815181ED91FC911197E40FDC
:1021C000F51F85898332D9F6882039F002C088242A
:1021D0008394F1E06F1609F0F0C1702E21E0A21691
:1021E000B10479F4E02FF0E0EE0FFF1FEE0DFF1DBC
:1021F000E75BFF4F0190F081E02DD6011B968C919B
:1022000082AFE72DF0E0EE0FFF1FEE0DFF1DE75B45
:10221000FF4FA081B181DB968C91DB978F5FDB96BE
:102220008C930190F081E02DD60118962C9118978F
:1022300083A994A9820F911D94AB83AB1B969C90AC
:102240009A94B4E0B91508F0B4C1F8C6825084304D
:1022500008F0B3C1D1018C91882309F0D2C0D60116
:102260001B969C911B978081981709F0A6C1AA2400
:10227000BB241D968C91833219F431E0A32EB12C2E
:1022800096012A0D3B1DD9011D968C91DB011D92F3
:102290001C928130A9F0813020F0823009F088C092
:1022A00070C09389D9011E968C911E97981709F0DA
:1022B0007FC094891F968C91981709F079C07CC0D3
:1022C000FB0111821082A801440F551F4E0D5F1DA6
:1022D000475B5F4F17C0FA01A081B181A20FB31F06
:1022E000F601E20FF31FEA0DFB1D1B969C918685FC
:1022F000981719F0882483940BC02F5F3F4FDB01A0
:102300002D933C93FB01208131812430310518F35A
:10231000DB011D921C92A801440F551F4E0D5F1D3D
:10232000475B5F4F14C0FA01A081B181A20FB31FB8
:10233000F601E20FF31FEA0DFB1D1F969C918289A7
:102340009817A1F52F5F3F4FDB012D933C93FB01C5
:10235000208131812430310530F325C0992787FD54
:102360009095F601E40FF51FEA0DFB1D268530E080
:1023700082179307D9F44F5F5F4FFB01518340836E
:1023800007C0D801AA0FBB1FAE0DBF1DA75BBF4F73
:10239000FB0140815181ED91FC911197E40FF51FF4
:1023A00085898332D9F6882039F002C08824839445
:1023B000F1E06F1609F001C1702E21E0A216B10400
:1023C00079F4E02FF0E0EE0FFF1FEE0DFF1DE75B4D
:1023D000FF4F0190F081E02DD6011C968C9182AFC9
:1023E000E72DF0E0EE0FFF1FEE0DFF1DE75BFF4F47
:1023F0000190F081E02D83AD8F5F83AFF60194846F
:10240000D3C0823009F0D9C0D60151969C91519722
:102410008081981709F0D1C0AA24BB2453968C91CF
:10242000833219F4B1E0AB2EB12C96012A0D3B1D7D
:10243000D90153968C91DB011D921C928130A9F039
:10244000813020F0823009F088C070C09389D901B2
:1024500054968C915497981709F07FC0948955969B
:102460008C91981709F079C07BC0FB011182108212
:10247000A801440F551F4E0D5F1D475B5F4F17C0EE
:10248000FA01A081B181A20FB31FF601E20FF31F81
:10249000EA0DFB1D1B969C918489981719F08824DE
:1024A00083940BC02F5F3F4FDB012D933C93FB01C7
:1024B000208131812430310518F3DB011D921C92FB
:1024C000A801440F551F4E0D5F1D475B5F4F14C0A1
:1024D000FA01A081B181A20FB31FF601E20FF31F31
:1024E000EA0DFB1D1F969C91808D9817A1F52F5F1B
:1024F0003F4FDB012D933C93FB0120813181243040
:10250000310530F325C0992787FD9095F601E40F3A
:10251000F51FEA0DFB1D248930E082179307D9F4DB
:102520004F5F5F4FFB015183408307C0D801AA0F63
:10253000BB1FAE0DBF1DA75BBF4FFB01408151818B
:10254000ED91FC911197E40FF51F85898332D9F63F
:10255000882031F002C088248394F1E06F1669F579
:10256000702E21E0A216B10479F4E02FF0E0EE0F16
:10257000FF1FEE0DFF1DE75BFF4F0190F081E02D87
:10258000D60152968C9182AFE72DF0E0EE0FFF1F3F
:10259000EE0DFF1DE75BFF4F0190F081E02D83AD55
:1025A0008F5F83AFF60192889A94F4E0F91508F4EE
:1025B00045C505E010E0662463940F5F1F4F0530AA
:1025C000110508F457CC2AE732E0E20EF31ED701DA
:1025D0001D921C92E6E8FDEFEE0EFF1E662009F04C
:1025E00015C6870103551D4FD8017C90EFEAF2E034
:1025F000EE0EFF1E81E0D7018C93E4EAFDEFEE0EB4
:10260000FF1ED7018C91EDEAFFEFEE0EFF1E853025
:1026100028F0C7010E94A30DD8017C90F701ED5A64
:10262000FF4F80818F5F8083A72CBB2481E090E0E7
:102630006EE370E00E949F65FC012501440C551C6F
:102640004E0C5F1C29E430E0420E531ED2018D93E4
:102650009C93009709F4F8C522E432E0E20EF31EE1
:10266000D7018C912EEB3DEFE20EF31E813009F085
:1026700084C240E852E0E40EF51ED7018C9120E8B8
:102680003DEFE20EF31E882309F022C112A6D2010B
:10269000ED91FC91D60114968C918083F20100811A
:1026A00011810E94C501D801D5966D937D938D93BC
:1026B0009C93D897F701E658FD4F118210829F0135
:1026C000A20111C0FA01608171816A0F7B1FAC0DFC
:1026D000BD1D8C91DB0119968C93F901808191814C
:1026E000019691838083F901A081B181A230B10567
:1026F00048F340E050E0D60116968C91833211F4F5
:1027000041E050E0D501AA0FBB1FAE0DBF1DA75B76
:10271000BF4F2D913C911197B601640F751FFB01BE
:102720008681F90181A7970126583D4FF901118251
:1027300010820D911C911197F80181A5813089F0CB
:10274000813020F0823009F089C063C0FB018781AD
:10275000F801838BED91FC91DB0118968C91848BB1
:102760007DC0F901118210824901BD0114C0FB0135
:10277000008111810A0F1B1FAC0DBD1DA40FB51FD9
:1027800017968C91D8011B968C93F40180819181CE
:10279000019691838083F401A081B181A430B105B9
:1027A00030F3D9011D921C92970126583D4FB50177
:1027B000660F771F6E0D7F1D675B7F4F14C0FB0197
:1027C000008111810A0F1B1FAC0DBD1DA40FB51F89
:1027D0001B968C91D8011F968C93F9018081918171
:1027E000019691838083F901A081B181A430B10564
:1027F00030F334C0ED91FC911197E80FF91F258B50
:10280000FB0180819181019691838083459710F02F
:102810000CC0B901FB0180819181F601E80FF91F1D
:10282000E40FF51F2781233229F7F501EE0FFF1F73
:10283000EE0DFF1DE75BFF4F0190F081E02D2AE7D1
:1028400032E0E20EF31ED7018D919C9126E83DEF18
:10285000E20EF31EE80FF91F83E2858B413051052C
:1028600071F4F501EE0FFF1FEE0DFF1DE75BFF4F4B
:102870000190F081E02DD60115968C9182AFD501A3
:10288000AA0FBB1FAE0DBF1DA75BBF4FED91FC9103
:10289000119791E093AFF60195809A94F4E0F915C1
:1028A00008F4CCC32D913C911197F6018281F90176
:1028B00083AB14AAF6018381F90182ABED91FC91FF
:1028C00082A98150823010F493A7A0C413A69EC49D
:1028D000813009F09BC482A7D201ED91FC91D60111
:1028E0001A968C918083F201008111810E94C501AA
:1028F000D801D5966D937D938D939C93D897A7011E
:1029000046585D4FFA01118210829A01B20111C03E
:10291000FB01008111810A0F1B1FAC0DBD1D8C91A5
:10292000D80115968C93F90180819181019691834C
:102930008083F901A081B181A430B10548F3DA01A7
:102940001D921C92970126583D4FA501440F551F1B
:102950004E0D5F1D475B5F4F12C0FA0160817181B0
:102960006A0F7B1FAC0DBD1D14968C91DB01119677
:102970008C93F90180819181019691838083F90183
:10298000A081B181A430B10540F360E070E0D601D0
:102990001C968C91833211F461E070E0D501AA0F8E
:1029A000BB1FAE0DBF1DA75BBF4F2D913C91119773
:1029B000A601460F571FFA018485F90181A79701E7
:1029C00026583D4FF901118210820D911C911197EB
:1029D000F80181A5813089F0813020F0823009F042
:1029E00089C063C0FA018585F801838BED91FC9164
:1029F000DA011E968C91848B7DC0F90111821082C0
:102A00004901AD0114C0FA01008111810A0F1B1F99
:102A1000AC0DBD1DA60FB71F1D968C91D8011B963E
:102A20008C93F40180819181019691838083F401DC
:102A3000A081B181A430B10530F3D9011D921C925F
:102A4000970126583D4FA501440F551F4E0D5F1DA0
:102A5000475B5F4F14C0FA01008111810A0F1B1FF1
:102A6000AC0DBD1DA60FB71F51968C91D8011F96B6
:102A70008C93F90180819181019691838083F90182
:102A8000A081B181A430B10530F334C0ED91FC9147
:102A90001197E80FF91F258BFA018081918101962A
:102AA00091838083459710F00CC0A901FA018081C1
:102AB0009181F601E80FF91FE60FF71F25852332F4
:102AC00029F7F501EE0FFF1FEE0DFF1DE75BFF4F2E
:102AD0000190F081E02D2AE732E0E20EF31ED701EB
:102AE0008D919C9126E83DEFE20EF31EE80FF91F51
:102AF00083E2858BD501AA0FBB1FAE0DBF1DA75B5F
:102B0000BF4F2D913C911197F6018085F90183AB60
:102B100014AAF6018185F90182ABED91FC9182A99D
:102B20008150823018F481E083A701C013A6613080
:102B3000710571F4F501EE0FFF1FEE0DFF1DE75B50
:102B4000FF4F0190F081E02DD6011B968C9182AF52
:102B5000AA0CBB1CAE0CBF1CE9E4F0E0AE0EBF1E1D
:102B6000D501ED91FC9181E083AFF60193849A94B5
:102B7000F4E0F91508F04AC361C28250843008F0CD
:102B800045C321E832E0E20EF31ED7018C912FE716
:102B90003DEFE20EF31E882309F066C1D6011B96B5
:102BA0008C918083F201008111810E94C501D801BE
:102BB000D5966D937D938D939C93D89740E050E08C
:102BC000F6018585833211F441E050E0D501AA0F6A
:102BD000BB1FAE0DBF1DA75BBF4F2D913C91119741
:102BE000B601640F751FFB018585F90181A7970167
:102BF00026583D4FF901118210820D911C911197B9
:102C0000F80181A5813089F0813020F0823009F00F
:102C100089C063C0FB018685F801838BED91FC912F
:102C2000DB011F968C91848B7DC0F901118210828B
:102C30004901BD0114C0FB01008111810A0F1B1F56
:102C4000AC0DBD1DA40FB51F1E968C91D8011B960F
:102C50008C93F40180819181019691838083F401AA
:102C6000A081B181A430B10530F3D9011D921C922D
:102C7000970126583D4FB501660F771F6E0D7F1DDA
:102C8000675B7F4F14C0FB01008111810A0F1B1F7E
:102C9000AC0DBD1DA40FB51F52968C91D8011F9687
:102CA0008C93F90180819181019691838083F90150
:102CB000A081B181A430B10530F334C0ED91FC9115
:102CC0001197E80FF91F258BFB01808191810196F7
:102CD00091838083459710F00CC0B901FB0180817E
:102CE0009181F601E80FF91FE40FF51F26852332C5
:102CF00029F7F501EE0FFF1FEE0DFF1DE75BFF4FFC
:102D00000190F081E02D2AE732E0E20EF31ED701B8
:102D10008D919C9126E83DEFE20EF31EE80FF91F1E
:102D200083E2858B4130510571F4F501EE0FFF1FF1
:102D3000EE0DFF1DE75BFF4F0190F081E02DD60106
:102D40001C968C9182AFD501AA0FBB1FAE0DBF1D83
:102D5000A75BBF4FED91FC91119781E083AFF60126
:102D600094849A94F4E0F91508F468C19701265800
:102D70003D4FF901118210828901AD0111C0FA01A4
:102D8000608171816A0F7B1FAC0DBD1D8C91DB01D1
:102D900015968C93F80180819181019691838083AF
:102DA000F801A081B181A430B10548F3D9011D9289
:102DB0001C92970126583D4FA501440F551F4E0DFB
:102DC0005F1D475B5F4F12C0FA01608171816A0F1E
:102DD0007B1FAC0DBD1D14968C91DB0111968C935D
:102DE000F90180819181019691838083F901A0810D
:102DF000B181A430B10540F31182108297012658A9
:102E00003D4FA501440F551FD701A40FB51FA75B68
:102E1000BF4F11C06D917C911197680F791F8C0D78
:102E20009D1DFC018085FB018187F90180819181D5
:102E3000019691838083F90180819181823091058F
:102E400048F3D701A40FB51FA75BBF4FED91FC91CD
:102E5000119713A62D913C911197F6018285F901E6
:102E600082ABED91FC91CDC1823009F0CFC1D6018A
:102E700051968C918083F201008111810E94C501DD
:102E8000D801D5966D937D938D939C93D89740E010
:102E900050E0F6018389833211F441E050E0D5011E
:102EA000AA0FBB1FAE0DBF1DA75BBF4F2D913C915D
:102EB0001197B601640F751FFB018389F90181A782
:102EC000970126583D4FF901118210820D911C91F6
:102ED0001197F80181A5813089F0813020F082308E
:102EE00009F089C063C0FB018489F801838BED91EF
:102EF000FC91DB0155968C91848B7DC0F901118288
:102F000010824901BD0114C0FB01008111810A0F2B
:102F10001B1FAC0DBD1DA40FB51F54968C91D8017D
:102F20001B968C93F401808191810196918380831B
:102F3000F401A081B181A430B10530F3D9011D9213
:102F40001C92970126583D4FB501660F771F6E0DF5
:102F50007F1D675B7F4F14C0FB01008111810A0F49
:102F60001B1FAC0DBD1DA40FB51F58968C91D80129
:102F70001F968C93F90180819181019691838083C2
:102F8000F901A081B181A430B10530F334C0ED91D5
:102F9000FC911197E80FF91F258BFB01808191812E
:102FA000019691838083459710F00CC0B901FB0115
:102FB00080819181F601E80FF91FE40FF51F248944
:102FC000233229F7F501EE0FFF1FEE0DFF1DE75B22
:102FD000FF4F0190F081E02D2AE732E0E20EF31E70
:102FE000D7018D919C9126E83DEFE20EF31EE80F8C
:102FF000F91F83E2858B4130510571F4F501EE0F25
:10300000FF1FEE0DFF1DE75BFF4F0190F081E02DEC
:10301000D60152968C9182AFD501AA0FBB1FAE0D7F
:10302000BF1DA75BBF4FED91FC91119781E083AF6E
:10303000F60192889A94F4E0F91518F4C701672D07
:1030400019C5970126583D4FF90111821082890157
:10305000AD0111C0FA01608171816A0F7B1FAC0D57
:10306000BD1D8C91DB0115968C93F80180819181B7
:10307000019691838083F801A081B181A430B105CC
:1030800048F3D9011D921C92970126583D4FA50186
:10309000440F551F4E0D5F1D475B5F4F12C0FA0175
:1030A000608171816A0F7B1FAC0DBD1D14968C91E0
:1030B000DB0111968C93F9018081918101969183B6
:1030C0008083F901A081B181A430B10540F3118260
:1030D0001082970126583D4FA501440F551FB70197
:1030E000640F751F675B7F4F12C0FB010081118168
:1030F0000A0F1B1FAC0DBD1D18968C91D801199697
:103100008C93F90180819181019691838083F901EB
:10311000A081B181A230B10540F3F701E40FF51FA2
:10312000E75BFF4FA081B18182E09B968C93408149
:103130005181D6011A968C91DA019C968C9301905C
:10314000F081E02DD6011B968C9185A7F9011182A3
:103150001082970126583D4FA501440F551F4E0D73
:103160005F1D475B5F4F12C0FA01608171816A0F7A
:103170007B1FAC0DBD1D1C968C91DB019E968C9324
:10318000F90180819181019691838083F901A08169
:10319000B181A230B10540F3118210829701265807
:1031A0003D4FA501440F551FD701A40FB51FA75BC5
:1031B000BF4F11C06D917C911197680F791F8C0DD5
:1031C0009D1DFC018685FB0180ABF9018081918109
:1031D000019691838083F9018081918182309105EC
:1031E00048F3F701E40FF51FE75BFF4F20813181C2
:1031F000D60150968C91D901D2968C930190F08192
:10320000E02D82A9823011F481E083A7072D10E020
:10321000A92CBB2481E090E068E670E00E949F65E5
:10322000AC01F801EE0FFF1FEE0FFF1FE00FF11FC3
:10323000EA0DFB1D3B96EE0FFF1FEE0DFF1D5183A8
:1032400040834115510521F4C7010E94350D14C476
:1032500022E432E0E20EF31ED7019C912EEB3DEF0B
:10326000E20EF31E913009F0A2C1A0E8B2E0EA0E2E
:10327000FB1ED7018C9120E83DEFE20EF31E882360
:1032800009F0BCC04A595F4FD60115968C91DA01FE
:103290008C93D60116968C910190F081E02D8332AB
:1032A00021F4E959FF4F908303C0E959FF4F108281
:1032B000F801EE0FFF1FEE0FFF1FE00FF11FEA0DE9
:1032C000FB1D3B96EE0FFF1FEE0DFF1D0190F081E1
:1032D000E02DE959FF4F6081862E9924D701A65829
:1032E000BD4F11961C921E92F801EE0FFF1FEE0DBE
:1032F000FF1DE75BFF4F0190F081E02D81A581303C
:1033000071F0813018F0823039F403C082E090E02F
:103310001CC040E050E00BC080E090E016C088E0A8
:1033200090E013C02F5F3F4F11963C932E932D9149
:103330003C911197F601E20FF31FE80DF91D87810B
:103340004F5F5F4F833271F7CA01695F680F262FA5
:1033500030E0F701EA5BFD4F80819181821793078E
:1033600010F431832083F801EE0FFF1FEE0FFF1FD3
:10337000E00FF11FEA0DFB1D3B96EE0FFF1FEE0D58
:10338000FF1D608171816C597F4F46E452E0E40E6D
:10339000F51ED7018D919C914AEB5DEFE40EF51E71
:1033A000821B930BDB018D939C93D701A658BD4FD5
:1033B00011961C921E924D01AF0110C06E0F7F1F1F
:1033C000EC0DFD1DE20FF31F8081FB018083D40112
:1033D0008D919C91119701968D939C93D401ED91C1
:1033E000FC91DA016D917C916C597F4FDB018D91DD
:1033F0009C9164567040E817F90700F3E0E8F2E0AA
:10340000EE0EFF1ED7019C91E0E8FDEFEE0EFF1ED1
:10341000913009F0CCC0F801EE0FFF1FEE0FFF1F37
:10342000E00FF11FEA0DFB1D3B96EE0FFF1FEE0DA7
:10343000FF1D208131812A593F4FD6011B968C9167
:10344000D9018C93D6011C968C910190F081E02DCE
:10345000833221F4E959FF4F908303C0E959FF4FAC
:103460001082F801EE0FFF1FEE0FFF1FE00FF11F9C
:10347000EA0DFB1D3B96EE0FFF1FEE0DFF1D0190A9
:10348000F081E02DE959FF4F6081862E9924D70104
:10349000A658BD4F11961C921E92F801EE0FFF1F09
:1034A000EE0DFF1DE75BFF4F0190F081E02D81A540
:1034B000813071F0813018F0823039F403C082E03D
:1034C00090E01CC040E050E00BC080E090E016C0EF
:1034D00088E090E013C02F5F3F4F11963C932E93EE
:1034E0002D913C911197F601E20FF31FE80DF91DA4
:1034F00085854F5F5F4F833271F7CA01635F680F45
:10350000262F30E0F701EA5BFD4F80819181821721
:10351000930710F431832083F801EE0FFF1FEE0FA5
:10352000FF1FE00FF11FEA0DFB1D3B96EE0FFF1F83
:10353000EE0DFF1D608171816C597F4F46E452E0B2
:10354000E40EF51ED7018D919C914AEB5DEFE40EE0
:10355000F51E821B930BDB018D939C93D701A6581C
:10356000BD4F11961C921E924D01AF0110C06E0FFF
:103570007F1FEC0DFD1DE20FF31F8081FB01808397
:10358000D4018D919C91119701968D939C93D401B8
:10359000ED91FC91DA016D917C916C597F4FDB01CB
:1035A0008D919C9164567040E817F90700F3E2E4AE
:1035B000F2E0EE0EFF1ED7018C91EEEBFDEFEE0E6A
:1035C000FF1E8250843008F0ABC121E832E0E20EE9
:1035D000F31ED7018C91EFE7FDEFEE0EFF1E88235F
:1035E00009F0CEC0F801EE0FFF1FEE0FFF1FE00F36
:1035F000F11FEA0DFB1D3B96EE0FFF1FEE0DFF1DA9
:10360000208131812A593F4FD6011C968C91D901D6
:103610008C93D6011D968C910190F081E02D833220
:1036200029F4E959FF4F81E0808303C0E959FF4F36
:103630001082F801EE0FFF1FEE0FFF1FE00FF11FCA
:10364000EA0DFB1D3B96EE0FFF1FEE0DFF1D0190D7
:10365000F081E02DE959FF4F6081862E9924D70132
:10366000A658BD4F11961C921E92F801EE0FFF1F37
:10367000EE0DFF1DE75BFF4F0190F081E02D81A56E
:10368000813071F0813018F0823039F403C082E06B
:1036900090E01CC040E050E00BC080E090E016C01D
:1036A00088E090E013C02F5F3F4F11963C932E931C
:1036B0002D913C911197F601E20FF31FE80DF91DD2
:1036C00086854F5F5F4F833271F7CA01625F680F73
:1036D000262F30E0F701EA5BFD4F80819181821750
:1036E000930710F431832083F801EE0FFF1FEE0FD4
:1036F000FF1FE00FF11FEA0DFB1D3B96EE0FFF1FB2
:10370000EE0DFF1D608171816C597F4F46E452E0E0
:10371000E40EF51ED7018D919C914AEB5DEFE40E0E
:10372000F51E821B930BDB018D939C93D701A6584A
:10373000BD4F11961C921E925D01AF0110C06E0F1D
:103740007F1FEC0DFD1DE20FF31F8081FB018083C5
:10375000D5018D919C91119701968D939C93D501E4
:10376000ED91FC91DA016D917C916C597F4FDB01F9
:103770008D919C9164567040E817F90700F3D0C012
:10378000823009F0CDC0F801EE0FFF1FEE0FFF1FD2
:10379000E00FF11FEA0DFB1D3B96EE0FFF1FEE0D34
:1037A000FF1D208131812A593F4FD60152968C91BD
:1037B000D9018C93D60153968C910190F081E02D24
:1037C000833229F4E959FF4F81E0808303C0E9592E
:1037D000FF4F1082F801EE0FFF1FEE0FFF1FE00FEB
:1037E000F11FEA0DFB1D3B96EE0FFF1FEE0DFF1DB7
:1037F0000190F081E02DE959FF4F6081862E9924D8
:10380000D701A658BD4F11961C921E92F801EE0FDB
:10381000FF1FEE0DFF1DE75BFF4F0190F081E02DD4
:1038200081A5813071F0813018F0823039F403C005
:1038300082E090E01CC040E050E00BC080E090E0EF
:1038400016C088E090E013C02F5F3F4F11963C9365
:103850002E932D913C911197F601E20FF31FE80D85
:10386000F91D87894F5F5F4F833271F7CA016C5E24
:10387000680F262F30E0F701EA5BFD4F80819181D0
:103880008217930710F431832083F801EE0FFF1F96
:10389000EE0FFF1FE00FF11FEA0DFB1D3B96EE0F31
:1038A000FF1FEE0DFF1D608171816C597F4F46E453
:1038B00052E0E40EF51ED7018D919C914AEB5DEF2D
:1038C000E40EF51E821B930BDB018D939C93D701B5
:1038D000A658BD4F11961C921E925D01AF0110C0FB
:1038E0006E0F7F1FEC0DFD1DE20FF31F8081FB01AA
:1038F0008083D5018D919C91119701968D939C9316
:10390000D501ED91FC91DA016D917C916C597F4F5D
:10391000DB018D919C9164567040E817F90700F324
:10392000F701E85BFF4F80818F5F8083853009F46A
:103930001082000F111F0E0D1F1D075B1F4FD801B6
:10394000ED91FC9193AD82AD981711F481E081AFB8
:1039500019E4C12ED12CCE0CDF1C662477248701FC
:1039600006581D4FB3E52B2E312C2E0C3F1CF701B2
:10397000E355FD4FFA83E983970121553D4F3C8381
:103980002B83A701415A5F4F5E834D83C7018E5B36
:103990009D4F98878F83D701AF57BD4FBA87A987AF
:1039A000F701E752FE4FFC87EB87D8011D921C926E
:1039B0000E94C501D601ED91FC91309709F47DC3B9
:1039C00025A936A947A950AD1216130614061506E7
:1039D0000CF073C3621B730B840B950B69557B4111
:1039E000804090400CF025C381AD813009F0EEC2DB
:1039F000B62CE981FA816082AB81BC811C92ED8199
:103A0000FE8180818F5F8083C7010E94A90B982F60
:103A1000AD81BE818C918530B0F0EB85FC858081D5
:103A2000813029F0813038F0823069F409C0C70153
:103A30000E949C0C03C0C7010E942F0C982F03C04A
:103A4000C701662D17C0492E552481E090E064EB34
:103A500070E00E949F65AC019201265D3F4F220FEE
:103A6000331F2E0D3F1DD9018D939C93009731F488
:103A7000C7016B2D0E94D10B8FEF2EC3F101808106
:103A80008150808345555F4FD601ED91FC9185A80B
:103A900096A8A7A8B0ACDA018D929D92AD92BC9287
:103AA00013974F5250408081FA018083D901ED91E4
:103AB000FC91E955FF4FD6018D919C91DC019A96BE
:103AC0008C918083F901A081B181F601808191817F
:103AD000FC0183A518968C93AF81B8858C918130B9
:103AE00009F060C0F901A081B181A955BF4F8C9147
:103AF000A75AB040813009F048C0D8011D921C92ED
:103B0000A90116C0FA01A081B181A80FB91FAF5752
:103B1000BF4FF60120813181280F391FF9018581BE
:103B20008C93D8018D919C91119701968D939C93C4
:103B3000F801808191818430910520F311821082F7
:103B4000A201465D5F4F440F551F4E0D5F1D16C00D
:103B5000FA01A081B181A80FB91FA358BF4FF60188
:103B600020813181280F391FF90181818C93D8017F
:103B70008D919C91119701968D939C93F801808172
:103B800091818430910520F36EC0882309F06BC0C9
:103B9000AB57BF4FF60180819181FC0181858C93E9
:103BA000D90156C0F80111821082A90116C0FA018C
:103BB000A081B181A80FB91FAF57BF4FF601208177
:103BC0003181280F391FF90185818C93D8018D919E
:103BD0009C91119701968D939C93F801808191811E
:103BE0008430910520F3118210829201265D3F4FAF
:103BF000B901660F771F6E0D7F1D13C0DB01ED91BC
:103C0000FC91E80FF91FE358FF4F480F591FDA01E5
:103C100011968C918083F801808191810196918326
:103C20008083D8018D919C91F6014081518184302F
:103C3000910520F3D901AA0FBB1FAE0DBF1D2D9119
:103C40003C9111972B573F4FFA018185F9018083F1
:103C5000ED91FC91EA57FF4FD6018D919C91DC01CB
:103C60001A968C918083F601808191813AE2A32E8D
:103C7000B12CA40CB51CAA0CBB1CAE0CBF1CD501EE
:103C8000ED91FC91EA55FF4FDC01DA966C91DA97E1
:103C9000D3968D919C91D49770E00E943565608396
:103CA000D501ED91FC91E855FF4FD6018D919C9186
:103CB000DC0199968C918083F501A081B181A85592
:103CC000BF4F8C91A85AB0408130D9F0813020F09C
:103CD000823009F08BC05DC0A157BF4FF6018081D3
:103CE0009181FC0183898C93D501ED91FC91E05782
:103CF000FF4FD6018D919C91DC0154968C9180836D
:103D000075C0F80111821082A50116C0FA01A081C8
:103D1000B181A80FB91FA557BF4FF601208131818E
:103D2000280F391FF90183858C93D8018D919C91BF
:103D3000119701968D939C93F80180819181843035
:103D4000910520F311821082A201465D5F4F440F5E
:103D5000551F4E0D5F1D16C0FA01A081B181A80F3D
:103D6000B91FA957BF4FF60120813181280F391F94
:103D7000F90187858C93D8018D919C9111970196BB
:103D80008D939C93F801808191818430910520F37B
:103D90002DC0D8011D921C92A501F801808191814E
:103DA000FA01A081B181A80FB91FAF56BF4FF6012C
:103DB00020813181280F391FF90185898C93D80121
:103DC0008D919C91119701968D939C93D601ED91C5
:103DD000FC91E80FF91F25892332F9F6D501ED9101
:103DE000FC91E80FF91FEF56FF4F2083D601ED91AC
:103DF000FC9182AD682F70E061507040F301EE0FCE
:103E0000FF1FEE0FFF1FE60DF71DE60FF71F3B9696
:103E1000EE0FFF1FEE0DFF1DF88BEF87AA24BB24CA
:103E200088249924A201465D5F4F440F551F4E0D13
:103E30005F1D32C0D8011D921C9216C0FA0120816C
:103E40003181280F391F2A0D3B1DA80FB91F8C91F6
:103E5000D9011C968C930894811C911CF8018081D7
:103E60009181019691838083D8018D919C91EF85FA
:103E7000F889A081B181AC59BF4F2D913C91119728
:103E8000A456B04082179307C8F2A20EB31E615029
:103E900070403297F88BEF87FFEF6F3F7F0751F647
:103EA0009201265D3F4F220F331F2E0D3F1DF9015A
:103EB000A081B181A059BF4F11969C928E92A057BC
:103EC000B040E985FA858081823009F044C0AC5861
:103ED000BF4FF60180819181FC0184A58C93D901AB
:103EE000ED91FC91EB58FF4FD6018D919C91DC0137
:103EF0009D968C918083D901ED91FC91EA58FF4FFA
:103F0000D6018D919C91DC019E968C918083D90184
:103F1000ED91FC91E958FF4FD6018D919C91DC0108
:103F20009F968C918083D901ED91FC91E858FF4FC9
:103F3000D6018D919C91DC01D0968C918083D90122
:103F4000ED91FC91E758FF4FD6018D919C91DC01DA
:103F5000D1968C918083F801118210825301AA0CB2
:103F6000BB1CAA0CBB1CA60CB71C1CC0EA0DFB1D7D
:103F70003B96EE0FFF1FEE0DFF1D808191810E9489
:103F80006866D8018D919C911197F501E80FF91F92
:103F90003B96EE0FFF1FEE0DFF1D11821082019662
:103FA0008D939C93D801ED91FC91E530F105F0F2F1
:103FB000D601ED91FC9115AA16AA17AA10AECF0151
:103FC0000E946866F6011182108277C092AD83ADBF
:103FD000981709F072C0D8011D921C925301AA0CC7
:103FE000BB1CAA0CBB1CA60CB71C1CC0EA0DFB1DFD
:103FF0003B96EE0FFF1FEE0DFF1D808191810E9409
:104000006866F80180819181F501E80FF91F3B9600
:10401000EE0FFF1FEE0DFF1D118210820196D801D9
:104020008D939C93D801ED91FC91E530F105F0F270
:104030002DC0F801118210825301AA0CBB1CAA0CDE
:10404000BB1CA60CB71C1CC0EA0DFB1D3B96EE0F5B
:10405000FF1FEE0DFF1D808191810E946866D801CF
:104060008D919C911197F501E80FF91F3B96EE0F8A
:10407000FF1FEE0DFF1D1182108201968D939C9300
:10408000D801ED91FC91E530F105F0F2D601ED910A
:10409000FC9115AA16AA17AA10AECF010E94686655
:1040A000F60111821082D1018C9181508C93E981AB
:1040B000FA816082AB81BC811C920894611C711CE6
:1040C000E2E0F0E0CE0EDF1EF5E06F16710409F0BD
:1040D0006CCC80E001C081E060960FB6F894DEBF42
:1040E0000FBECDBFCF91DF911F910F91FF90EF9049
:1040F000DF90CF90BF90AF909F908F907F906F9008
:104100005F904F903F902F900895AF92BF92CF92C3
:10411000DF92EF92FF920F931F93CF93DF93EC0107
:104120006B015A01890188E790E061E070E00E942C
:104130009F657C01009711F41FEF6BC0CE01B601A3
:10414000A50198010E94CD0A882329F0C7010E9489
:10415000686611E05EC0DE01AA5BBD4F11961C923D
:104160001E92FE01E658FD4F0C5F1F4F1183008326
:10417000045010409F01A50141505040BD0116C0A0
:10418000FD013497E01BF10BEE0DFF1DAC0DBD1DC5
:104190008C918083FB018081918101969183808342
:1041A000F90180819181019691838083F901A08139
:1041B000B181A417B50720F3C00ED11EF6016381AB
:1041C000613879F0623818F46038D9F405C0603984
:1041D00071F06139B1F40FC0C058DD4F81E08883C0
:1041E00003C0C058DD4F1882C058D2400AC0CF5714
:1041F000DD4F188204C0CF57DD4F82E08883C1585D
:10420000D240CE01B7010E94830E182FC7010E9431
:104210006866812FDF91CF911F910F91FF90EF90F2
:10422000DF90CF90BF90AF9008950F931F93CF93DF
:10423000DF93EC018B0141E00E94455F882311F080
:1042400081E005C0CE01B80140E00E94455FDF91EA
:10425000CF911F910F9108952F923F924F925F92AD
:104260006F927F928F929F92AF92BF92CF92DF9286
:10427000EF92FF920F931F93DF93CF93CDB7DEB7EB
:1042800062970FB6F894DEBF0FBECDBF8C013B0125
:104290000E94C501D82E04521E4F82E0D8018C9393
:1042A0000C5D1140F801E255FD4F8081882321F417
:1042B000EE24FF24332409C08EE7D3018C931082AF
:1042C00051E0E52EF12C332433944D2D592FCB01A1
:1042D000DA014C015D01EBE0F0E0FA8BE98BDD24C3
:1042E0005524C80182559D4F988B8F8746E0242E18
:1042F00044244394B1C08DED9AE00E94D7038823F3
:1043000011F4CC2495C08DED9AE00E94D203F30104
:10431000EE0DFF1D80830894E11CF11C0E94C50175
:10432000AC01CB01DA014C015D010894E108F10810
:10433000F301EE0DFF1D0894E11CF11C80818E3706
:1043400061F48CE291E08E199F098E36910520F47C
:10435000AF85B8894C9201C03394B1E0EB16F104FB
:1043600049F4EE24FF2480818E3761F431E0E32E9E
:10437000F12C08C0ECE2EE16E1E0FE0618F0CC24C9
:10438000C39401C0CC24529C900111242C5F3F4F58
:10439000C9018D0D911DE816F90699F4F1E0DF16BB
:1043A00099F0F301EE0DFF1D319780818A5882301C
:1043B00080F089899A8903969A8B898BDD24D3941E
:1043C00003C091E0D91629F4A989BA891196BA8B4C
:1043D000A98BF301EE0DFF1D3197E081ED3741F41C
:1043E000DD20F9F4E989FA893196FA8BE98B19C055
:1043F000EA3851F4E216F306A1F489899A890696FF
:104400009A8B898B53940DC0EE3759F491E0D916ED
:1044100041F4A989BA891197BA8BA98B29EFD22EB9
:10442000DA0EE989FA89EE16FF0611F4CC24C3945A
:104430000E94C5010E94C501681979098A099B0972
:10444000615D77408040904028F08DED9AE00E94B9
:10445000CD0308C0CC2031F4AF85B8898C91882376
:1044600009F449CFF30180818E3709F0339491E04C
:10447000C92ED12CAA24BB248AE7482E82E0582ECC
:10448000400E511EC80186559D4F9A838983D801DD
:10449000A555BD4FBC83AB83F801E455FD4FFE83AA
:1044A000ED83C80187559D4F98878F83D801A85504
:1044B000BD4FBA87A987F801E452FE4FFC87EB870E
:1044C00088248394C80185529E4F9E878D879BC008
:1044D0000894C11CD11C80818E3721F03196CE14F6
:1044E000DF04B0F3D601AA19BB09BA8BA98BF2017C
:1044F000118210829924A3014A0D5B1D0CC0FA01A0
:10450000E20FF31F80818D3709F493942F5F3F4FA3
:10451000D2012D933C93F2012081318189899A89BE
:104520002817390760F3992049F09601281B390BA9
:10453000C801B30149895A890E943F089601A98997
:10454000BA892A1B3B0BF301E20FF31F83818B38DF
:10455000C1F18C3820F48A3809F050C006C0803987
:1045600091F0813909F04AC01BC0E989FA89EA0D46
:10457000FB1DE919F109FA8BE98BC801B301AF0101
:104580000E94F50A3BC089899A898A0D9B1D891969
:1045900091099A8B898BC801B30149895A890BC04B
:1045A000E989FA89EA0DFB1DE919F109FA8BE98B12
:1045B000C801B301AF010E948520AD85BE858C93F3
:1045C0001DC08581A981BA818C938681AB81BC8114
:1045D0008C938781AD81BE818C938185AF81B885B5
:1045E0008C938085E985FA858083882321F4AB85C7
:1045F000BC851C9203C0EB85FC8580823A945601F1
:104600000894C11CD11C332021F0F301EC0DFD1DD9
:1046100062CF04521E4FD8018C9162960FB6F89467
:10462000DEBF0FBECDBFCF91DF911F910F91FF90E5
:10463000EF90DF90CF90BF90AF909F908F907F9042
:104640006F905F904F903F902F9008952F923F92E0
:104650004F925F926F927F928F929F92AF92BF9292
:10466000CF92DF92EF92FF920F931F93DF93CF933E
:10467000CDB7DEB72A970FB6F894DEBF0FBECDBF19
:104680006C014B010E94C501F82E2CED31E0C20EE9
:10469000D31E82E0D6018C93E4E2FEEFCE0EDF1E45
:1046A000F601E255FD4F8081882321F4332400E098
:1046B00010E008C08EE7D4018C9310823324339429
:1046C00001E010E04F2D592FCB01DA012C013D0103
:1046D000E7E0F0E0FA87E987FF24BB249601225542
:1046E0003D4F38872F83F6E02F2EAA24A394ACC029
:1046F0008DED9AE00E94D703882311F4EE2490C038
:104700008DED9AE00E94D203F401E00FF11F808347
:104710000F5F1F4F0E94C501AC01CB01DA012C01D4
:104720003D0101501040F401E00FF11F0F5F1F4FDA
:1047300080818E3761F48CE291E0801B910B8E3684
:10474000910520F4AF81B885AC9201C0339401305B
:10475000110541F400E010E080818E3751F401E052
:1047600010E007C0B1E00C321B0718F0EE24E39410
:1047700001C0EE24B29C900111242C5F3F4FC9016F
:104780008F0D911D0817190799F4E1E0FE1699F0B5
:10479000F401E00FF11F319780818958823080F059
:1047A00089859A8503969A878987FF24F39403C0A5
:1047B00091E0F91629F4A985BA851196BA87A987D7
:1047C000F401E00FF11F3197E081ED3741F4FF2054
:1047D00001F5E985FA853196FA87E9871AC0EA3842
:1047E00059F402171307A9F429853A852A5F3F4F28
:1047F0003A872987B3940DC0EE3759F431E0F316A8
:1048000041F489859A8501979A878987E9EFFE2E79
:10481000F80EA985BA850A171B0711F4EE24E39454
:104820000E94C5010E94C50164197509860997098E
:10483000615D77408040904028F08DED9AE00E94C5
:10484000CD0308C0EE2031F4EF81F8858081882304
:1048500009F44ECFD4018C918E3709F0339471E076
:10486000E72EF12CAA24BB246AE7462E62E0562EDE
:104870004C0C5D1CF601E552FE4FFA83E98396016C
:1048800028553D4F3C832B83C60184529E4F9E8307
:104890008D836624639488C00894E11CF11C808198
:1048A0008E3721F03196E016F106B0F3D701AA1940
:1048B000BB09BA87A987F201118210827724A4016B
:1048C0004A0D5B1D0CC0FA01E20FF31F80818D378A
:1048D00009F473942F5F3F4FD2012D933C93F20163
:1048E0002081318189859A852817390760F37720DF
:1048F00049F09701281B390BC601B40149855A8537
:104900000E943F089701A985BA852A1B3B0BF40139
:10491000E20FF31F8381813821F1823818F4803847
:10492000F1F512C0893871F18A38C9F5E985FA853F
:10493000EA0DFB1DE719F109FA87E987C601B40101
:10494000AF010E94F50A2BC089859A858A0D9B1DAF
:10495000871991099A878987C601B40149855A85C3
:104960000BC0E985FA85EA0DFB1DE719F109FA8705
:10497000E987C601B401AF010E948520A981BA81EF
:104980008C930DC08581EB81FC818083882321F489
:10499000AD81BE811C9203C0ED81FE8160823A949C
:1049A00057010894E11CF11C332021F0F401EE0DB5
:1049B000FF1D75CF2CED31E0C20ED31ED6018C91B8
:1049C0002A960FB6F894DEBF0FBECDBFCF91DF9110
:1049D0001F910F91FF90EF90DF90CF90BF90AF901D
:1049E0009F908F907F906F905F904F903F902F900F
:1049F00008952F923F924F925F926F927F928F9283
:104A00009F92AF92BF92CF92DF92EF92FF920F935D
:104A10001F93DF93CF93CDB7DEB72C970FB6F894E3
:104A2000DEBF0FBECDBF6C0178876F838CE291E053
:104A300061E070E00E949F655C01009739F48DEDA4
:104A40009AE00E94CD03FF24FA94C7C10E94C501D9
:104A50000E94C501F601E255FD4F8081882321F4B3
:104A6000442455241A8209C010828EE7F501808300
:104A7000B1E04B2E512CF1E0FA83EF81F885808173
:104A80008F3F29F4C601B5010E94262306C08E3F40
:104A900079F4C601B5010E942C21860104521E4FF3
:104AA000F8018083C5010E946866F801F08095C115
:104AB0008E3E41F4A5E0EA2EF12C012D112DFDE6EC
:104AC0003F2E07C0E2E3EE2EF12C012D112D7EE1E9
:104AD000372EEF81F8858581853489F48681843489
:104AE00009F045C022E432E0C20ED31EF6018081F7
:104AF0002EEB3DEFC20ED31E8130C9F58EC184343A
:104B000061F4EF81F88586818E3489F568EEE62EB2
:104B100063E0F62E012D112D2AC08E3441F5EF8170
:104B2000F8858681843419F522E432E0C20ED31E62
:104B3000F60180812EEB3DEFC20ED31E833039F497
:104B400050E4E52E5CE9F52E012D112D10C08450A6
:104B5000823038F440EBE42E46E3F42E012D112D83
:104B600006C030E2E32E3EE4F32E012D112D0E940B
:104B7000C5016B837C838D839E830E94C501AC013C
:104B8000CB01DA013C014D01A60142555D4F5C8726
:104B90004B87232C33242CC08DED9AE00E94D20346
:104BA000F501E40DF51D80830894411C511CF501AD
:104BB000E40DF51D319780818E3779F48CE291E018
:104BC000841995098215930528F421E0EB85FC856D
:104BD000208303C03A813F5F3A830E94C501AC0144
:104BE000CB01DA013C014D010E94C5010E94C501C3
:104BF0000E94C50166197709880999096E157F0514
:104C00008007910708F003C10E94C5012B813C81F8
:104C10004D815E81621B730B840B950B60547C4944
:104C20008040904008F0F3C04CE2441641E0540646
:104C300008F0EDC0EB85FC858081882309F0E7C092
:104C40008DED9AE00E94D703882371F2A5CFFA81F7
:104C5000FF5FFA8321E0822E912C00E010E092E0C9
:104C6000F92E19828AE7282E82E0382E2C0C3D1C62
:104C7000960126523E4F3A872987BBED6B2EB1E055
:104C80007B2E6C0C7D1C9CC00894811C911C808127
:104C90008E3721F0319684149504B0F3A401401BA3
:104CA000510B5C874B87F10111821082EE24A50124
:104CB000400F511F0CC0FA01E20FF31F80818D37A6
:104CC00009F4E3942F5F3F4FF10131832083F10119
:104CD000208131818B859C852817390760F3EE2070
:104CE00049F09401281B390BC601B5014B855C8541
:104CF0000E943F08D401EB85FC85AE1BBF0BF5017C
:104D0000EA0FFB1F8381883881F0893830F48038BE
:104D100079F1813809F048C036C08039A1F1813974
:104D200091F18A3809F040C013C02B853C85200FD3
:104D3000311F2E1931093C872B87C601B5014F81E0
:104D400058858D010E94130BF82EE985FA852BC03A
:104D50002B853C85200F311F2E1931093C872B876D
:104D6000C601B501A9019D010E94F50AF82E1CC0DB
:104D70004B855C85400F511F4E1951095C874B874D
:104D8000C601B5010BC02B853C85200F311F2E19A4
:104D900031093C872B87C601B501A9019D010E94FD
:104DA0008520F82EF301F082FF2019F4F981FF5FCE
:104DB000F9832A8121502A8384010894811C911C43
:104DC0003A81332321F0F501E80DF91D60CFC501CB
:104DD0000E94686649814111FF248F2D2C960FB6E1
:104DE000F894DEBF0FBECDBFCF91DF911F910F9121
:104DF000FF90EF90DF90CF90BF90AF909F908F90FB
:104E00007F906F905F904F903F902F900895F501A5
:104E100080818E3709F01BCF1DCFA8EBEA2EABE0C7
:104E2000FA2E012D112DA3CECF92DF92EF92FF9299
:104E30000F931F93CF93DF93EC01FC01E658FD4FD6
:104E40001182108290E0DF0106C09F5F2F5F3F4F0D
:104E500011963C932E932D913C911197FB01E20FFB
:104E6000F31F8081882389F7092F069518E8C12E42
:104E700012E0D12ECC0EDD1E760110E00DC0F70140
:104E800041917F0150E060E070E08DED9AE020E01C
:104E900030E00E94AF031F5F101788F3CE01B60108
:104EA0000E94F924DF91CF911F910F91FF90EF9015
:104EB000DF90CF900895AF92BF92CF92DF92EF92A2
:104EC000FF920F931F93CF93DF938C015A01DC0164
:104ED000A658BD4F11961C921E92ED0109C0F80113
:104EE000E80FF91FE857FD4F1082019699838883D8
:104EF000888199818E31910590F31D921C9290E0EA
:104F0000D801A658BD4F06C09F5F2F5F3F4F119637
:104F10003C932E932D913C911197FB01E20FF31FCF
:104F20008081882389F7D92ED6947B01C02EC801B1
:104F3000EC0110C084EC9DE0F701608141810E948A
:104F40009F4EC857DD4F888322E030E0E20EF31E0B
:104F5000C758D240FE01EC19ED1560F3F8E1DF16F9
:104F6000D9F4F801E658FD4F11821082EF010EC00E
:104F7000F801E20FF31FE157FD4FD501A20FB31F58
:104F80008C9180832F5F3F4F39832883288139811B
:104F90002031310568F362C020E1D216D9F4F8015E
:104FA000E658FD4F11821082EF010EC0F801E20FAA
:104FB000F31FE157FD4FD501A20FB31F8C918083E2
:104FC0002F5F3F4F3983288328813981283031056D
:104FD00068F344C03BE0D316D9F4F801E658FD4F1E
:104FE00011821082EF010EC0F801E20FF31FE157AA
:104FF000FD4FD501A20FB31F8C9180832F5F3F4FD0
:1050000039832883288139812330310568F326C00C
:105010008AE0D816D9F4F801E658FD4F11821082C3
:10502000EF010EC0F801E20FF31FE157FD4FD5016C
:10503000A20FB31F8C9180832F5F3F4F398328834A
:10504000288139812230310568F308C00D0D111D0A
:105050000A571D4FF5018081F8018083DF91CF91C0
:105060001F910F91FF90EF90DF90CF90BF90AF9086
:1050700008950F931F93CF93DF93EC018B01C652DA
:10508000DE4F82E08883CA5DD140CE0160E072E0ED
:10509000A8010E945B27CE0160E072E00E940F042D
:1050A000CE0160E072E00E941427982F8823E1F47B
:1050B000FE01E658FD4F11821082AF010FC0FE01C4
:1050C000E20FF31FE75AFE4FD801A20FB31F8C91D6
:1050D00080832F5F3F4FFA0131832083FA012081C3
:1050E00031812031310558F3892FDF91CF911F9104
:1050F0000F910895AF92BF92CF92DF92EF92FF92FD
:105100000F931F93CF93DF938C01B42EA22EDC015B
:10511000A658BD4F11961C921E92ED0109C0F801D0
:10512000E80FF91FE857FD4F108201969983888395
:10513000888199818E31910590F31D921C9290E0A7
:10514000D801A658BD4F06C09F5F2F5F3F4F1196F5
:105150003C932E932D913C911197FB01E20FF31F8D
:105160008081882389F7D92ED6947B01C02EC8016F
:10517000EC0110C084EC9DE0F701608141810E9448
:105180009F4EC857DD4F888322E030E0E20EF31EC9
:10519000C758D240FE01EC19ED1560F3F801ED0D92
:1051A000F11DEB57FD4FB192A082DF91CF911F917E
:1051B0000F91FF90EF90DF90CF90BF90AF90089548
:1051C0000F931F93CF93DF93EC01162F042FCE5B29
:1051D000DD4F8881C254D240FE01E652FE4F81303D
:1051E000B1F482E08083CE016CEF72E0412F202F7A
:1051F0000E947A28CE016CEF72E00E940F04CE016B
:105200006CEF72E00E941427882321F005C08FEF15
:10521000808302C019870A87DF91CF911F910F9178
:105220000895EF92FF920F931F93CF93DF93AC01FA
:10523000DC01A658BD4F11961C921E92ED0109C0CB
:10524000FA01E80FF91FE857FD4F10820196998384
:105250008883888199818E31910590F31D921C92EB
:1052600090E0DA01A658BD4F06C09F5F2F5F3F4F09
:1052700011963C932E932D913C911197FB01E20FD7
:10528000F31F8081882389F7E92EE6948B01F42EA1
:10529000CA01EC010EC084EC9DE0F80160814181FF
:1052A0000E949F4EC857DD4F88830E5F1F4FC7581F
:1052B000D2409E012F192E1570F3DF91CF911F91CF
:1052C0000F91FF90EF900895EF92FF920F931F932D
:1052D0008C0106521E4F82E0F80180830A5D114066
:1052E000EAEAEE2EE3E0FE2EC801B7010E94112982
:1052F000C801B7010E9414271F910F91FF90EF90F2
:105300000895CF93DF93EC01C652DE4F82E088838D
:10531000CA5DD140CE016FEF73E00E941129CE012A
:105320006FEF73E00E941427982F882331F4C85B35
:10533000DD4F8881CE51D1408883892FDF91CF9175
:105340000895CF93DF93EC01CE5BDD4F8881C2548B
:10535000D2408150FE01E652FE4F823080F482E05E
:105360008083CE0162E374E00E941129CE0162E3E2
:1053700074E00E941427982F882329F010C08FEF23
:1053800080839FEF0CC0C85BDD4F8881C854D2403A
:105390008987C75BDD4F8881C954D2408A87892FAE
:1053A000DF91CF9108952F923F924F925F926F922B
:1053B0007F928F929F92AF92BF92CF92DF92EF92A5
:1053C000FF920F931F93DF93CF93CDB7DEB728974C
:1053D0000FB6F894DEBF0FBECDBF5C017B0188E73E
:1053E00090E061E070E00E949F656C01009711F40D
:1053F0000C949032198284E190E061E070E00E94A8
:105400009F658F8398872F813885232B11F40C9407
:105410009032D501A658BD4F11961C921E929D0147
:105420000AC0F501E80FF91FE857FD4F10820196F9
:10543000F90191838083F901808191818E319105F9
:1054400080F32CED31E0A20EB31E82E0F5018083E3
:1054500024E23EEFA20EB31E1D921C92D501A65867
:10546000BD4F0AC0EC0DFD1D10828D919C911197CE
:10547000019611969C938E93ED91FC911197E837CC
:10548000F10580F38EE7F6018193FE83ED83F6014B
:1054900011822CE730E0E20EF31EF701808124E850
:1054A0003FEFE20EF31EF60184831D921C928501EC
:1054B00006521E4F62E0562ED8015C92E2E4F2E002
:1054C000AE0EBF1ED5018C91EEEBFDEFAE0EBF1EF2
:1054D000813009F0E2C3D70118968C91813031F008
:1054E000442410E01C8255E0552EDBC0F6011382E7
:1054F0000E94C5013B014C01D8015C92F8018081FA
:105500008150823010F00C94AA320E94C5016619B5
:10551000770988099909685873418040904010F0D4
:105520000C94AA32C5010E94A129E8CFD8018C9120
:105530008150823010F00C94BE320E94C501661971
:10554000770988099909685873418040904010F0A4
:105550000C94BE32C5016FEF4FEF0E94E028E1E0EE
:10556000EC83E4CFD8011D921C920BC0F601E50D2F
:10557000F11D10825394F8018081918101969183ED
:105580008083D8018D919C911197049778F31D9297
:105590001C920BC0F601E50DF11D10825394F80129
:1055A00080819181019691838083D8018D919C9116
:1055B0001197029778F31D921C920BC0F601E50D2E
:1055C000F11D20835394F80180819181019691838C
:1055D0008083D8018D919C91029780F3BCE0B51532
:1055E00008F0C0CFF60115862CE730E0E20EF31E7E
:1055F000D7018C918687EDE2F0E0EE0EFF1ED70119
:105600008C91E7E5FFEFEE0EFF1ED6011F968C93FF
:10561000F80111821082C501B701A60120E10E94A4
:105620005304B6016E5F7F4F22E730E0E20EF31EB7
:10563000D7018C91EEE8FFEFEE0EFF1E855FD601DD
:1056400012968C9383E090E0F8019183808340E090
:10565000D501A658BD4F0AC0F601E20FF31F8081A5
:10566000480F2F5F3F4F11963C932E932D913C9105
:105670001197FB01808190E003962817390760F3AA
:10568000442E409422E730E0E20EF31ED701ED9164
:10569000FC912EE83FEFE20EF31EEC0DFD1D468659
:1056A0001FE0D70118968C911897882309F00BC139
:1056B00019968C91813009F098C0F60113829501FA
:1056C00026583D4F31C0D9011D921C920FC0F601E2
:1056D000E50DF11DAE0DBF1D14968C918083539482
:1056E000F90180819181019691838083F901A081E4
:1056F000B181A430B10558F3118210820FC0F601B8
:10570000E50DF11DAE0DBF1D8C9180835394D90121
:105710008D919C91119701968D939C93F901A08195
:10572000B181A430B10558F3FCE0F51560F60E9494
:10573000C5013B014C01F501E652FE4F82E080833A
:105740008F01D8018C918150823008F01FC70E94D0
:10575000C50166197709880999096858734180401D
:10576000904008F013C7C5010E94A129EACFF801B3
:1057700080818150823008F01BC70E94C5016619E4
:10578000770988099909685873418040904008F06A
:105790000FC7C5016FEF4FEF0E94E02821E02C8377
:1057A000E6CFF601E20FF31F8081480E2F5F3F4FD7
:1057B00011963C932E932D913C911197FA01808183
:1057C00090E003962817390760F3409422E730E011
:1057D000E20EF31ED701ED91FC912EE83FEFE20EB1
:1057E000F31EEC0DFD1D46861FE0D70119968C9126
:1057F0001997882309F067C081E0F60183831A9620
:105800008C911A9785831B968C91868317822CE73F
:1058100030E0E20EF31ED7018C918087EDE2F0E0DC
:10582000EE0EFF1ED7018C91E7E5FFEFEE0EFF1E97
:10583000D60119968C93850106581D4FF8011182E7
:105840001082C501B701A6012AE00E945304A601F7
:105850004E5F5F4F22E730E0E20EF31ED7018C91DE
:10586000EEE8FFEFEE0EFF1E8B5FD60112968C93D3
:1058700083E090E0F80191838083D8010AC0F601AB
:10588000E20FF31F8081480E2F5F3F4F11963C932C
:105890002E932D913C911197FA01808190E003960F
:1058A0002817390760F3409422E730E0E20EF31E38
:1058B000D701ED91FC912EE83FEFE20EF31EEC0DC7
:1058C000FD1D408619E0D70118968C91833009F0B0
:1058D00077C1F60113822BE730E0E20EF31ED70109
:1058E0008C91E5E8FFEFEE0EFF1E813009F095C0C8
:1058F0000E94C5013B014C01F501E652FE4F82E0DA
:1059000080838F01D8018C918150823008F08CC641
:105910000E94C50166197709880999096858734179
:105920008040904008F080C6C5010E94A129EACFBE
:105930000E94C501F101608371838283938364E6D1
:1059400070E080E090E00E94DD01D8018C918150F0
:10595000823008F059C00E94C5016619770988098C
:105960009909685873418040904008F04DC0C501C6
:105970006FEF4FEF0E94E028E1E0EC83D8018C91BB
:105980008150823010F7D4CF11961C921E920CC019
:10599000F601E50DF11D108253948D919C911197A4
:1059A000019611969C938E938D919C9111970497DB
:1059B00078F311961C921E920CC0F601E50DF11DB4
:1059C000108253948D919C911197019611969C93FE
:1059D0008E938D919C911197029778F311961C925A
:1059E0001E920CC0F601E50DF11D208353948D919C
:1059F0009C911197019611969C938E938D919C91F9
:105A00001197029728F4EECFD501A658BD4F2FEF7E
:105A1000ECE0E51508F0B8CF73C0882399F170C0A9
:105A2000D9011D921C920FC0F601E50DF11DAE0DBE
:105A3000BF1D14968C9180835394F90180819181CC
:105A4000019691838083F901A081B181A430B105D1
:105A500058F3118210820FC0F601E50DF11DAE0D55
:105A6000BF1D8C9180835394D9018D919C91119786
:105A700001968D939C93F901A081B181A430B10569
:105A800020F4EACF950126583D4FFCE0F51540F68D
:105A90000E94C5013B014C01F501E652FE4F82E038
:105AA00080838F01D8018C918150823008F0D4C559
:105AB0000E94C501661977098809990968587341D8
:105AC0008040904008F0C8C5C5010E94A129EACFD6
:105AD000F80180818150823098F40E94C5016619D6
