:100000000C94C3000C94ED000C94ED000C94ED00E6
:100010000C94ED000C94ED000C94ED000C94ED00AC
:100020000C94ED000C94ED000C94ED000C94ED009C
:100030000C94AC020C94ED000C94ED000C94900127
:100040000C94ED000C94ED000C94ED000C94ED007C
:100050000C94ED000C94ED000C94ED000C946B01ED
:100060000C94ED000C9439250C94ED000C94ED00EB
:100070000C94ED000C94ED000C94ED000C94ED004C
:100080000C94ED000C94ED000C94ED000C94ED003C
:100090000C947A250C94ED000C94ED000C94ED007A
:1000A0000C94ED000C94ED000C94ED000C94ED001C
:1000B0000C94ED000C94ED000C94ED000C94ED000C
:1000C0000C94ED000C94ED000C94ED00002124271D
:1000D0002A2D3033002225282B2E313400202326D0
:1000E000292C2F3205050505030303030101010433
:1000F00004030606060606060606010405010501B8
:1001000003020202020202010202050504040304C2
:1001100004010304070707010208101020408004AF
:1001200008102040020204081020408001028020B4
:100130004004200101020408102001408040800199
:1001400002080408800410040201000008090000ED
:10015000000000000000000000000000000000009F
:10016000000000000000000000000000000000008F
:100170000000000000000000000000000000E3029A
:100180003507EC232F2411241FBECFEFD1E2DEBFB1
:10019000CDBF15E0A0E0B2E0EEEBF1E500E00BBF73
:1001A00002C007900D92A238B107D9F71EE0A2E86D
:1001B000B5E001C01D92A83AB107E1F711E0C6E829
:1001C000D1E004C02297FE010E94B127CE37D107AB
:1001D000C9F70E9464010C94DD280C9400000F9371
:1001E0001F9302EB19E0C80165E043E021E00E94A3
:1001F0003024C8010E94362383E895E00E942B0337
:100200001F910F910895CF93DF93C0E0D0E00FC00E
:10021000EC0FFD1F4485552747FD5095652F752F21
:1002200083E895E020E030E00E940D032196E09104
:10023000110AF0E0EE0FFF1FEC5FF54F0190F08127
:10024000E02DE059FF4F80819181E057F040C817C1
:10025000D907F0F2DF91CF91089582EB99E00E94E7
:10026000622280918D0B882329F580ED97E069E16A
:1002700070E00E9403241AC00E940301E091110A59
:10028000F0E0EE0FFF1FEC5FF54F808191810E943F
:100290007E288091110AE82FF0E0EE0FFF1FEC5F3F
:1002A000F54F1182108281508093110A8091110ABA
:1002B000882311F7089583E895E00E943503882389
:1002C00011F00E942D0108950E94EF010E94EF009D
:1002D0000E945B01FDCF1F920F920FB60F92112467
:1002E0008F939F93AF93BF9380911C0C90911D0CA3
:1002F000A0911E0CB0911F0C0196A11DB11D809301
:100300001C0C90931D0CA0931E0CB0931F0CBF915E
:10031000AF919F918F910F900FBE0F901F901895E6
:100320001F920F920FB60F9211248F939F93AF934A
:10033000BF938091200C9091210CA091220CB09140
:10034000230C0196A11DB11D8093200C9093210CCC
:10035000A093220CB093230CBF91AF919F918F91EA
:100360000F900FBE0F901F90189560911C0C70910C
:100370001D0C80911E0C90911F0C27E0660F771FBB
:10038000881F991F2A95D1F72EE330E040E050E016
:100390000E947227CA01B9010895AF92BF92CF920D
:1003A000DF92EF92FF920F931F935B016C010E940B
:1003B000B5017B018C010E94B5016E197F09800B8C
:1003C000910B6A157B058C059D05A8F31F910F9174
:1003D000FF90EF90DF90CF90BF90AF90089578940A
:1003E00084B7877F84BF10921C0C10921D0C109252
:1003F0001E0C10921F0C84B5826084BD84B5816090
:1004000084BD85B5826085BD85B5816085BDEEE61C
:10041000F0E0808181608083E1E8F0E080818260AB
:100420008083808181608083E0E8F0E0808181606A
:100430008083E1EBF0E0808184608083E1E9F0E09B
:10044000808184608083E0EBF0E080818160808344
:10045000E0E9F0E0808181608083E4E6F0E0808183
:100460008E7F8083ECE7F0E080818F7780838081CE
:1004700080648083EAE7F0E080818460808380810B
:10048000826080838081806880831092C100109296
:10049000C900089590918205982B9093820580FF62
:1004A00032C0809164008E7F8093640080917C00D4
:1004B0008F7780937C0080917C00806480937C00A7
:1004C00080917A00846080937A0080917A008260C3
:1004D00080937A0080917A00806880937A0080917E
:1004E00064008F7780936400809164008B7F809399
:1004F0006400809164008D7F80936400809165002A
:100500008E7F809365000895282F20959091820515
:1005100092239093820580FF1EC080917A008F778E
:1005200080937A0080916400816080936400809160
:10053000640080688093640080916400846080938C
:100540006400809164008260809364008091650003
:1005500081608093650008951F920F920FB60F92ED
:100560000BB60F9211242F933F934F935F936F938A
:100570007F938F939F93AF93BF93EF93FF93F894E1
:1005800081E080938005E0E6F0E0808180688083F0
:1005900080818F7B808383E060E00E9400277894D5
:1005A000FF91EF91BF91AF919F918F917F916F914B
:1005B0005F914F913F912F910F900BBE0F900FBE07
:1005C0000F901F901895109283050895EF92FF9257
:1005D0000F931F93CF93DF93EC017A018B0177FF89
:1005E0000CC08DE268810E94BB2510950095F094A7
:1005F000E094E11CF11C011D111DC801B7012AE0A6
:1006000030E040E050E008810E94BE25DF91CF91AC
:100610001F910F91FF90EF9008950F931F93FC018E
:10062000DA018B012115310529F4842F60810E94A4
:10063000BB250EC02A30310519F40E94E60208C01D
:1006400030E040E050E0BD01C80100810E94BE25BD
:100650001F910F910895FC0180810E942525089526
:10066000FC0180810E94EA240895FC0180810E949F
:10067000C6240895FC0160E076E980E090E04081C6
:100680000E94662686E161E00E94E2260895CF93EB
:10069000DF93EC016983623099F0633049F0613097
:1006A000A1F40E943A0386E161E00E9400270DC098
:1006B00086E160E00E94002788810E94482605C0EC
:1006C00085E895E061E00E941423DF91CF910895C1
:1006D0000F931F93CF93DF93DC018B01EC01CC5E72
:1006E000DD4F1982188240E0BE0106C04F5F2F5FC8
:1006F0003F4FFB0131832083FB0120813181F801D1
:10070000E20FF31F8081882389F7469583E090E00C
:100710009983888390E0ED01CC5EDD4F50E00BC003
:10072000FD01E20FF31FEE5DFD4F8081980F2F5FFB
:100730003F4F39832883288139812417350780F377
:10074000892F8095A40FB51FAF5DBD4F8C93DF91AE
:10075000CF911F910F910895DF92EF92FF920F9327
:100760001F93CF93DF93890180E090E0F3E1DF2EC8
:10077000EEE7EE2E31E1F32E37C02F5F3F4F9C9115
:100780009D3731F01196319624173507B0F32DC0FF
:100790002417350750F5E9012196E60FF71F8181EF
:1007A000833361F0843318F4813369F405C08D35E7
:1007B00049F08E3541F404C0FC9205C0DC9203C0C0
:1007C000EC9201C09C9341505040F901E00FF11FA1
:1007D000E60FF71F02C0818180832F5F3F4F319664
:1007E000CE0124173507B8F39C012417350738F4D8
:1007F000F901E00FF11FDB01AE0FBF1FC0CFDF918A
:10080000CF911F910F91FF90EF90DF900895EF929D
:10081000FF920F931F93CF93DF93EC01C052DE4FF3
:10082000E8808DEEE80E23978881CD5DD140813040
:1008300009F0C9C0CD5DDE4FF880C352D140FA94B3
:100840008E010C5E1D4FD8011D921C92B8012F2DF8
:1008500030E087E290E0289FA001299F500D389F4B
:10086000500D11244C0F5D1F11C0FA01EA0FFB1F40
:10087000E05AFF4FAC0FBD1FAE51BE4F8C9180832D
:10088000FB0180819181019691838083FB01A0818E
:10089000B181A230B10548F3D8011D921C92AE017E
:1008A0004C5E5D4F2F2D30E087E290E0289FB00135
:1008B000299F700D389F700D11246C0F7D1F11C082
:1008C000FB01EA0FFB1FEE59FF4FAC0FBD1FAC51F0
:1008D000BE4F8C918083FA01808191810196918332
:1008E0008083FA01A081B181A430B10548F311825F
:1008F0001082BE016C5E7D4F2F2D30E087E290E0CC
:10090000289FA001299F500D389F500D11244C0F96
:100910005D1F12C0FA01EA0FFB1FEA59FF4FAC0F2F
:10092000BD1FA851BE4F8C918083DB018D919C919E
:10093000119701968D939C93FB01A081B181A43006
:10094000B10540F387E290E0289FF001299FF00D68
:10095000389FF00D1124EC0FFD1FEA57FF4FC451D3
:10096000DE4F8881CC5ED1408083E658F040AE01F6
:1009700040525E4FDA018D919C910D9720F1DB0181
:100980001D921C929E012C5E3D4FBA01AF0111C019
:10099000FA01EA0FFB1FE659FF4FAC0FBD1FA35131
:1009A000BE4F8C918083F901808191810196918362
:1009B0008083F901A081B181FB01808191810C9735
:1009C000A817B90728F3C352DE4F8881CD5DD14007
:1009D0008250843008F047C1CD5DDE4FF880C352AD
:1009E000D140FA948E010C5E1D4FD8011D921C92CD
:1009F000B8012F2D30E087E290E0289FA001299FC9
:100A0000500D389F500D11244C0F5D1F11C0FA017D
:100A1000EA0FFB1FE05AFF4FAC0FBD1FAE51BE4F98
:100A20008C918083FB0180819181019691838083E9
:100A3000FB01A081B181A230B10548F3D8011D921C
:100A40001C92AE014C5E5D4F2F2D30E087E290E0AE
:100A5000289FB001299F700D389F700D11246C0FD5
:100A60007D1F11C0FB01EA0FFB1FEE59FF4FAC0FBA
:100A7000BD1FAC51BE4F8C918083FA018081918162
:100A8000019691838083FA01A081B181A430B105E0
:100A900048F311821082AE014C5E5D4F2F2D30E085
:100AA00087E290E0289FB001299F700D389F700D5C
:100AB00011246C0F7D1F12C0FB01EA0FFB1FEA59C6
:100AC000FF4FAC0FBD1FA851BE4F8C918083DA0140
:100AD0008D919C91119701968D939C93FA01A08121
:100AE000B181A430B10540F311821082AE014C5E99
:100AF0005D4F0E2D10E02F2D30E087E290E0289F13
:100B0000B001299F700D389F700D11246C0F7D1F4F
:100B100012C0FB01EA0FFB1FE659FF4FAC0FBD1FD0
:100B2000A451BE4F8C918083DA018D919C911197D5
:100B300001968D939C93FA01A081B181A017B10712
:100B400040F311821082BE016C5E7D4F2F2D30E08C
:100B500087E290E0289FA001299F500D389F500DFB
:100B600011244C0F5D1F14C0FA01EA0FFB1FE2585D
:100B7000FF4FAC0FBD1FA00FB11FA351BE4F8C91F3
:100B80008083DB018D919C91119701968D939C93AD
:100B9000FB01A081B181A230B10530F387E290E082
:100BA000289FD001299FB00D389FB00D1124AC0FA4
:100BB000BD1FA058BF4FFE01EE0DF11DE151FE4FCC
:100BC00081918D9380818C93A158B040FB0111825B
:100BD0001082AE014C5E5D4FBD0114C0FB01EA0FF7
:100BE000FB1FEE57FF4FAC0FBD1FA00FB11FAF5043
:100BF000BE4F8C918083DA018D919C911197019663
:100C00008D939C93FA01A081B181A230B10530F39C
:100C100011821082BE016C5E7D4F87E290E0289FBA
:100C2000A001299F500D389F500D11244C0F5D1FBE
:100C300014C0FA01EA0FFB1FEC57FF4FAC0FBD1FAA
:100C4000A00FB11FAD50BE4F8C918083DB018D9101
:100C50009C91119701968D939C93FB01A081B1818A
:100C6000A230B10530F3DF91CF911F910F91FF902A
:100C7000EF900895CF93DF93FC01EC5EFD4F2D5F65
:100C80003F4F31832083A0E0B0E0EF010AC0FB01B9
:100C9000E20FF31F8081A80FB11D2F5F3F4F3983F3
:100CA0002883288139812417350788F3AF3FB105A0
:100CB00011F480E004C080E0AF3F09F081E0DF91F3
:100CC000CF910895EF92FF920F931F93CF93DF93ED
:100CD0008C01EB0179010E943A06882311F081E032
:100CE00008C008521E4FCE0DDF1D8C81F801808395
:100CF00080E0DF91CF911F910F91FF90EF900895C9
:100D0000AF92BF92CF92DF92EF92FF920F931F9319
:100D1000CF93DF93EC016B017A015901A90198018E
:100D20000E943A06882309F05AC0F601E00FF11F2D
:100D30009581D70115968C911597981709F04FC09A
:100D4000968116968C91981709F049C09501201B41
:100D5000310B2930310529F48781882309F442C0F9
:100D60003EC087818823D9F5FE01EC5EFD4F1182DC
:100D70001082AF012950304012C0FE01E60FF71F6C
:100D8000EE51FE4FD601A60FB71FA00FB11F189648
:100D90008C9180836F5F7F4FFA0171836083DA01EA
:100DA0006D917C916217730740F3C052DE4F398317
:100DB0002883C05ED140F70185818E3491F486810D
:100DC000843479F42230310530F0FE01ED5DFE4FC0
:100DD00080818F5F8083CE010E94070402C081E082
:100DE00001C080E0DF91CF911F910F91FF90EF90B4
:100DF000DF90CF90BF90AF900895FC01EC5EFD4F67
:100E000011821082DF010BC0FC01E20FF31FEE5DC7
:100E1000FD4F10822F5F3F4F11963C932E932D91E3
:100E20003C9111972E31310578F30895AC01FC0106
:100E3000EC5EFD4F11821082DF010FC0F901BA96FE
:100E4000EE0FFF1FE40FF51F80819181892B59F070
:100E50002F5F3F4F11963C932E932D913C9111970C
:100E60002530310558F3822F08950895CF92DF92EF
:100E7000EF92FF920F931F93CF93DF936C01FC01CE
:100E8000EC5EFD4F118210828F01E62EFF24E701F8
:100E9000CC0FDD1FCC0FDD1FCE0DDF1D1CC0EC0FF6
:100EA000FD1F3B96EE0FFF1FEC0DFD1D8081918114
:100EB0000E947E28D8018D919C911197FE01E80F28
:100EC000F91F3B96EE0FFF1FEC0DFD1D11821082E6
:100ED00001968D939C93D801ED91FC91E530F1053D
:100EE000F0F28701000F111F0C0D1D1D075B1F4F36
:100EF000D801ED91FC9115AA16AA17AA10AECF0140
:100F00000E947E28F80111821082F601ED5AFF4FEF
:100F1000808181508083DF91CF911F910F91FF904D
:100F2000EF90DF90CF900895AF92BF92CF92DF9273
:100F3000FF920F931F93CF93DF936C01FF2460E028
:100F400070E08C010C5E1D4FD8016D937C93EB011A
:100F5000AA96CC0FDD1FCC0DDD1D23C05F010894C8
:100F6000A11CB11CA881B981A555BF4FBB96EE0F3E
:100F7000FF1FEC0DFD1D0190F081E02DE555FF4FA9
:100F80002D913D914D915C9180819181A281B381A0
:100F900082179307A407B50754F4F394F801B182BC
:100FA000A082D801ED91FC91E430F105B8F2B4E0F3
:100FB000FB1621F4F62E65E070E002C0F62EF394E5
:100FC0006F5F7F4F6530710508F4BECF0F2D10E0C5
:100FD000065D1F4F000F111F0C0D1D1DF8018081B4
:100FE00091810E947E28D8011D921C928F2DDF9145
:100FF000CF911F910F91FF90DF90CF90BF90AF9056
:101000000895AF92BF92CF92DF92FF920F931F93FA
:10101000CF93DF936C01FF2460E070E08C010C5EE5
:101020001D4FD8016D937C93EB01AA96CC0FDD1F69
:10103000CC0DDD1D23C05F010894A11CB11CA8814B
:10104000B981A555BF4FBB96EE0FFF1FEC0DFD1DDF
:101050000190F081E02DE555FF4F2D913D914D918F
:101060005C9180819181A281B381281739074A0759
:101070005B0754F4F394F801B182A082D801ED919A
:10108000FC91E430F105B8F2B4E0FB1621F4F62E41
:1010900065E070E002C0F62EF3946F5F7F4F65301D
:1010A000710508F4BECF0F2D10E0065D1F4F000F35
:1010B000111F0C0D1D1DF801808191810E947E2859
:1010C000D8011D921C928F2DDF91CF911F910F910E
:1010D000FF90DF90CF90BF90AF9008950F931F9334
:1010E000CF93DF938C01FC01EC5EFD4F11821082E7
:1010F000EF0116C0BA96EE0FFF1FE00FF11F8081BF
:1011000091810E947E28888199818A96FC01EE0F48
:10111000FF1FE00FF11F1182108289979983888346
:10112000E881F981E530F10528F3DF91CF911F9136
:101130000F910895AF92BF92CF92DF92EF92FF92FC
:101140000F931F93CF93DF93EC0109E4A02EB12CF2
:10115000A80EB91EEE24FF2414E1C12E12E0D12EF8
:10116000C80ED91ED6011D921C928701000F111FB7
:10117000000F111F0E0D1F1D1CC0E00FF11F3B962D
:10118000EE0FFF1FEC0FFD1F808191810E947E28D2
:10119000F60180819181F801E80FF91F3B96EE0F6F
:1011A000FF1FEC0FFD1F118210820196D6018D9357
:1011B0009C93D601ED91FC91E530F105F0F2D5015B
:1011C000ED91FC9115AA16AA17AA10AECF010E94A4
:1011D0007E28F501119211925F010894E11CF11C27
:1011E000F5E0EF16F10409F0BDCFCD5ADF4F1882BC
:1011F000CC50DE4F188222961882DF91CF911F913A
:101200000F91FF90EF90DF90CF90BF90AF90089537
:10121000AF92BF92CF92DF92EF92FF920F931F9304
:10122000CF93DF93EC01FC01E95BFD4F108260E09E
:1012300070E014E1A12E12E0B12EA80EB91E7F01BC
:10124000D5016D937C938B01000F111F0C0F1D1F97
:10125000075B1F4F28C0D8018D919C916F010894A6
:10126000C11CD11CF601EE0FFF1FEC0FFD1FE75B49
:10127000FF4F0190F081E02DDC01D5962D913D913D
:101280004D915C91D89785A996A9A7A9B0AD2817CB
:1012900039074A075B076CF4F70180818F5F808311
:1012A000D501CD92DC92D501ED91FC91E430F105B0
:1012B00090F2F7018081843021F4608365E070E072
:1012C00004C0862F8F5FD7018C936F5F7F4F65308F
:1012D000710508F4B5CFFE01EC5EFD4F118210825E
:1012E0008F0177E4E72E72E0F72EEC0EFD1E2FC083
:1012F000F701808190E0FC01EE0FFF1FEE0FFF1F52
:10130000E80FF91FE20FF31F3B96EE0FFF1FEC0FE4
:10131000FD1F808191810E947E28D7018C9190E0F1
:10132000FC01EE0FFF1FEE0FFF1FE80FF91FD801A2
:101330008D919C911197E80FF91F3B96EE0FFF1FBF
:10134000EC0FFD1F1182108201968D939C93F80182
:10135000208131812530310558F2D701EC91F0E040
:10136000EE0FFF1FEC0FFD1FE75BFF4F0190F081B9
:10137000E02D15AA16AA17AA10AEEC91F0E0EE0F18
:10138000FF1FEC0FFD1FE75BFF4F808191810E94E3
:101390007E28D701EC91F0E0EE0FFF1FEC0FFD1F50
:1013A000E75BFF4F11821082FE01ED5AFF4F8081F3
:1013B00081508083C75BDD4F1882DF91CF911F91F1
:1013C0000F91FF90EF90DF90CF90BF90AF90089576
:1013D0002F923F924F925F926F927F928F929F9245
:1013E000AF92BF92CF92DF92EF92FF920F931F9333
:1013F000DF93CF93CDB7DEB760970FB6F894DEBF1B
:101400000FBECDBF7C016B01FC01EC5EFD4F118274
:10141000108229E432E0E20EF31ED7018C9127EB13
:101420003DEFE20EF31E882311F1DF0110C0F90138
:10143000EE0FFF1FEE0DFF1DE75BFF4F80819181D7
:10144000892B59F02F5F3F4F11963C932E932D918E
:101450003C9111972530310550F347E452E0E40EFA
:10146000F51ED7012C93E9EBFDEFEE0EFF1E24E1F4
:1014700032E0E20EF31ED7011D921C92E9ECFFEF61
:10148000EE0EFF1ED7018C91E3E2FEEFEE0EFF1E83
:10149000813079F020EE31E0E20EF31ED7018D911C
:1014A0009C91E0E2FEEFEE0EFF1E0C9770F50C949F
:1014B000D01B2AE132E0E20EF31ED7018C91E6EE5A
:1014C000FDEFEE0EFF1E882379F420EE31E0E20EF0
:1014D000F31ED7018D919C91E0E2FEEFEE0EFF1E10
:1014E000059798F40C94D01B813079F420EE31E00C
:1014F000E20EF31ED7018D919C91E0E2FEEFEE0E1D
:10150000FF1E0B9710F40C94D01B00E010E0662433
:10151000882477249924B7016C5E7D4FEDED4E2E23
:10152000E1E05E2E4E0C5F1C5BE1252E52E0352E75
:101530002E0C3F1C9701265E3D4F3E872D87DB0119
:101540001D921C92F801EE0FFF1FEE0DFF1DE75BD1
:10155000FF4F0190F081E02D85A996A9A7A9B0AD14
:10156000181619061A061B060CF08CC3D2018C91B2
:10157000813009F0D0C1AD85BE858C91882309F0FA
:10158000E1C0D60114969C9114978081981709F0B8
:1015900079C3AA24BB2416968C91833219F431E0C6
:1015A000A32EB12C96012A0D3B1DD90116968C91C4
:1015B000DB011D921C928130A9F0813020F0823035
:1015C00009F088C070C09389D90117968C9117973C
:1015D000981709F07FC0948918968C91981709F094
:1015E00079C07CC0FB0111821082A801440F551FF5
:1015F0004E0D5F1D475B5F4F17C0FA01A081B1819F
:10160000A20FB31FF601E20FF31FEA0DFB1D1B969D
:101610009C918781981719F0882483940BC02F5FC1
:101620003F4FDB012D933C93FB012081318124301E
:10163000310518F3DB011D921C92A801440F551FC0
:101640004E0D5F1D475B5F4F14C0FA01A081B18151
:10165000A20FB31FF601E20FF31FEA0DFB1D1F9649
:101660009C9183859817A1F52F5F3F4FDB012D9348
:101670003C93FB01208131812430310530F325C0BA
:10168000992787FD9095F601E40FF51FEA0DFB1DE4
:10169000278130E082179307D9F44F5F5F4FFB013A
:1016A0005183408307C0D801AA0FBB1FAE0DBF1DD9
:1016B000A75BBF4FFB0140815181ED91FC911197D8
:1016C000E40FF51F85898332D9F6882039F002C0EE
:1016D00088248394F1E06F1609F0D4C2702E21E0C3
:1016E000A216B10479F4E02FF0E0EE0FFF1FEE0D2B
:1016F000FF1DE75BFF4F0190F081E02DD6011596AD
:101700008C9182AFE72DF0E0EE0FFF1FEE0DFF1D75
:10171000E75BFF4FA081B181DB968C91DB978F5FF8
:10172000DB968C930190F081E02DD60112962C91DE
:10173000129783A994A9820F911D94AB83AB159640
:101740009C90E3C0813009F09DC2D6011A969C910D
:101750001A978081981709F095C2AA24BB241C9679
:101760008C91833219F4B1E0AB2EB12C96012A0D85
:101770003B1DD9011C968C91DB011D921C9281307E
:10178000A9F0813020F0823009F088C070C09389C0
:10179000D9011D968C911D97981709F07FC09489E7
:1017A0001E968C91981709F079C07CC0FB011182BC
:1017B0001082A801440F551F4E0D5F1D475B5F4F00
:1017C00017C0FA01A081B181A20FB31FF601E20F89
:1017D000F31FEA0DFB1D1B969C918585981719F048
:1017E000882483940BC02F5F3F4FDB012D933C93E4
:1017F000FB01208131812430310518F3DB011D927A
:101800001C92A801440F551F4E0D5F1D475B5F4F93
:1018100014C0FA01A081B181A20FB31FF601E20F3B
:10182000F31FEA0DFB1D1F969C9181899817A1F566
:101830002F5F3F4FDB012D933C93FB0120813181D2
:101840002430310530F325C0992787FD9095F601A6
:10185000E40FF51FEA0DFB1D258530E08217930785
:10186000D9F44F5F5F4FFB015183408307C0D8011C
:10187000AA0FBB1FAE0DBF1DA75BBF4FFB01408171
:101880005181ED91FC911197E40FF51F8589833209
:10189000D9F6882039F002C088248394F1E06F16CD
:1018A00009F0F0C1702E21E0A216B10479F4E02F06
:1018B000F0E0EE0FFF1FEE0DFF1DE75BFF4F019005
:1018C000F081E02DD6011B968C9182AFE72DF0E0E0
:1018D000EE0FFF1FEE0DFF1DE75BFF4FA081B181F3
:1018E000DB968C91DB978F5FDB968C930190F08178
:1018F000E02DD60118962C91189783A994A9820FF0
:10190000911D94AB83AB1B969C909A94B4E0B9154F
:1019100008F0B4C1F8C68250843008F0B3C1D101D8
:101920008C91882309F0D2C0D6011B969C911B97FD
:101930008081981709F0A6C1AA24BB241D968C911A
:10194000833219F431E0A32EB12C96012A0D3B1DF0
:10195000D9011D968C91DB011D921C928130A9F05A
:10196000813020F0823009F088C070C09389D9019D
:101970001E968C911E97981709F07FC094891F9628
:101980008C91981709F079C07CC0FB0111821082FC
:10199000A801440F551F4E0D5F1D475B5F4F17C0D9
:1019A000FA01A081B181A20FB31FF601E20FF31F6C
:1019B000EA0DFB1D1B969C918685981719F08824CB
:1019C00083940BC02F5F3F4FDB012D933C93FB01B2
:1019D000208131812430310518F3DB011D921C92E6
:1019E000A801440F551F4E0D5F1D475B5F4F14C08C
:1019F000FA01A081B181A20FB31FF601E20FF31F1C
:101A0000EA0DFB1D1F969C9182899817A1F52F5F07
:101A10003F4FDB012D933C93FB012081318124302A
:101A2000310530F325C0992787FD9095F601E40F25
:101A3000F51FEA0DFB1D268530E082179307D9F4C8
:101A40004F5F5F4FFB015183408307C0D801AA0F4E
:101A5000BB1FAE0DBF1DA75BBF4FFB014081518176
:101A6000ED91FC911197E40FF51F85898332D9F62A
:101A7000882039F002C088248394F1E06F1609F0C1
:101A800001C1702E21E0A216B10479F4E02FF0E03C
:101A9000EE0FFF1FEE0DFF1DE75BFF4F0190F08182
:101AA000E02DD6011C968C9182AFE72DF0E0EE0F71
:101AB000FF1FEE0DFF1DE75BFF4F0190F081E02D52
:101AC00083AD8F5F83AFF6019484D3C0823009F079
:101AD000D9C0D60151969C9151978081981709F0F1
:101AE000D1C0AA24BB2453968C91833219F4B1E05F
:101AF000AB2EB12C96012A0D3B1DD90153968C912A
:101B0000DB011D921C928130A9F0813020F08230DF
:101B100009F088C070C09389D90154968C9154976C
:101B2000981709F07FC0948955968C91981709F001
:101B300079C07BC0FB0111821082A801440F551FA0
:101B40004E0D5F1D475B5F4F17C0FA01A081B18149
:101B5000A20FB31FF601E20FF31FEA0DFB1D1B9648
:101B60009C918489981719F0882483940BC02F5F67
:101B70003F4FDB012D933C93FB01208131812430C9
:101B8000310518F3DB011D921C92A801440F551F6B
:101B90004E0D5F1D475B5F4F14C0FA01A081B181FC
:101BA000A20FB31FF601E20FF31FEA0DFB1D1F96F4
:101BB0009C91808D9817A1F52F5F3F4FDB012D93EE
:101BC0003C93FB01208131812430310530F325C065
:101BD000992787FD9095F601E40FF51FEA0DFB1D8F
:101BE000248930E082179307D9F44F5F5F4FFB01E0
:101BF0005183408307C0D801AA0FBB1FAE0DBF1D84
:101C0000A75BBF4FFB0140815181ED91FC91119782
:101C1000E40FF51F85898332D9F6882031F002C0A0
:101C200088248394F1E06F1669F5702E21E0A216E6
:101C3000B10479F4E02FF0E0EE0FFF1FEE0DFF1D71
:101C4000E75BFF4F0190F081E02DD60152968C9119
:101C500082AFE72DF0E0EE0FFF1FEE0DFF1DE75BFB
:101C6000FF4F0190F081E02D83AD8F5F83AFF601D0
:101C700092889A94F4E0F91508F445C505E010E05F
:101C8000662463940F5F1F4F0530110508F457CC8D
:101C900024E132E0E20EF31ED7011D921C92ECEE1D
:101CA000FDEFEE0EFF1E662009F015C68701095BE9
:101CB0001D4FD8017C90E9E4F2E0EE0EFF1E81E0BA
:101CC000D7018C93EAE0FEEFEE0EFF1ED7018C9158
:101CD000EDEAFFEFEE0EFF1E853028F0C7010E94EF
:101CE0000809D8017C90F701ED5AFF4F80818F5F82
:101CF0008083A72CBB2481E090E06EE370E00E941B
:101D0000B527FC012501440C551C4E0C5F1C29E431
:101D100030E0420E531ED2018D939C93009709F43C
:101D2000F8C52DED31E0E20EF31ED7018C9123E2D0
:101D30003EEFE20EF31E813009F084C24AE152E028
:101D4000E40EF51ED7018C9126EE3DEFE20EF31E58
:101D5000882309F022C112A6D201ED91FC91D6018F
:101D600014968C918083F201008111810E94B5014B
:101D7000D801D5966D937D938D939C93D897F70159
:101D8000EC5EFD4F118210829F01A20111C0FA0189
:101D9000608171816A0F7B1FAC0DBD1D8C91DB01D1
:101DA00019968C93F90180819181019691838083AA
:101DB000F901A081B181A230B10548F340E050E0C3
:101DC000D60116968C91833211F441E050E0D50192
:101DD000AA0FBB1FAE0DBF1DA75BBF4F2D913C913E
:101DE0001197B601640F751FFB018681F90181A768
:101DF00097012C5E3D4FF901118210820D911C91CB
:101E00001197F80181A5813089F0813020F082306E
:101E100009F089C063C0FB018781F801838BED91D4
:101E2000FC91DB0118968C91848B7DC0F9011182A5
:101E300010824901BD0114C0FB01008111810A0F0C
:101E40001B1FAC0DBD1DA40FB51F17968C91D8019B
:101E50001B968C93F40180819181019691838083FC
:101E6000F401A081B181A430B10530F3D9011D92F4
:101E70001C9297012C5E3D4FB501660F771F6E0DCA
:101E80007F1D675B7F4F14C0FB01008111810A0F2A
:101E90001B1FAC0DBD1DA40FB51F1B968C91D80147
:101EA0001F968C93F90180819181019691838083A3
:101EB000F901A081B181A430B10530F334C0ED91B6
:101EC000FC911197E80FF91F258BFB01808191810F
:101ED000019691838083459710F00CC0B901FB01F6
:101EE00080819181F601E80FF91FE40FF51F27812A
:101EF000233229F7F501EE0FFF1FEE0DFF1DE75B03
:101F0000FF4F0190F081E02D24E132E0E20EF31E5C
:101F1000D7018D919C912CEE3DEFE20EF31EE80F60
:101F2000F91F83E2858B4130510571F4F501EE0F05
:101F3000FF1FEE0DFF1DE75BFF4F0190F081E02DCD
:101F4000D60115968C9182AFD501AA0FBB1FAE0D9D
:101F5000BF1DA75BBF4FED91FC91119791E093AF2F
:101F6000F60195809A94F4E0F91508F4CCC32D910C
:101F70003C911197F6018281F90183AB14AAF60115
:101F80008381F90182ABED91FC9182A9815082306D
:101F900010F493A7A0C413A69EC4813009F09BC47B
:101FA00082A7D201ED91FC91D6011A968C91808383
:101FB000F201008111810E94B501D801D5966D937F
:101FC0007D938D939C93D897A7014C5E5D4FFA014A
:101FD000118210829A01B20111C0FB0100811181AE
:101FE0000A0F1B1FAC0DBD1D8C91D80115968C934B
:101FF000F90180819181019691838083F901A0810B
:10200000B181A430B10548F3DA011D921C92970109
:102010002C5E3D4FA501440F551F4E0D5F1D475BC4
:102020005F4F12C0FA01608171816A0F7B1FAC0D96
:10203000BD1D14968C91DB0111968C93F901808162
:102040009181019691838083F901A081B181A430AF
:10205000B10540F360E070E0D6011C968C918332AC
:1020600011F461E070E0D501AA0FBB1FAE0DBF1DDA
:10207000A75BBF4F2D913C911197A601460F571FAB
:10208000FA018485F90181A797012C5E3D4FF90182
:10209000118210820D911C911197F80181A5813058
:1020A00089F0813020F0823009F089C063C0FA01E4
:1020B0008585F801838BED91FC91DA011E968C9158
:1020C000848B7DC0F901118210824901AD0114C0D9
:1020D000FA01008111810A0F1B1FAC0DBD1DA60F57
:1020E000B71F1D968C91D8011B968C93F4018081AB
:1020F0009181019691838083F401A081B181A43004
:10210000B10530F3D9011D921C9297012C5E3D4F11
:10211000A501440F551F4E0D5F1D475B5F4F14C057
:10212000FA01008111810A0F1B1FAC0DBD1DA60F06
:10213000B71F51968C91D8011F968C93F90180811D
:102140009181019691838083F901A081B181A430AE
:10215000B10530F334C0ED91FC911197E80FF91FF0
:10216000258BFA0180819181019691838083459727
:1021700010F00CC0A901FA0180819181F601E80FED
:10218000F91FE60FF71F2585233229F7F501EE0F1A
:10219000FF1FEE0DFF1DE75BFF4F0190F081E02D6B
:1021A00024E132E0E20EF31ED7018D919C912CEEDA
:1021B0003DEFE20EF31EE80FF91F83E2858BD50198
:1021C000AA0FBB1FAE0DBF1DA75BBF4F2D913C914A
:1021D0001197F6018085F90183AB14AAF601818578
:1021E000F90182ABED91FC9182A98150823018F403
:1021F00081E083A701C013A66130710571F4F50178
:10220000EE0FFF1FEE0DFF1DE75BFF4F0190F0810A
:10221000E02DD6011B968C9182AFAA0CBB1CAE0C94
:10222000BF1CE9E4F0E0AE0EBF1ED501ED91FC91BC
:1022300081E083AFF60193849A94F4E0F91508F0F5
:102240004AC361C28250843008F045C32BE132E0BA
:10225000E20EF31ED7018C9125EE3DEFE20EF31E48
:10226000882309F066C1D6011B968C918083F20108
:10227000008111810E94B501D801D5966D937D939F
:102280008D939C93D89740E050E0F601858583328A
:1022900011F441E050E0D501AA0FBB1FAE0DBF1DE8
:1022A000A75BBF4F2D913C911197B601640F751F2D
:1022B000FB018585F90181A797012C5E3D4FF9014E
:1022C000118210820D911C911197F80181A5813026
:1022D00089F0813020F0823009F089C063C0FB01B1
:1022E0008685F801838BED91FC91DB011F968C9123
:1022F000848B7DC0F901118210824901BD0114C097
:10230000FB01008111810A0F1B1FAC0DBD1DA40F25
:10231000B51F1E968C91D8011B968C93F401808179
:102320009181019691838083F401A081B181A430D1
:10233000B10530F3D9011D921C9297012C5E3D4FDF
:10234000B501660F771F6E0D7F1D675B7F4F14C051
:10235000FB01008111810A0F1B1FAC0DBD1DA40FD5
:10236000B51F52968C91D8011F968C93F9018081EC
:102370009181019691838083F901A081B181A4307C
:10238000B10530F334C0ED91FC911197E80FF91FBE
:10239000258BFB01808191810196918380834597F4
:1023A00010F00CC0B901FB0180819181F601E80FAA
:1023B000F91FE40FF51F2685233229F7F501EE0FEB
:1023C000FF1FEE0DFF1DE75BFF4F0190F081E02D39
:1023D00024E132E0E20EF31ED7018D919C912CEEA8
:1023E0003DEFE20EF31EE80FF91F83E2858B4130CB
:1023F000510571F4F501EE0FFF1FEE0DFF1DE75BB8
:10240000FF4F0190F081E02DD6011C968C9182AF98
:10241000D501AA0FBB1FAE0DBF1DA75BBF4FED912E
:10242000FC91119781E083AFF60194849A94F4E0D3
:10243000F91508F468C197012C5E3D4FF90111822E
:1024400010828901AD0111C0FA01608171816A0FAA
:102450007B1FAC0DBD1D8C91DB0115968C93F80193
:1024600080819181019691838083F801A081B1815F
:10247000A430B10548F3D9011D921C9297012C5E3E
:102480003D4FA501440F551F4E0D5F1D475B5F4F2C
:1024900012C0FA01608171816A0F7B1FAC0DBD1DF6
:1024A00014968C91DB0111968C93F90180819181B6
:1024B000019691838083F901A081B181A430B10597
:1024C00040F31182108297012C5E3D4FA501440F0D
:1024D000551FD701A40FB51FA75BBF4F11C06D914A
:1024E0007C911197680F791F8C0D9D1DFC018085D3
:1024F000FB018187F901808191810196918380831D
:10250000F901808191818230910548F3D701A40FB0
:10251000B51FA75BBF4FED91FC91119713A62D91AD
:102520003C911197F6018285F90182ABED91FC9106
:10253000CDC1823009F0CFC1D60151968C918083F4
:10254000F201008111810E94B501D801D5966D93E9
:102550007D938D939C93D89740E050E0F60183895A
:10256000833211F441E050E0D501AA0FBB1FAE0D3C
:10257000BF1DA75BBF4F2D913C911197B601640F12
:10258000751FFB018389F90181A797012C5E3D4FDF
:10259000F901118210820D911C911197F80181A50A
:1025A000813089F0813020F0823009F089C063C029
:1025B000FB018489F801838BED91FC91DB01559639
:1025C0008C91848B7DC0F901118210824901BD017B
:1025D00014C0FB01008111810A0F1B1FAC0DBD1D32
:1025E000A40FB51F54968C91D8011B968C93F401BF
:1025F00080819181019691838083F401A081B181D2
:10260000A430B10530F3D9011D921C9297012C5EC4
:102610003D4FB501660F771F6E0D7F1D675B7F4FC6
:1026200014C0FB01008111810A0F1B1FAC0DBD1DE1
:10263000A40FB51F58968C91D8011F968C93F90161
:1026400080819181019691838083F901A081B1817C
:10265000A430B10530F334C0ED91FC911197E80F2F
:10266000F91F258BFB0180819181019691838083E5
:10267000459710F00CC0B901FB0180819181F601F2
:10268000E80FF91FE40FF51F2489233229F7F5011C
:10269000EE0FFF1FEE0DFF1DE75BFF4F0190F08176
:1026A000E02D24E132E0E20EF31ED7018D919C91E2
:1026B0002CEE3DEFE20EF31EE80FF91F83E2858B4F
:1026C0004130510571F4F501EE0FFF1FEE0DFF1DB6
:1026D000E75BFF4F0190F081E02DD60152968C917F
:1026E00082AFD501AA0FBB1FAE0DBF1DA75BBF4FA9
:1026F000ED91FC91119781E083AFF60192889A9455
:10270000F4E0F91518F4C701672D19C597012C5E7F
:102710003D4FF901118210828901AD0111C0FA010A
:10272000608171816A0F7B1FAC0DBD1D8C91DB0137
:1027300015968C93F8018081918101969183808315
:10274000F801A081B181A430B10548F3D9011D92EF
:102750001C9297012C5E3D4FA501440F551F4E0D55
:102760005F1D475B5F4F12C0FA01608171816A0F84
:102770007B1FAC0DBD1D14968C91DB0111968C93C3
:10278000F90180819181019691838083F901A08173
:10279000B181A430B10540F31182108297012C5E03
:1027A0003D4FA501440F551FB701640F751F675BAF
:1027B0007F4F12C0FB01008111810A0F1B1FAC0D5E
:1027C000BD1D18968C91D80119968C93F9018081C2
:1027D0009181019691838083F901A081B181A2301A
:1027E000B10540F3F701E40FF51FE75BFF4FA08150
:1027F000B18182E09B968C9340815181D6011A96DB
:102800008C91DA019C968C930190F081E02DD60199
:102810001B968C9185A7F9011182108297012C5E7D
:102820003D4FA501440F551F4E0D5F1D475B5F4F88
:1028300012C0FA01608171816A0F7B1FAC0DBD1D52
:102840001C968C91DB019E968C93F901808191817D
:10285000019691838083F901A081B181A230B105F5
:1028600040F31182108297012C5E3D4FA501440F69
:10287000551FD701A40FB51FA75BBF4F11C06D91A6
:102880007C911197680F791F8C0D9D1DFC01868529
:10289000FB0180ABF9018081918101969183808356
:1028A000F901808191818230910548F3F701E40FAD
:1028B000F51FE75BFF4F20813181D60150968C9147
:1028C000D901D2968C930190F081E02D82A98230BB
:1028D00011F481E083A7072D10E0A92CBB2481E02F
:1028E00090E068E670E00E94B527AC01F801EE0FB9
:1028F000FF1FEE0FFF1FE00FF11FEA0DFB1D3B96C0
:10290000EE0FFF1FEE0DFF1D518340834115510552
:1029100021F4C7010E949A0814C42DED31E0E20EA3
:10292000F31ED7019C9123E23EEFE20EF31E91309D
:1029300009F0A2C1AAE1B2E0EA0EFB1ED7018C9118
:1029400026EE3DEFE20EF31E882309F0BCC04A5983
:102950005F4FD60115968C91DA018C93D6011696AD
:102960008C910190F081E02D833221F4E959FF4FE1
:10297000908303C0E959FF4F1082F801EE0FFF1F4B
:10298000EE0FFF1FE00FF11FEA0DFB1D3B96EE0F50
:10299000FF1FEE0DFF1D0190F081E02DE959FF4F63
:1029A0006081862E9924D701AC5EBD4F11961C9292
:1029B0001E92F801EE0FFF1FEE0DFF1DE75BFF4FAC
:1029C0000190F081E02D81A5813071F0813018F007
:1029D000823039F403C082E090E01CC040E050E057
:1029E0000BC080E090E016C088E090E013C02F5F3D
:1029F0003F4F11963C932E932D913C911197F601E8
:102A0000E20FF31FE80DF91D87814F5F5F4F83329F
:102A100071F7CA01695F680F262F30E0F701E052B5
:102A2000FE4F808191818217930710F431832083B8
:102A3000F801EE0FFF1FEE0FFF1FE00FF11FEA0D71
:102A4000FB1D3B96EE0FFF1FEE0DFF1D6081718198
:102A50006C597F4F40EE51E0E40EF51ED7018D9189
:102A60009C9140E25EEFE40EF51E821B930BDB01AE
:102A70008D939C93D701AC5EBD4F11961C921E9214
:102A80004D01AF0110C06E0F7F1FEC0DFD1DE20F59
:102A9000F31F8081FB018083D4018D919C9111975C
:102AA00001968D939C93D401ED91FC91DA016D9187
:102AB0007C916C597F4FDB018D919C9164567040E5
:102AC000E817F90700F3EAE1F2E0EE0EFF1ED70186
:102AD0009C91E6EEFDEFEE0EFF1E913009F0CCC0AA
:102AE000F801EE0FFF1FEE0FFF1FE00FF11FEA0DC1
:102AF000FB1D3B96EE0FFF1FEE0DFF1D2081318168
:102B00002A593F4FD6011B968C91D9018C93D6013F
:102B10001C968C910190F081E02D833221F4E959CB
:102B2000FF4F908303C0E959FF4F1082F801EE0F69
:102B3000FF1FEE0FFF1FE00FF11FEA0DFB1D3B967D
:102B4000EE0FFF1FEE0DFF1D0190F081E02DE95902
:102B5000FF4F6081862E9924D701AC5EBD4F119640
:102B60001C921E92F801EE0FFF1FEE0DFF1DE75B9A
:102B7000FF4F0190F081E02D81A5813071F081300F
:102B800018F0823039F403C082E090E01CC040E0CD
:102B900050E00BC080E090E016C088E090E013C0E9
:102BA0002F5F3F4F11963C932E932D913C9111979F
:102BB000F601E20FF31FE80DF91D85854F5F5F4FAA
:102BC000833271F7CA01635F680F262F30E0F70187
:102BD000E052FE4F808191818217930710F4318378
:102BE0002083F801EE0FFF1FEE0FFF1FE00FF11F14
:102BF000EA0DFB1D3B96EE0FFF1FEE0DFF1D6081E2
:102C000071816C597F4F40EE51E0E40EF51ED70103
:102C10008D919C9140E25EEFE40EF51E821B930BBA
:102C2000DB018D939C93D701AC5EBD4F11961C9236
:102C30001E924D01AF0110C06E0F7F1FEC0DFD1DE8
:102C4000E20FF31F8081FB018083D4018D919C9161
:102C5000119701968D939C93D401ED91FC91DA012B
:102C60006D917C916C597F4FDB018D919C916456E5
:102C70007040E817F90700F3EDEDF1E0EE0EFF1EEE
:102C8000D7018C91E3E2FEEFEE0EFF1E82508430FE
:102C900008F0ABC12BE132E0E20EF31ED7018C91BC
:102CA000E5EEFDEFEE0EFF1E882309F0CEC0F80121
:102CB000EE0FFF1FEE0FFF1FE00FF11FEA0DFB1DD0
:102CC0003B96EE0FFF1FEE0DFF1D208131812A592B
:102CD0003F4FD6011C968C91D9018C93D6011D963D
:102CE0008C910190F081E02D833229F4E959FF4F56
:102CF00081E0808303C0E959FF4F1082F801EE0F95
:102D0000FF1FEE0FFF1FE00FF11FEA0DFB1D3B96AB
:102D1000EE0FFF1FEE0DFF1D0190F081E02DE95930
:102D2000FF4F6081862E9924D701AC5EBD4F11966E
:102D30001C921E92F801EE0FFF1FEE0DFF1DE75BC8
:102D4000FF4F0190F081E02D81A5813071F081303D
:102D500018F0823039F403C082E090E01CC040E0FB
:102D600050E00BC080E090E016C088E090E013C017
:102D70002F5F3F4F11963C932E932D913C911197CD
:102D8000F601E20FF31FE80DF91D86854F5F5F4FD7
:102D9000833271F7CA01625F680F262F30E0F701B6
:102DA000E052FE4F808191818217930710F43183A6
:102DB0002083F801EE0FFF1FEE0FFF1FE00FF11F42
:102DC000EA0DFB1D3B96EE0FFF1FEE0DFF1D608110
:102DD00071816C597F4F40EE51E0E40EF51ED70132
:102DE0008D919C9140E25EEFE40EF51E821B930BE9
:102DF000DB018D939C93D701AC5EBD4F11961C9265
:102E00001E925D01AF0110C06E0F7F1FEC0DFD1D06
:102E1000E20FF31F8081FB018083D5018D919C918E
:102E2000119701968D939C93D501ED91FC91DA0158
:102E30006D917C916C597F4FDB018D919C91645613
:102E40007040E817F90700F3D0C0823009F0CDC018
:102E5000F801EE0FFF1FEE0FFF1FE00FF11FEA0D4D
:102E6000FB1D3B96EE0FFF1FEE0DFF1D20813181F4
:102E70002A593F4FD60152968C91D9018C93D60195
:102E800053968C910190F081E02D833229F4E95919
:102E9000FF4F81E0808303C0E959FF4F1082F801A2
:102EA000EE0FFF1FEE0FFF1FE00FF11FEA0DFB1DDE
:102EB0003B96EE0FFF1FEE0DFF1D0190F081E02D00
:102EC000E959FF4F6081862E9924D701AC5EBD4F32
:102ED00011961C921E92F801EE0FFF1FEE0DFF1DC2
:102EE000E75BFF4F0190F081E02D81A5813071F00B
:102EF000813018F0823039F403C082E090E01CC0C9
:102F000040E050E00BC080E090E016C088E090E028
:102F100013C02F5F3F4F11963C932E932D913C9100
:102F20001197F601E20FF31FE80DF91D87894F5F36
:102F30005F4F833271F7CA016C5E680F262F30E055
:102F4000F701E052FE4F808191818217930710F4C0
:102F500031832083F801EE0FFF1FEE0FFF1FE00FFC
:102F6000F11FEA0DFB1D3B96EE0FFF1FEE0DFF1D3F
:102F7000608171816C597F4F40EE51E0E40EF51E87
:102F8000D7018D919C9140E25EEFE40EF51E821B0D
:102F9000930BDB018D939C93D701AC5EBD4F1196D3
:102FA0001C921E925D01AF0110C06E0F7F1FEC0DD1
:102FB000FD1DE20FF31F8081FB018083D5018D9100
:102FC0009C91119701968D939C93D501ED91FC9165
:102FD000DA016D917C916C597F4FDB018D919C9151
:102FE00064567040E817F90700F3F701E85BFF4FFC
:102FF00080818F5F8083853009F41082000F111F5C
:103000000E0D1F1D075B1F4FD801ED91FC9193AD75
:1030100082AD981711F481E081AF19E4C12ED12C53
:10302000CE0CDF1C6624772487010C5E1D4FB3E5B0
:103030002B2E312C2E0C3F1CF701E95BFD4FFA8340
:10304000E9839701275B3D4F3C832B83A701415ABE
:103050005F4F5E834D83C70183529E4F98878F8356
:10306000D701A55EBD4FBA87A987F701E752FE4F8A
:10307000FC87EB87D8011D921C920E94B501D601F6
:10308000ED91FC91309709F47DC325A936A947A994
:1030900050AD12161306140615060CF073C3621B0E
:1030A000730B840B950B69557B41804090400CF06D
:1030B00025C381AD813009F0EEC2B62CE981FA81D9
:1030C0006082AB81BC811C92ED81FE8180818F5F2B
:1030D0008083C7010E941607982FAD81BE818C9115
:1030E0008530B0F0EB85FC858081813029F081301E
:1030F00038F0823069F409C0C7010E94010803C09A
:10310000C7010E949407982F03C0C701662D17C0FE
:10311000492E552481E090E064EB70E00E94B527D1
:10312000AC019201265D3F4F220F331F2E0D3F1D34
:10313000D9018D939C93009731F4C7016B2D0E94A8
:1031400036078FEF2EC3F101808181508083455572
:103150005F4FD601ED91FC9185A896A8A7A8B0ACC9
:10316000DA018D929D92AD92BC9213974F525040CE
:103170008081FA018083D901ED91FC91E955FF4FDF
:10318000D6018D919C91DC019A968C918083F901F6
:10319000A081B181F60180819181FC0183A51896FF
:1031A0008C93AF81B8858C91813009F060C0F901B2
:1031B000A081B181A955BF4F8C91A75AB0408130F1
:1031C00009F048C0D8011D921C92A90116C0FA014D
:1031D000A081B181A80FB91FAF57BF4FF601208161
:1031E0003181280F391FF90185818C93D8018D9188
:1031F0009C91119701968D939C93F8018081918108
:103200008430910520F311821082A201465D5F4F48
:10321000440F551F4E0D5F1D16C0FA01A081B181EC
:10322000A80FB91FA358BF4FF60120813181280F85
:10323000391FF90181818C93D8018D919C9111974F
:1032400001968D939C93F801808191818430910542
:1032500020F36EC0882309F06BC0AB57BF4FF60157
:1032600080819181FC0181858C93D90156C0F80140
:1032700011821082A90116C0FA01A081B181A80FA4
:10328000B91FAF57BF4FF60120813181280F391F79
:10329000F90185818C93D8018D919C9111970196AC
:1032A0008D939C93F801808191818430910520F366
:1032B000118210829201265D3F4FB901660F771F80
:1032C0006E0D7F1D13C0DB01ED91FC91E80FF91F1E
:1032D000E358FF4F480F591FDA0111968C918083F4
:1032E000F80180819181019691838083D8018D912D
:1032F0009C91F601408151818430910520F3D901E0
:10330000AA0FBB1FAE0DBF1D2D913C9111972B57DE
:103310003F4FFA018185F9018083ED91FC91EA57D5
:10332000FF4FD6018D919C91DC011A968C91808380
:10333000F601808191813AE2A32EB12CA40CB51C38
:10334000AA0CBB1CAE0CBF1CD501ED91FC91EA553B
:10335000FF4FDC01DA966C91DA97D3968D919C91B0
:10336000D49770E00E944B276083D501ED91FC91CA
:10337000E855FF4FD6018D919C91DC0199968C9177
:103380008083F501A081B181A855BF4F8C91A85AC7
:10339000B0408130D9F0813020F0823009F08BC00C
:1033A0005DC0A157BF4FF60180819181FC018389E7
:1033B0008C93D501ED91FC91E057FF4FD6018D9193
:1033C0009C91DC0154968C91808375C0F801118228
:1033D0001082A50116C0FA01A081B181A80FB91F02
:1033E000A557BF4FF60120813181280F391FF90100
:1033F00083858C93D8018D919C91119701968D9323
:103400009C93F801808191818430910520F3118291
:103410001082A201465D5F4F440F551F4E0D5F1D88
:1034200016C0FA01A081B181A80FB91FA957BF4FDB
:10343000F60120813181280F391FF90187858C938E
:10344000D8018D919C91119701968D939C93F801D1
:10345000808191818430910520F32DC0D8011D9287
:103460001C92A501F80180819181FA01A081B181AE
:10347000A80FB91FAF56BF4FF60120813181280F29
:10348000391FF90185898C93D8018D919C911197F1
:1034900001968D939C93D601ED91FC91E80FF91F55
:1034A00025892332F9F6D501ED91FC91E80FF91F3A
:1034B000EF56FF4F2083D601ED91FC9182AD682F2E
:1034C00070E061507040F301EE0FFF1FEE0FFF1F21
:1034D000E60DF71DE60FF71F3B96EE0FFF1FEE0DF3
:1034E000FF1DF88BEF8788249924AA24BB24A2010E
:1034F000465D5F4F440F551F4E0D5F1D32C0D80112
:103500001D921C9216C0FA0120813181280F391FAB
:103510002A0D3B1DA80FB91F8C91D9011C968C93C5
:103520000894811C911CF8018081918101969183FE
:103530008083D8018D919C91EF85F889A081B1811C
:10354000AC59BF4F2D913C911197A456B0408217B2
:103550009307C8F2A20EB31E615070403297F88BE9
:10356000EF87FFEF6F3F7F0751F69201265D3F4FD8
:10357000220F331F2E0D3F1DF901A081B181A059EB
:10358000BF4F11969C928E92A057B040E985FA8564
:103590008081823009F044C0AC58BF4FF601808171
:1035A0009181FC0184A58C93D901ED91FC91EB589C
:1035B000FF4FD6018D919C91DC019D968C9180836B
:1035C000D901ED91FC91EA58FF4FD6018D919C9164
:1035D000DC019E968C918083D901ED91FC91E95894
:1035E000FF4FD6018D919C91DC019F968C91808339
:1035F000D901ED91FC91E858FF4FD6018D919C9136
:10360000DC01D0968C918083D901ED91FC91E75833
:10361000FF4FD6018D919C91DC01D1968C918083D6
:10362000F801118210825301AA0CBB1CAA0CBB1C0E
:10363000A60CB71C1CC0EA0DFB1D3B96EE0FFF1F2E
:10364000EE0DFF1D808191810E947E28D8018D9111
:103650009C911197F501E80FF91F3B96EE0FFF1FA4
:10366000EE0DFF1D1182108201968D939C93D8015F
:10367000ED91FC91E530F105F0F2D601ED91FC9170
:1036800015AA16AA17AA10AECF010E947E28F6012D
:103690001182108277C092AD83AD981709F072C085
:1036A000D8011D921C925301AA0CBB1CAA0CBB1C76
:1036B000A60CB71C1CC0EA0DFB1D3B96EE0FFF1FAE
:1036C000EE0DFF1D808191810E947E28F80180818E
:1036D0009181F501E80FF91F3B96EE0FFF1FEE0DEC
:1036E000FF1D118210820196D8018D939C93D80101
:1036F000ED91FC91E530F105F0F22DC0F801118259
:1037000010825301AA0CBB1CAA0CBB1CA60CB71C34
:103710001CC0EA0DFB1D3B96EE0FFF1FEE0DFF1DBB
:10372000808191810E947E28D8018D919C91119772
:10373000F501E80FF91F3B96EE0FFF1FEE0DFF1D81
:103740001182108201968D939C93D801ED91FC918A
:10375000E530F105F0F2D601ED91FC9115AA16AA1B
:1037600017AA10AECF010E947E28F60111821082A6
:10377000D1018C9181508C93E981FA816082AB8177
:10378000BC811C920894611C711CE2E0F0E0CE0E3A
:10379000DF1EF5E06F16710409F06CCC80E001C00B
:1037A00081E060960FB6F894DEBF0FBECDBFCF911B
:1037B000DF911F910F91FF90EF90DF90CF90BF901E
:1037C000AF909F908F907F906F905F904F903F90C1
:1037D0002F900895AF92BF92CF92DF92EF92FF9217
:1037E0000F931F93CF93DF93EC016B015A01890173
:1037F00088E790E061E070E00E94B5277C010097C7
:1038000011F41FEF6BC0CE01B601A50198010E9413
:103810003A06882329F0C7010E947E2811E05EC085
:10382000DE01A052BE4F11961C921E92FE01EC5E6C
:10383000FD4F0C5F1F4F11830083045010409F0108
:10384000A50141505040BD0116C0FD013497E01B59
:10385000F10BEE0DFF1DAC0DBD1D8C918083FB01A6
:1038600080819181019691838083F901808191818A
:10387000019691838083F901A081B181A417B507D6
:1038800020F3C00ED11EF6016381613879F06238F1
:1038900018F46038D9F405C0603971F06139B1F4B9
:1038A0000FC0C65EDD4F81E0888303C0C65EDD4F7A
:1038B0001882CA51D2400AC0C55EDD4F188204C0CA
:1038C000C55EDD4F82E08883CB51D240CE01B70187
:1038D0000E94E809182FC7010E947E28812FDF91DE
:1038E000CF911F910F91FF90EF90DF90CF90BF90FD
:1038F000AF9008952F923F924F925F926F927F9276
:103900008F929F92AF92BF92CF92DF92EF92FF92EF
:103910000F931F93DF93CF93CDB7DEB762970FB6A8
:10392000F894DEBF0FBECDBF8C013B010E94B501F4
:10393000D82E04521E4F82E0D8018C930C5D1140AA
:10394000F801E85BFD4F8081882321F4EE24FF24F9
:10395000332409C08EE7D3018C93108251E0E52E09
:10396000F12C332433944D2D592FCB01DA014C0126
:103970005D01EBE0F0E0FA8BE98BDD245524C80112
:10398000885B9D4F988B8F8746E0242E4424439478
:10399000B1C083E895E00E943503882311F4CC245C
:1039A00095C083E895E00E943003F301EE0DFF1D02
:1039B00080830894E11CF11C0E94B501AC01CB018D
:1039C000DA014C015D010894E108F108F301EE0D04
:1039D000FF1D0894E11CF11C80818E3761F48CE29C
:1039E00091E08E199F098E36910520F4AF85B88934
:1039F0004C9201C03394B1E0EB16F10449F4EE248B
:103A0000FF2480818E3761F431E0E32EF12C08C071
:103A1000ECE2EE16E1E0FE0618F0CC24C39401C0FF
:103A2000CC24529C900111242C5F3F4FC9018D0D75
:103A3000911DE816F90699F4F1E0DF1699F0F3010B
:103A4000EE0DFF1D319780818A58823080F0898980
:103A50009A8903969A8B898BDD24D39403C091E0D5
:103A6000D91629F4A989BA891196BA8BA98BF301C1
:103A7000EE0DFF1D3197E081ED3741F4DD20F9F4C3
:103A8000E989FA893196FA8BE98B19C0EA3851F441
:103A9000E216F306A1F489899A8906969A8B898B96
:103AA00053940DC0EE3759F491E0D91641F4A98929
:103AB000BA891197BA8BA98B29EFD22EDA0EE98930
:103AC000FA89EE16FF0611F4CC24C3940E94B501C6
:103AD0000E94B501681979098A099B09615D7740DF
:103AE0008040904028F083E895E00E942B0308C0B6
:103AF000CC2031F4AF85B8898C91882309F449CF63
:103B0000F30180818E3709F0339491E0C92ED12CD6
:103B1000AA24BB2484E1482E82E0582E400E511E78
:103B2000C8018C5B9D4F9A838983D801AB5BBD4FE5
:103B3000BC83AB83F801EA5BFD4FFE83ED83C801D4
:103B40008D5B9D4F98878F83D801AE5BBD4FBA8741
:103B5000A987F801E452FE4FFC87EB878824839401
:103B6000C80185529E4F9E878D879BC00894C11CBB
:103B7000D11C80818E3721F03196CE14DF04B0F352
:103B8000D601AA19BB09BA8BA98BF2011182108246
:103B90009924A3014A0D5B1D0CC0FA01E20FF31F2B
:103BA00080818D3709F493942F5F3F4FD2012D937D
:103BB0003C93F2012081318189899A89281739073C
:103BC00060F3992049F09601281B390BC801B30115
:103BD00049895A890E94AC039601A989BA892A1B8E
:103BE0003B0BF301E20FF31F83818B38C1F18C385B
:103BF00020F48A3809F050C006C0803991F081392C
:103C000009F04AC01BC0E989FA89EA0DFB1DE919D0
:103C1000F109FA8BE98BC801B301AF010E9462067A
:103C20003BC089899A898A0D9B1D891991099A8BB4
:103C3000898BC801B30149895A890BC0E989FA897E
:103C4000EA0DFB1DE919F109FA8BE98BC801B301F3
:103C5000AF010E94EA1BAD85BE858C931DC0858196
:103C6000A981BA818C938681AB81BC818C93878139
:103C7000AD81BE818C938185AF81B8858C93808521
:103C8000E985FA858083882321F4AB85BC851C9265
:103C900003C0EB85FC8580823A9456010894C11CD0
:103CA000D11C332021F0F301EC0DFD1D62CF045235
:103CB0001E4FD8018C9162960FB6F894DEBF0FBEEE
:103CC000CDBFCF91DF911F910F91FF90EF90DF90CB
:103CD000CF90BF90AF909F908F907F906F905F90AC
:103CE0004F903F902F9008952F923F924F925F9266
:103CF0006F927F928F929F92AF92BF92CF92DF92FC
:103D0000EF92FF920F931F93DF93CF93CDB7DEB760
:103D10002A970FB6F894DEBF0FBECDBF6C014B01E2
:103D20000E94B501F82E2CED31E0C20ED31E82E0C8
:103D3000D6018C93E4E2FEEFCE0EDF1EF601E85BC7
:103D4000FD4F8081882321F400E010E0332408C077
:103D50008EE7D4018C93108201E010E03324339479
:103D60004F2D592FCB01DA012C013D01E7E0F0E0A6
:103D7000FA87E987FF24BB249601285B3D4F3887EB
:103D80002F83F6E02F2EAA24A394ACC083E895E0FD
:103D90000E943503882311F4EE2490C083E895E057
:103DA0000E943003F401E00FF11F80830F5F1F4F6B
:103DB0000E94B501AC01CB01DA012C013D0101509B
:103DC0001040F401E00FF11F0F5F1F4F80818E370D
:103DD00061F48CE291E0801B910B8E36910520F40A
:103DE000AF81B885AC9201C033940130110541F424
:103DF00000E010E080818E3751F401E010E007C050
:103E0000B1E00C321B0718F0EE24E39401C0EE245D
:103E1000B29C900111242C5F3F4FC9018F0D911D61
:103E20000817190799F4E1E0FE1699F0F401E00F84
:103E3000F11F319780818958823080F089859A8579
:103E400003969A878987FF24F39403C091E0F916BB
:103E500029F4A985BA851196BA87A987F401E00FDC
:103E6000F11F3197E081ED3741F4FF2001F5E9853D
:103E7000FA853196FA87E9871AC0EA3859F40217A9
:103E80001307A9F429853A852A5F3F4F3A87298786
:103E9000B3940DC0EE3759F431E0F31641F489853F
:103EA0009A8501979A878987E9EFFE2EF80EA985F2
:103EB000BA850A171B0711F4EE24E3940E94B5019A
:103EC0000E94B5016419750986099709615D7740FB
:103ED0008040904028F083E895E00E942B0308C0C2
:103EE000EE2031F4EF81F8858081882309F44ECFEC
:103EF000D4018C918E3709F0339471E0E72EF12CC8
:103F0000AA24BB2464E1462E62E0562E4C0C5D1CB4
:103F1000F601E552FE4FFA83E98396012E5B3D4F91
:103F20003C832B83C60184529E4F9E838D836624DF
:103F3000639488C00894E11CF11C80818E3721F0C5
:103F40003196E016F106B0F3D701AA19BB09BA877A
:103F5000A987F201118210827724A4014A0D5B1D0A
:103F60000CC0FA01E20FF31F80818D3709F47394BE
:103F70002F5F3F4FD2012D933C93F201208131817D
:103F800089859A852817390760F3772049F09701CA
:103F9000281B390BC601B40149855A850E94AC0320
:103FA0009701A985BA852A1B3B0BF401E20FF31F89
:103FB0008381813821F1823818F48038F1F512C0FC
:103FC000893871F18A38C9F5E985FA85EA0DFB1D52
:103FD000E719F109FA87E987C601B401AF010E9428
:103FE00062062BC089859A858A0D9B1D87199109C8
:103FF0009A878987C601B40149855A850BC0E9852E
:10400000FA85EA0DFB1DE719F109FA87E987C60170
:10401000B401AF010E94EA1BA981BA818C930DC043
:104020008581EB81FC818083882321F4AD81BE8171
:104030001C9203C0ED81FE8160823A94570108947E
:10404000E11CF11C332021F0F401EE0DFF1D75CFB2
:104050002CED31E0C20ED31ED6018C912A960FB6FC
:10406000F894DEBF0FBECDBFCF91DF911F910F91AE
:10407000FF90EF90DF90CF90BF90AF909F908F9088
:104080007F906F905F904F903F902F9008952F9268
:104090003F924F925F926F927F928F929F92AF92D8
:1040A000BF92CF92DF92EF92FF920F931F93DF9315
:1040B000CF93CDB7DEB72C970FB6F894DEBF0FBE07
:1040C000CDBF6C0178876F838CE291E061E070E096
:1040D0000E94B5275C01009739F483E895E00E94BF
:1040E0002B03FF24FA94C7C10E94B5010E94B501B9
:1040F000F601E85BFD4F8081882321F44424552498
:104100001A8209C010828EE7F5018083B1E04B2E40
:10411000512CF1E0FA83EF81F88580818F3F29F4FB
:10412000C601B5010E94741E06C08E3F79F4C60117
:10413000B5010E947A1C860104521E4FF80180834B
:10414000C5010E947E28F801F08095C18E3E41F4A1
:10415000A5E0EA2EF12C012D112DFDE63F2E07C022
:10416000E2E3EE2EF12C012D112D7EE1372EEF81B1
:10417000F8858581853489F48681843409F045C0C9
:104180002DED31E0C20ED31EF601808123E23EEF19
:10419000C20ED31E8130C9F58EC1843461F4EF8123
:1041A000F88586818E3489F568EEE62E63E0F62E7A
:1041B000012D112D2AC08E3441F5EF81F8858681BD
:1041C000843419F52DED31E0C20ED31EF601808145
:1041D00023E23EEFC20ED31E833039F450E4E52EC5
:1041E0005CE9F52E012D112D10C08450823038F479
:1041F00040EBE42E46E3F42E012D112D06C030E2F3
:10420000E32E3EE4F32E012D112D0E94B5016B83A8
:104210007C838D839E830E94B501AC01CB01DA01C2
:104220003C014D01A601485B5D4F5C874B87232C09
:1042300033242CC083E895E00E943003F501E40D9F
:10424000F51D80830894411C511CF501E40DF51DFA
:10425000319780818E3779F48CE291E08419950949
:104260008215930528F421E0EB85FC85208303C0AB
:104270003A813F5F3A830E94B501AC01CB01DA017C
:104280003C014D010E94B5010E94B5010E94B5019B
:1042900066197709880999096E157F0580079107C6
:1042A00008F003C10E94B5012B813C814D815E81E4
:1042B000621B730B840B950B60547C4980409040CB
:1042C00008F0F3C04CE2441641E0540608F0EDC09B
:1042D000EB85FC858081882309F0E7C083E895E0C1
:1042E0000E943503882371F2A5CFFA81FF5FFA831C
:1042F00021E0822E912C00E010E092E0F92E19824C
:1043000084E1282E82E0382E2C0C3D1C960126528A
:104310003E4F3A872987BBED6B2EB1E07B2E6C0CAC
:104320007D1C9CC00894811C911C80818E3721F0DB
:10433000319684149504B0F3A401401B510B5C87A3
:104340004B87F10111821082EE24A501400F511F0D
:104350000CC0FA01E20FF31F80818D3709F4E3945A
:104360002F5F3F4FF10131832083F10120813181A3
:104370008B859C852817390760F3EE2049F094015E
:10438000281B390BC601B5014B855C850E94AC0327
:10439000D401EB85FC85AE1BBF0BF501EA0FFB1FBB
:1043A0008381883881F0893830F4803879F1813818
:1043B00009F048C036C08039A1F1813991F18A38BD
:1043C00009F040C013C02B853C85200F311F2E19EA
:1043D00031093C872B87C601B5014F8158858D0176
:1043E0000E948006F82EE985FA852BC02B853C8536
:1043F000200F311F2E1931093C872B87C601B501CB
:10440000A9019D010E946206F82E1CC04B855C85A7
:10441000400F511F4E1951095C874B87C601B501EA
:104420000BC02B853C85200F311F2E1931093C878D
:104430002B87C601B501A9019D010E94EA1BF82E38
:10444000F301F082FF2019F4F981FF5FF9832A81DB
:1044500021502A8384010894811C911C3A813323C2
:1044600021F0F501E80DF91D60CFC5010E947E28FD
:1044700049814111FF248F2D2C960FB6F894DEBF91
:104480000FBECDBFCF91DF911F910F91FF90EF90A5
:10449000DF90CF90BF90AF909F908F907F906F9064
:1044A0005F904F903F902F900895F50180818E3757
:1044B00009F01BCF1DCFA8EBEA2EABE0FA2E012DA1
:1044C000112DA3CEFC01EE5DFD4F2EEE2083BF012A
:1044D0000E9447200895CF92DF92EF92FF920F93B0
:1044E0001F93CF93DF93EC01FC01EC5EFD4F118233
:1044F000108290E0DF0106C09F5F2F5F3F4F119653
:104500003C932E932D913C911197FB01E20FF31FE9
:104510008081882389F7092F069512E2C12E12E0C7
:10452000D12ECC0EDD1E760110E00DC0F7014191B9
:104530007F0150E060E070E083E895E020E030E04B
:104540000E940D031F5F101788F3CE01B6010E9471
:104550004720DF91CF911F910F91FF90EF90DF9057
:10456000CF900895BF92CF92DF92EF92FF920F9378
:104570001F93CF93DF938C01B42EDC01AC5EBD4F53
:1045800011961C921E92ED0109C0F801E80FF91F67
:10459000EE5DFD4F10820196998388838881998111
:1045A0008E31910590F31D921C9290E0D801AC5E83
:1045B000BD4F06C09F5F2F5F3F4F11963C932E93D8
:1045C0002D913C911197FB01E20FF31F808188230D
:1045D00089F7D92ED6947B01C02EC801EC0110C0FA
:1045E00080ED97E0F701608141810E945C23CE5D00
:1045F000DD4F888322E030E0E20EF31EC152D2404C
:10460000FE01EC19ED1560F30D0D111D005E1D4F3F
:10461000F801B082DF91CF911F910F91FF90EF9041
:10462000DF90CF90BF9008951F93CF93DF93EC015D
:10463000162FC652DE4F82E08883CA5DD140CE017C
:104640006CEE74E0412F0E94B222CE016CEE74E059
:104650000E946803CE016CEE74E00E946B228823F6
:1046600009F41D8BDF91CF911F910895CF93DF93B4
:10467000EC0183E895E00E943A0383E895E061E06D
:104680000E944703C352DE4F8881CD5DD140823006
:1046900011F0853029F464EF71E080E090E004C00F
:1046A00062E370E080E090E00E94CD0181E08883C9
:1046B00080E0DF91CF9108956833A1F1693380F4F0
:1046C000643341F1653338F4623301F1633300F54B
:1046D0006133D1F417C0663309F1673308F51CC0A4
:1046E000633441F1643438F4613401F1623400F52B
:1046F000693351F419C0653409F16534E8F0663462
:1047000019F41EC081E01DC080E01BC082E019C00A
:1047100083E017C084E015C085E013C086E011C0B7
:1047200087E00FC088E00DC089E00BC08AE009C0B7
:104730008BE007C08CE005C08DE003C08EE001C0B7
:104740008FE04733A1F1483380F4433341F14433E0
:1047500038F44133F1F0423300F54033E1F51BC04A
:10476000453309F1463308F51CC0423441F1433466
:1047700038F4493301F14933E0F0413461F51DC0AB
:10478000443409F14434E8F04534F9F04634F9F0A2
:10479000089591E01DC090E01BC092E019C093E025
:1047A00017C094E015C095E013C096E011C097E0E3
:1047B0000FC098E00DC099E00BC09AE009C09BE0E3
:1047C00007C09CE005C09DE003C09EE001C09FE0E3
:1047D0008295807F890F089508950F931F93162F58
:1047E000042F862F61E00E94E226013019F4812F08
:1047F00061E004C0002321F4812F60E00E940027C3
:104800001F910F910895CF92DF92EF92FF920F9335
:104810001F936C017B016CE041E00E94ED23C60117
:104820006DE041E00E94ED2300E010E0C801B70117
:104830000E94CD01C6016CE040E00E94ED23C6015C
:104840006DE040E00E94ED23C801B7010E94CD0158
:104850001F910F91FF90EF90DF90CF9008950895F2
:104860000F931F938C0103521E4FF80161934193E4
:104870008F01208307591140F8011082055F1F4FF7
:10488000F8011082045F1F4FF80110820E511F4F74
:10489000F801108202501040F80111928F0182E855
:1048A0008083075D1F4FF801119284E081938F018F
:1048B00080E2808300521F4FF801119211921192F1
:1048C000119211928F0110820E5F1F4FF801119209
:1048D0008F0110820B5F1F4F91E0F80191938F01C0
:1048E00010820B5F1F4F83E0F80181938F018AE0F4
:1048F00080830E5F1F4FF801108201581040F801AD
:10490000118210820C5C1F4FF801119211921192CA
:1049100011921192119211921192119211928F0192
:104920001082118212821382075D1F4FF8011192CB
:104930008F0110820F56104082E0F80180830059E9
:104940001F4FF80190830F561040F8018193819317
:104950008F0180830C5D1140C8010E946E08C80160
:104960000E94FD061F910F910895982F662339F438
:104970008091C00085FFFCCF9093C6000895809180
:10498000C80085FFFCCF9093CE000895882389F45A
:104990008091140C9091150C80509E4F2091160C14
:1049A0003091170C821B930B60E072E00E945F272E
:1049B00008958091180C9091190C80589F4F209168
:1049C0001A0C30911B0C821B930B60E870E00E9464
:1049D0005F2708958823D1F44091160C5091170C4D
:1049E0008091140C9091150C8417950751F1FA01E0
:1049F000EC55F34F2081CA01019660E072E00E94FD
:104A00005F279093170C8093160C19C040911A0CD5
:104A100050911B0C8091180C9091190C84179507DC
:104A200081F0FA01EC5DF34F2081CA01019660E844
:104A300070E00E945F2790931B0C80931A0C30E06B
:104A400002C02FEF3FEFC9010895882349F4109267
:104A5000170C1092160C1092150C1092140C08954D
:104A600010921B0C10921A0C1092190C1092180C28
:104A700008951F920F920FB60F920BB60F9211244A
:104A80002F933F934F935F936F937F938F939F9356
:104A9000AF93BF93EF93FF934091C600E091140C46
:104AA000F091150CCF01019660E072E00E945F2743
:104AB0009C018091160C9091170C2817390739F03A
:104AC000EC55F34F40833093150C2093140CFF9159
:104AD000EF91BF91AF919F918F917F916F915F9176
:104AE0004F913F912F910F900BBE0F900FBE0F90E3
:104AF0001F9018951F920F920FB60F920BB60F9240
:104B000011242F933F934F935F936F937F938F93D2
:104B10009F93AF93BF93EF93FF934091CE00E091AB
:104B2000180CF091190CCF01019660E870E00E941A
:104B30005F279C0180911A0C90911B0C2817390754
:104B400039F0EC5DF34F40833093190C2093180C2F
:104B5000FF91EF91BF91AF919F918F917F916F9155
:104B60005F914F913F912F910F900BBE0F900FBE11
:104B70000F901F9018950E94B52408952F923F9290
:104B80004F925F926F927F928F929F92AF92BF925D
:104B9000CF92DF92EF92FF920F931F93DF93CF9309
:104BA000CDB7DEB7A1970FB6F894DEBF0FBECDBF6D
:104BB0006B017C0129013A0109A361157105810589
:104BC000910529F480E3602F0E94B52448C0882411
:104BD000992454011E010894211C311C8101080DE7
:104BE000191DC701B601A30192010E947227F801A5
:104BF00060830894811C911CA11CB11CC701B601E3
:104C0000A30192010E947227C901DA016C017D01A2
:104C1000C114D104E104F10409F77101E80CF91C95
:104C20003E010894611C711CD501C4010197A109C2
:104C3000B1096C01C818D9080FC0F601EE0DFF1DAF
:104C400080818A3010F4805D01C0895C69A10E9476
:104C5000B5240894E108F1086E147F0471F7A19659
:104C60000FB6F894DEBF0FBECDBFCF91DF911F917D
:104C70000F91FF90EF90DF90CF90BF90AF909F90FB
:104C80008F907F906F905F904F903F902F900895FE
:104C9000882371F488E00E9484028091C1008F7E95
:104CA0008093C1008091C100877F8093C1000895E7
:104CB00080E10E9484028091C9008F7E8093C900A8
:104CC0008091C900877F8093C9000895EF92FF9279
:104CD0000F931F937B018C014423C1F588E00E9450
:104CE0004A02C801B70122E030E040E050E00E94F3
:104CF0009427205E3E45484F5F4FCA01B901A80185
:104D000097010E949427C901DA010197A109B1090D
:104D1000292F3A2F4B2F552747FD5A950196A11D54
:104D2000B11D2093C50081508093C4008091C100C3
:104D300080618093C1008091C10088608093C10030
:104D40008091C10080688093C10037C080E10E94DB
:104D50004A02C801B70122E030E040E050E00E9482
:104D60009427205E3E45484F5F4FCA01B901A80114
:104D700097010E949427C901DA010197A109B1099D
:104D8000292F3A2F4B2F552747FD5A950196A11DE4
:104D9000B11D2093CD0081508093CC008091C9003B
:104DA00080618093C9008091C90088608093C900A8
:104DB0008091C90080688093C9001F910F91FF9076
:104DC000EF900895282F30E0C901895E9E4FFC01C5
:104DD00094912C513F4FF9018491882381F0E82F61
:104DE000F0E0E453FF4FE491F0E0662329F4808182
:104DF00090958923808308958081892B80830895ED
:104E0000482F50E0CA01865B9E4FFC012491CA01E5
:104E1000895E9E4FFC0194914C515F4FFA01349191
:104E20003323C1F1222331F1233021F4809180001A
:104E30008F7705C0243031F4809180008F7D80937E
:104E4000800018C0213019F484B58F7704C0223057
:104E500021F484B58F7D84BD0DC0263021F480916E
:104E6000B0008F7705C0273029F48091B0008F7D86
:104E70008093B000E32FF0E0EC52FF4FE491F0E0BC
:104E8000662329F480819095892380830895808109
:104E9000892B80830895AA1BBB1B51E107C0AA1F61
:104EA000BB1FA617B70710F0A61BB70B881F991FCB
:104EB0005A95A9F780959095BC01CD01089597FB6F
:104EC000092E07260AD077FD04D0E5DF06D00020A2
:104ED0001AF4709561957F4F0895F6F79095819536
:104EE0009F4F0895A1E21A2EAA1BBB1BFD010DC006
:104EF000AA1FBB1FEE1FFF1FA217B307E407F5078A
:104F000020F0A21BB30BE40BF50B661F771F881F65
:104F1000991F1A9469F760957095809590959B01FB
:104F2000AC01BD01CF01089597FB092E05260ED0D7
:104F300057FD04D0D7DF0AD0001C38F450954095B7
:104F4000309521953F4F4F4F5F4F0895F6F790955D
:104F50008095709561957F4F8F4F9F4F0895EE0F0D
:104F6000FF1F0590F491E02D09940F931F93CF93A9
:104F7000DF93689F8001699F100D789F100D1124A9
:104F8000C8010E94D127EC01009729F060E070E091
:104F9000A8010E94D628CE01DF91CF911F910F91D9
:104FA0000895CF93DF93BC018230910510F462E045
:104FB00070E0A091A60EB091A70EED01E0E0F0E048
:104FC00040E050E021C0888199818617970769F4F5
:104FD0008A819B81309719F09383828304C09093D8
:104FE000A70E8093A60EFE0134C06817790738F427
:104FF0004115510519F08417950708F4AC01FE011D
:105000008A819B819C01E9012097E9F641155105B0
:10501000A9F1CA01861B970B049708F4BA01E0E0D6
:10502000F0E02AC08D919C91119784179507F9F4AF
:105030006417750781F412968D919C9113973097A0
:1050400019F09383828304C09093A70E8093A60ED9
:10505000FD0132964FC0CA01861B970BFD01E80F78
:10506000F91F6193719302978D939C9343C0FD0147
:10507000828193819C01D9011097A1F68091A40EA1
:105080009091A50E892B41F480917C0590917D052E
:105090009093A50E8093A40E40917E0550917F05BC
:1050A0004115510541F44DB75EB780917A05909155
:1050B0007B05481B590B2091A40E3091A50E241797
:1050C0003507B0F4CA01821B930B8617970780F04F
:1050D000AB014E5F5F4F8417950750F0420F531F8F
:1050E0005093A50E4093A40EF9016193719302C0F1
:1050F000E0E0F0E0CF01DF91CF910895CF93DF930F
:10510000009709F450C0EC0122971B821A82A091EB
:10511000A60EB091A70E109709F140E050E0AC1731
:10512000BD0708F1BB83AA83FE0121913191E20FF3
:10513000F31FAE17BF0779F48D919C911197280F3B
:10514000391F2E5F3F4F3983288312968D919C9192
:1051500013979B838A834115510571F4D093A70E51
:10516000C093A60E20C012968D919C911397AD010D
:10517000009711F0DC01D3CFFA01D383C2832191D0
:105180003191E20FF31FCE17DF0769F4888199810F
:10519000280F391F2E5F3F4FFA01318320838A8108
:1051A0009B8193838283DF91CF910895DC0101C0BD
:0E51B0006D9341505040E0F70895F894FFCF02
:1051BE00374530303134303835323442353930308D
:1051CE0030303030303030303030303030303030D1
:1051DE0030303030303030303030303030303030C1
:1051EE00003745303030353038353234453534308F
:1051FE003030300037453030303630383532344587
:10520E003534303030303030003745303030363095
:10521E003835323533353030303030303000374578
:10522E00303030373038353235333530303030304D
:10523E00303030300037453030303630383532355A
:10524E003335343030303030300037453030303751
:10525E003038353235333534303030303030303020
:10526E00003745303030363038353234393434301A
:10527E003030303030003745303030433038353212
:10528E0034393434303030303030303030303030FB
:10529E003030303030300037453030303630383501
:1052AE0032353334333030303030300037453030F3
:1052BE0030363038353234443539303030303030A5
:1052CE0000374530303034303835323533344630AF
:1052DE0033003745303030343038353235323435AE
:1052EE00304500374530303034303835323436358D
:1052FE003230440037453030303430383532343186
:10530E003433323100374530303034303835323581
:10531E003235303033003745303030343038353276
:10532E003536353246440037453030303430383536
:10533E003234383536303700374530303034303847
:10534E003532353334343045003745303030343033
:10535E00383532353334333046003745303030341B
:10536E0030383532353735324643003745303030F8
:10537E0034303835323445344630380037453030E5
:10538E0030343038353234453534303300374530EB
:10539E0030303430383532344534343133003745DB
:1053AE0030303034303835323445343930450037CA
:1053BE0045303030343038353234333438314100C2
:1053CE00374530303034303835323533344430357B
:1053DE000037453030303430383532344435394684
:1053EE004600374530303034303835323533343886
:1053FE003041003745303030343038353235333483
:10540E00433036003745303030353038353235336D
:10541E003446303030300037453030303530383566
:10542E00323532353030303030003745303030356F
:10543E003038353235303443303030300037453047
:10544E003030353038353234353435303030300058
:10545E0037453030303530383532343534343030FD
:10546E003030003745303030353038353235333422
:10547E00343030303000374530303035303835321A
:10548E0034453446303030300037453030303530EA
:10549E0038353234333438303030300037453030F0
:1054AE0030353038353235333444303030300037E3
:1054BE004530303035303835323431344630303096
:1054CE0030003745303030353038353234313530C4
:1054DE0030303030003745303030353038353234BA
:1054EE0032343430303030000037453030303430E4
:1054FE0038353234393434313800303030303030A1
:10550E003030303030304646464600374530303049
:10551E003430383532343434323146002B2B2B00B4
:10552E0061746462006174636E002000A80E000056
:02553E0001006A
:00000001FF
